{
	"krisha7MyWallet.sol": {
		"MyWallet": {
			"abi": [
				{
					"inputs": [
						{
							"internalType": "address",
							"name": "_owner",
							"type": "address"
						},
						{
							"internalType": "address[5]",
							"name": "_guardians",
							"type": "address[5]"
						},
						{
							"internalType": "address[]",
							"name": "allowedPeople",
							"type": "address[]"
						},
						{
							"internalType": "uint256[]",
							"name": "initialAllowances",
							"type": "uint256[]"
						}
					],
					"stateMutability": "nonpayable",
					"type": "constructor"
				},
				{
					"inputs": [
						{
							"internalType": "address",
							"name": "",
							"type": "address"
						}
					],
					"name": "allowances",
					"outputs": [
						{
							"internalType": "uint256",
							"name": "",
							"type": "uint256"
						}
					],
					"stateMutability": "view",
					"type": "function"
				},
				{
					"inputs": [],
					"name": "approvalCount",
					"outputs": [
						{
							"internalType": "uint8",
							"name": "",
							"type": "uint8"
						}
					],
					"stateMutability": "view",
					"type": "function"
				},
				{
					"inputs": [
						{
							"internalType": "address",
							"name": "oldGuardian",
							"type": "address"
						},
						{
							"internalType": "address",
							"name": "newGuardian",
							"type": "address"
						}
					],
					"name": "changeGuardian",
					"outputs": [],
					"stateMutability": "nonpayable",
					"type": "function"
				},
				{
					"inputs": [],
					"name": "deposit",
					"outputs": [],
					"stateMutability": "payable",
					"type": "function"
				},
				{
					"inputs": [
						{
							"internalType": "address",
							"name": "newOwner",
							"type": "address"
						}
					],
					"name": "guardianApproveNewOwner",
					"outputs": [],
					"stateMutability": "nonpayable",
					"type": "function"
				},
				{
					"inputs": [
						{
							"internalType": "uint256",
							"name": "",
							"type": "uint256"
						}
					],
					"name": "guardians",
					"outputs": [
						{
							"internalType": "address",
							"name": "",
							"type": "address"
						}
					],
					"stateMutability": "view",
					"type": "function"
				},
				{
					"inputs": [],
					"name": "owner",
					"outputs": [
						{
							"internalType": "address",
							"name": "",
							"type": "address"
						}
					],
					"stateMutability": "view",
					"type": "function"
				},
				{
					"inputs": [
						{
							"internalType": "address",
							"name": "person",
							"type": "address"
						},
						{
							"internalType": "uint256",
							"name": "amount",
							"type": "uint256"
						}
					],
					"name": "setAllowance",
					"outputs": [],
					"stateMutability": "nonpayable",
					"type": "function"
				},
				{
					"inputs": [
						{
							"internalType": "address payable",
							"name": "recipient",
							"type": "address"
						},
						{
							"internalType": "uint256",
							"name": "amount",
							"type": "uint256"
						}
					],
					"name": "spend",
					"outputs": [],
					"stateMutability": "nonpayable",
					"type": "function"
				}
			],
			"devdoc": {
				"kind": "dev",
				"methods": {},
				"version": 1
			},
			"evm": {
				"assembly": "    /* \"krisha7MyWallet.sol\":60:2707  contract MyWallet {... */\n  mstore(0x40, 0x80)\n    /* \"krisha7MyWallet.sol\":399:772  constructor(... */\n  callvalue\n  dup1\n  iszero\n  tag_1\n  jumpi\n  0x00\n  dup1\n  revert\ntag_1:\n  pop\n  mload(0x40)\n  sub(codesize, bytecodeSize)\n  dup1\n  bytecodeSize\n  dup4\n  codecopy\n  dup2\n  dup2\n  add\n  0x40\n  mstore\n  dup2\n  add\n  swap1\n  tag_2\n  swap2\n  swap1\n  tag_3\n  jump\t// in\ntag_2:\n    /* \"krisha7MyWallet.sol\":587:593  _owner */\n  dup4\n    /* \"krisha7MyWallet.sol\":579:584  owner */\n  0x00\n  dup1\n    /* \"krisha7MyWallet.sol\":579:593  owner = _owner */\n  0x0100\n  exp\n  dup2\n  sload\n  dup2\n  0xffffffffffffffffffffffffffffffffffffffff\n  mul\n  not\n  and\n  swap1\n  dup4\n  0xffffffffffffffffffffffffffffffffffffffff\n  and\n  mul\n  or\n  swap1\n  sstore\n  pop\n    /* \"krisha7MyWallet.sol\":616:626  _guardians */\n  dup3\n    /* \"krisha7MyWallet.sol\":604:613  guardians */\n  0x02\n    /* \"krisha7MyWallet.sol\":604:626  guardians = _guardians */\n  swap1\n  0x05\n  tag_6\n  swap3\n  swap2\n  swap1\n  tag_7\n  jump\t// in\ntag_6:\n  pop\n    /* \"krisha7MyWallet.sol\":644:650  uint i */\n  0x00\n    /* \"krisha7MyWallet.sol\":639:765  for (uint i = 0; i < allowedPeople.length; i++) {... */\ntag_8:\n    /* \"krisha7MyWallet.sol\":660:673  allowedPeople */\n  dup3\n    /* \"krisha7MyWallet.sol\":660:680  allowedPeople.length */\n  mload\n    /* \"krisha7MyWallet.sol\":656:657  i */\n  dup2\n    /* \"krisha7MyWallet.sol\":656:680  i < allowedPeople.length */\n  lt\n    /* \"krisha7MyWallet.sol\":639:765  for (uint i = 0; i < allowedPeople.length; i++) {... */\n  iszero\n  tag_9\n  jumpi\n    /* \"krisha7MyWallet.sol\":733:750  initialAllowances */\n  dup2\n    /* \"krisha7MyWallet.sol\":751:752  i */\n  dup2\n    /* \"krisha7MyWallet.sol\":733:753  initialAllowances[i] */\n  dup2\n  mload\n  dup2\n  lt\n  tag_11\n  jumpi\n  tag_12\n  tag_13\n  jump\t// in\ntag_12:\ntag_11:\n  0x20\n  mul\n  0x20\n  add\n  add\n  mload\n    /* \"krisha7MyWallet.sol\":702:712  allowances */\n  0x01\n    /* \"krisha7MyWallet.sol\":702:730  allowances[allowedPeople[i]] */\n  0x00\n    /* \"krisha7MyWallet.sol\":713:726  allowedPeople */\n  dup6\n    /* \"krisha7MyWallet.sol\":727:728  i */\n  dup5\n    /* \"krisha7MyWallet.sol\":713:729  allowedPeople[i] */\n  dup2\n  mload\n  dup2\n  lt\n  tag_14\n  jumpi\n  tag_15\n  tag_13\n  jump\t// in\ntag_15:\ntag_14:\n  0x20\n  mul\n  0x20\n  add\n  add\n  mload\n    /* \"krisha7MyWallet.sol\":702:730  allowances[allowedPeople[i]] */\n  0xffffffffffffffffffffffffffffffffffffffff\n  and\n  0xffffffffffffffffffffffffffffffffffffffff\n  and\n  dup2\n  mstore\n  0x20\n  add\n  swap1\n  dup2\n  mstore\n  0x20\n  add\n  0x00\n  keccak256\n    /* \"krisha7MyWallet.sol\":702:753  allowances[allowedPeople[i]] = initialAllowances[i] */\n  dup2\n  swap1\n  sstore\n  pop\n    /* \"krisha7MyWallet.sol\":682:685  i++ */\n  dup1\n  dup1\n  tag_16\n  swap1\n  tag_17\n  jump\t// in\ntag_16:\n  swap2\n  pop\n  pop\n    /* \"krisha7MyWallet.sol\":639:765  for (uint i = 0; i < allowedPeople.length; i++) {... */\n  jump(tag_8)\ntag_9:\n  pop\n    /* \"krisha7MyWallet.sol\":399:772  constructor(... */\n  pop\n  pop\n  pop\n  pop\n    /* \"krisha7MyWallet.sol\":60:2707  contract MyWallet {... */\n  jump(tag_18)\ntag_7:\n  dup3\n  0x05\n  dup2\n  add\n  swap3\n  dup3\n  iszero\n  tag_19\n  jumpi\n  swap2\n  0x20\n  mul\n  dup3\n  add\ntag_20:\n  dup3\n  dup2\n  gt\n  iszero\n  tag_21\n  jumpi\n  dup3\n  mload\n  dup3\n  exp(0x0100, 0x00)\n  dup2\n  sload\n  dup2\n  0xffffffffffffffffffffffffffffffffffffffff\n  mul\n  not\n  and\n  swap1\n  dup4\n  0xffffffffffffffffffffffffffffffffffffffff\n  and\n  mul\n  or\n  swap1\n  sstore\n  pop\n  swap2\n  0x20\n  add\n  swap2\n  swap1\n  0x01\n  add\n  swap1\n  jump(tag_20)\ntag_21:\ntag_19:\n  pop\n  swap1\n  pop\n  tag_22\n  swap2\n  swap1\n  tag_23\n  jump\t// in\ntag_22:\n  pop\n  swap1\n  jump\t// out\ntag_23:\ntag_24:\n  dup1\n  dup3\n  gt\n  iszero\n  tag_25\n  jumpi\n  0x00\n  dup2\n  0x00\n  swap1\n  sstore\n  pop\n  0x01\n  add\n  jump(tag_24)\ntag_25:\n  pop\n  swap1\n  jump\t// out\n    /* \"#utility.yul\":7:82   */\ntag_26:\n    /* \"#utility.yul\":40:46   */\n  0x00\n    /* \"#utility.yul\":73:75   */\n  0x40\n    /* \"#utility.yul\":67:76   */\n  mload\n    /* \"#utility.yul\":57:76   */\n  swap1\n  pop\n    /* \"#utility.yul\":7:82   */\n  swap1\n  jump\t// out\n    /* \"#utility.yul\":88:205   */\ntag_27:\n    /* \"#utility.yul\":197:198   */\n  0x00\n    /* \"#utility.yul\":194:195   */\n  dup1\n    /* \"#utility.yul\":187:199   */\n  revert\n    /* \"#utility.yul\":211:328   */\ntag_28:\n    /* \"#utility.yul\":320:321   */\n  0x00\n    /* \"#utility.yul\":317:318   */\n  dup1\n    /* \"#utility.yul\":310:322   */\n  revert\n    /* \"#utility.yul\":334:460   */\ntag_29:\n    /* \"#utility.yul\":371:378   */\n  0x00\n    /* \"#utility.yul\":411:453   */\n  0xffffffffffffffffffffffffffffffffffffffff\n    /* \"#utility.yul\":404:409   */\n  dup3\n    /* \"#utility.yul\":400:454   */\n  and\n    /* \"#utility.yul\":389:454   */\n  swap1\n  pop\n    /* \"#utility.yul\":334:460   */\n  swap2\n  swap1\n  pop\n  jump\t// out\n    /* \"#utility.yul\":466:562   */\ntag_30:\n    /* \"#utility.yul\":503:510   */\n  0x00\n    /* \"#utility.yul\":532:556   */\n  tag_58\n    /* \"#utility.yul\":550:555   */\n  dup3\n    /* \"#utility.yul\":532:556   */\n  tag_29\n  jump\t// in\ntag_58:\n    /* \"#utility.yul\":521:556   */\n  swap1\n  pop\n    /* \"#utility.yul\":466:562   */\n  swap2\n  swap1\n  pop\n  jump\t// out\n    /* \"#utility.yul\":568:690   */\ntag_31:\n    /* \"#utility.yul\":641:665   */\n  tag_60\n    /* \"#utility.yul\":659:664   */\n  dup2\n    /* \"#utility.yul\":641:665   */\n  tag_30\n  jump\t// in\ntag_60:\n    /* \"#utility.yul\":634:639   */\n  dup2\n    /* \"#utility.yul\":631:666   */\n  eq\n    /* \"#utility.yul\":621:684   */\n  tag_61\n  jumpi\n    /* \"#utility.yul\":680:681   */\n  0x00\n    /* \"#utility.yul\":677:678   */\n  dup1\n    /* \"#utility.yul\":670:682   */\n  revert\n    /* \"#utility.yul\":621:684   */\ntag_61:\n    /* \"#utility.yul\":568:690   */\n  pop\n  jump\t// out\n    /* \"#utility.yul\":696:839   */\ntag_32:\n    /* \"#utility.yul\":753:758   */\n  0x00\n    /* \"#utility.yul\":784:790   */\n  dup2\n    /* \"#utility.yul\":778:791   */\n  mload\n    /* \"#utility.yul\":769:791   */\n  swap1\n  pop\n    /* \"#utility.yul\":800:833   */\n  tag_63\n    /* \"#utility.yul\":827:832   */\n  dup2\n    /* \"#utility.yul\":800:833   */\n  tag_31\n  jump\t// in\ntag_63:\n    /* \"#utility.yul\":696:839   */\n  swap3\n  swap2\n  pop\n  pop\n  jump\t// out\n    /* \"#utility.yul\":845:962   */\ntag_33:\n    /* \"#utility.yul\":954:955   */\n  0x00\n    /* \"#utility.yul\":951:952   */\n  dup1\n    /* \"#utility.yul\":944:956   */\n  revert\n    /* \"#utility.yul\":968:1070   */\ntag_34:\n    /* \"#utility.yul\":1009:1015   */\n  0x00\n    /* \"#utility.yul\":1060:1062   */\n  0x1f\n    /* \"#utility.yul\":1056:1063   */\n  not\n    /* \"#utility.yul\":1051:1053   */\n  0x1f\n    /* \"#utility.yul\":1044:1049   */\n  dup4\n    /* \"#utility.yul\":1040:1054   */\n  add\n    /* \"#utility.yul\":1036:1064   */\n  and\n    /* \"#utility.yul\":1026:1064   */\n  swap1\n  pop\n    /* \"#utility.yul\":968:1070   */\n  swap2\n  swap1\n  pop\n  jump\t// out\n    /* \"#utility.yul\":1076:1256   */\ntag_35:\n    /* \"#utility.yul\":1124:1201   */\n  0x4e487b7100000000000000000000000000000000000000000000000000000000\n    /* \"#utility.yul\":1121:1122   */\n  0x00\n    /* \"#utility.yul\":1114:1202   */\n  mstore\n    /* \"#utility.yul\":1221:1225   */\n  0x41\n    /* \"#utility.yul\":1218:1219   */\n  0x04\n    /* \"#utility.yul\":1211:1226   */\n  mstore\n    /* \"#utility.yul\":1245:1249   */\n  0x24\n    /* \"#utility.yul\":1242:1243   */\n  0x00\n    /* \"#utility.yul\":1235:1250   */\n  revert\n    /* \"#utility.yul\":1262:1543   */\ntag_36:\n    /* \"#utility.yul\":1345:1372   */\n  tag_68\n    /* \"#utility.yul\":1367:1371   */\n  dup3\n    /* \"#utility.yul\":1345:1372   */\n  tag_34\n  jump\t// in\ntag_68:\n    /* \"#utility.yul\":1337:1343   */\n  dup2\n    /* \"#utility.yul\":1333:1373   */\n  add\n    /* \"#utility.yul\":1475:1481   */\n  dup2\n    /* \"#utility.yul\":1463:1473   */\n  dup2\n    /* \"#utility.yul\":1460:1482   */\n  lt\n    /* \"#utility.yul\":1439:1457   */\n  0xffffffffffffffff\n    /* \"#utility.yul\":1427:1437   */\n  dup3\n    /* \"#utility.yul\":1424:1458   */\n  gt\n    /* \"#utility.yul\":1421:1483   */\n  or\n    /* \"#utility.yul\":1418:1506   */\n  iszero\n  tag_69\n  jumpi\n    /* \"#utility.yul\":1486:1504   */\n  tag_70\n  tag_35\n  jump\t// in\ntag_70:\n    /* \"#utility.yul\":1418:1506   */\ntag_69:\n    /* \"#utility.yul\":1526:1536   */\n  dup1\n    /* \"#utility.yul\":1522:1524   */\n  0x40\n    /* \"#utility.yul\":1515:1537   */\n  mstore\n    /* \"#utility.yul\":1305:1543   */\n  pop\n    /* \"#utility.yul\":1262:1543   */\n  pop\n  pop\n  jump\t// out\n    /* \"#utility.yul\":1549:1678   */\ntag_37:\n    /* \"#utility.yul\":1583:1589   */\n  0x00\n    /* \"#utility.yul\":1610:1630   */\n  tag_72\n  tag_26\n  jump\t// in\ntag_72:\n    /* \"#utility.yul\":1600:1630   */\n  swap1\n  pop\n    /* \"#utility.yul\":1639:1672   */\n  tag_73\n    /* \"#utility.yul\":1667:1671   */\n  dup3\n    /* \"#utility.yul\":1659:1665   */\n  dup3\n    /* \"#utility.yul\":1639:1672   */\n  tag_36\n  jump\t// in\ntag_73:\n    /* \"#utility.yul\":1549:1678   */\n  swap2\n  swap1\n  pop\n  jump\t// out\n    /* \"#utility.yul\":1684:1933   */\ntag_38:\n    /* \"#utility.yul\":1759:1763   */\n  0x00\n    /* \"#utility.yul\":1849:1867   */\n  0xffffffffffffffff\n    /* \"#utility.yul\":1841:1847   */\n  dup3\n    /* \"#utility.yul\":1838:1868   */\n  gt\n    /* \"#utility.yul\":1835:1891   */\n  iszero\n  tag_75\n  jumpi\n    /* \"#utility.yul\":1871:1889   */\n  tag_76\n  tag_35\n  jump\t// in\ntag_76:\n    /* \"#utility.yul\":1835:1891   */\ntag_75:\n    /* \"#utility.yul\":1921:1925   */\n  0x20\n    /* \"#utility.yul\":1913:1919   */\n  dup3\n    /* \"#utility.yul\":1909:1926   */\n  mul\n    /* \"#utility.yul\":1901:1926   */\n  swap1\n  pop\n    /* \"#utility.yul\":1684:1933   */\n  swap2\n  swap1\n  pop\n  jump\t// out\n    /* \"#utility.yul\":1939:2056   */\ntag_39:\n    /* \"#utility.yul\":2048:2049   */\n  0x00\n    /* \"#utility.yul\":2045:2046   */\n  dup1\n    /* \"#utility.yul\":2038:2050   */\n  revert\n    /* \"#utility.yul\":2080:2745   */\ntag_40:\n    /* \"#utility.yul\":2185:2190   */\n  0x00\n    /* \"#utility.yul\":2210:2289   */\n  tag_79\n    /* \"#utility.yul\":2226:2288   */\n  tag_80\n    /* \"#utility.yul\":2281:2287   */\n  dup5\n    /* \"#utility.yul\":2226:2288   */\n  tag_38\n  jump\t// in\ntag_80:\n    /* \"#utility.yul\":2210:2289   */\n  tag_37\n  jump\t// in\ntag_79:\n    /* \"#utility.yul\":2201:2289   */\n  swap1\n  pop\n    /* \"#utility.yul\":2309:2314   */\n  dup1\n    /* \"#utility.yul\":2362:2366   */\n  0x20\n    /* \"#utility.yul\":2354:2360   */\n  dup5\n    /* \"#utility.yul\":2350:2367   */\n  mul\n    /* \"#utility.yul\":2342:2348   */\n  dup4\n    /* \"#utility.yul\":2338:2368   */\n  add\n    /* \"#utility.yul\":2391:2394   */\n  dup6\n    /* \"#utility.yul\":2383:2389   */\n  dup2\n    /* \"#utility.yul\":2380:2395   */\n  gt\n    /* \"#utility.yul\":2377:2499   */\n  iszero\n  tag_81\n  jumpi\n    /* \"#utility.yul\":2410:2489   */\n  tag_82\n  tag_39\n  jump\t// in\ntag_82:\n    /* \"#utility.yul\":2377:2499   */\ntag_81:\n    /* \"#utility.yul\":2525:2531   */\n  dup4\n    /* \"#utility.yul\":2508:2739   */\ntag_83:\n    /* \"#utility.yul\":2542:2548   */\n  dup2\n    /* \"#utility.yul\":2537:2540   */\n  dup2\n    /* \"#utility.yul\":2534:2549   */\n  lt\n    /* \"#utility.yul\":2508:2739   */\n  iszero\n  tag_85\n  jumpi\n    /* \"#utility.yul\":2617:2620   */\n  dup1\n    /* \"#utility.yul\":2646:2694   */\n  tag_86\n    /* \"#utility.yul\":2690:2693   */\n  dup9\n    /* \"#utility.yul\":2678:2688   */\n  dup3\n    /* \"#utility.yul\":2646:2694   */\n  tag_32\n  jump\t// in\ntag_86:\n    /* \"#utility.yul\":2641:2644   */\n  dup5\n    /* \"#utility.yul\":2634:2695   */\n  mstore\n    /* \"#utility.yul\":2724:2728   */\n  0x20\n    /* \"#utility.yul\":2719:2722   */\n  dup5\n    /* \"#utility.yul\":2715:2729   */\n  add\n    /* \"#utility.yul\":2708:2729   */\n  swap4\n  pop\n    /* \"#utility.yul\":2584:2739   */\n  pop\n    /* \"#utility.yul\":2568:2572   */\n  0x20\n    /* \"#utility.yul\":2563:2566   */\n  dup2\n    /* \"#utility.yul\":2559:2573   */\n  add\n    /* \"#utility.yul\":2552:2573   */\n  swap1\n  pop\n    /* \"#utility.yul\":2508:2739   */\n  jump(tag_83)\ntag_85:\n    /* \"#utility.yul\":2512:2533   */\n  pop\n    /* \"#utility.yul\":2191:2745   */\n  pop\n  pop\n    /* \"#utility.yul\":2080:2745   */\n  swap4\n  swap3\n  pop\n  pop\n  pop\n  jump\t// out\n    /* \"#utility.yul\":2769:3130   */\ntag_41:\n    /* \"#utility.yul\":2849:2854   */\n  0x00\n    /* \"#utility.yul\":2898:2901   */\n  dup3\n    /* \"#utility.yul\":2891:2895   */\n  0x1f\n    /* \"#utility.yul\":2883:2889   */\n  dup4\n    /* \"#utility.yul\":2879:2896   */\n  add\n    /* \"#utility.yul\":2875:2902   */\n  slt\n    /* \"#utility.yul\":2865:2987   */\n  tag_88\n  jumpi\n    /* \"#utility.yul\":2906:2985   */\n  tag_89\n  tag_33\n  jump\t// in\ntag_89:\n    /* \"#utility.yul\":2865:2987   */\ntag_88:\n    /* \"#utility.yul\":3010:3014   */\n  0x05\n    /* \"#utility.yul\":3032:3124   */\n  tag_90\n    /* \"#utility.yul\":3120:3123   */\n  dup5\n    /* \"#utility.yul\":3112:3118   */\n  dup3\n    /* \"#utility.yul\":3104:3110   */\n  dup6\n    /* \"#utility.yul\":3032:3124   */\n  tag_40\n  jump\t// in\ntag_90:\n    /* \"#utility.yul\":3023:3124   */\n  swap2\n  pop\n    /* \"#utility.yul\":2855:3130   */\n  pop\n    /* \"#utility.yul\":2769:3130   */\n  swap3\n  swap2\n  pop\n  pop\n  jump\t// out\n    /* \"#utility.yul\":3136:3447   */\ntag_42:\n    /* \"#utility.yul\":3213:3217   */\n  0x00\n    /* \"#utility.yul\":3303:3321   */\n  0xffffffffffffffff\n    /* \"#utility.yul\":3295:3301   */\n  dup3\n    /* \"#utility.yul\":3292:3322   */\n  gt\n    /* \"#utility.yul\":3289:3345   */\n  iszero\n  tag_92\n  jumpi\n    /* \"#utility.yul\":3325:3343   */\n  tag_93\n  tag_35\n  jump\t// in\ntag_93:\n    /* \"#utility.yul\":3289:3345   */\ntag_92:\n    /* \"#utility.yul\":3375:3379   */\n  0x20\n    /* \"#utility.yul\":3367:3373   */\n  dup3\n    /* \"#utility.yul\":3363:3380   */\n  mul\n    /* \"#utility.yul\":3355:3380   */\n  swap1\n  pop\n    /* \"#utility.yul\":3435:3439   */\n  0x20\n    /* \"#utility.yul\":3429:3433   */\n  dup2\n    /* \"#utility.yul\":3425:3440   */\n  add\n    /* \"#utility.yul\":3417:3440   */\n  swap1\n  pop\n    /* \"#utility.yul\":3136:3447   */\n  swap2\n  swap1\n  pop\n  jump\t// out\n    /* \"#utility.yul\":3470:4202   */\ntag_43:\n    /* \"#utility.yul\":3577:3582   */\n  0x00\n    /* \"#utility.yul\":3602:3683   */\n  tag_95\n    /* \"#utility.yul\":3618:3682   */\n  tag_96\n    /* \"#utility.yul\":3675:3681   */\n  dup5\n    /* \"#utility.yul\":3618:3682   */\n  tag_42\n  jump\t// in\ntag_96:\n    /* \"#utility.yul\":3602:3683   */\n  tag_37\n  jump\t// in\ntag_95:\n    /* \"#utility.yul\":3593:3683   */\n  swap1\n  pop\n    /* \"#utility.yul\":3703:3708   */\n  dup1\n    /* \"#utility.yul\":3732:3738   */\n  dup4\n    /* \"#utility.yul\":3725:3730   */\n  dup3\n    /* \"#utility.yul\":3718:3739   */\n  mstore\n    /* \"#utility.yul\":3766:3770   */\n  0x20\n    /* \"#utility.yul\":3759:3764   */\n  dup3\n    /* \"#utility.yul\":3755:3771   */\n  add\n    /* \"#utility.yul\":3748:3771   */\n  swap1\n  pop\n    /* \"#utility.yul\":3819:3823   */\n  0x20\n    /* \"#utility.yul\":3811:3817   */\n  dup5\n    /* \"#utility.yul\":3807:3824   */\n  mul\n    /* \"#utility.yul\":3799:3805   */\n  dup4\n    /* \"#utility.yul\":3795:3825   */\n  add\n    /* \"#utility.yul\":3848:3851   */\n  dup6\n    /* \"#utility.yul\":3840:3846   */\n  dup2\n    /* \"#utility.yul\":3837:3852   */\n  gt\n    /* \"#utility.yul\":3834:3956   */\n  iszero\n  tag_97\n  jumpi\n    /* \"#utility.yul\":3867:3946   */\n  tag_98\n  tag_39\n  jump\t// in\ntag_98:\n    /* \"#utility.yul\":3834:3956   */\ntag_97:\n    /* \"#utility.yul\":3982:3988   */\n  dup4\n    /* \"#utility.yul\":3965:4196   */\ntag_99:\n    /* \"#utility.yul\":3999:4005   */\n  dup2\n    /* \"#utility.yul\":3994:3997   */\n  dup2\n    /* \"#utility.yul\":3991:4006   */\n  lt\n    /* \"#utility.yul\":3965:4196   */\n  iszero\n  tag_101\n  jumpi\n    /* \"#utility.yul\":4074:4077   */\n  dup1\n    /* \"#utility.yul\":4103:4151   */\n  tag_102\n    /* \"#utility.yul\":4147:4150   */\n  dup9\n    /* \"#utility.yul\":4135:4145   */\n  dup3\n    /* \"#utility.yul\":4103:4151   */\n  tag_32\n  jump\t// in\ntag_102:\n    /* \"#utility.yul\":4098:4101   */\n  dup5\n    /* \"#utility.yul\":4091:4152   */\n  mstore\n    /* \"#utility.yul\":4181:4185   */\n  0x20\n    /* \"#utility.yul\":4176:4179   */\n  dup5\n    /* \"#utility.yul\":4172:4186   */\n  add\n    /* \"#utility.yul\":4165:4186   */\n  swap4\n  pop\n    /* \"#utility.yul\":4041:4196   */\n  pop\n    /* \"#utility.yul\":4025:4029   */\n  0x20\n    /* \"#utility.yul\":4020:4023   */\n  dup2\n    /* \"#utility.yul\":4016:4030   */\n  add\n    /* \"#utility.yul\":4009:4030   */\n  swap1\n  pop\n    /* \"#utility.yul\":3965:4196   */\n  jump(tag_99)\ntag_101:\n    /* \"#utility.yul\":3969:3990   */\n  pop\n    /* \"#utility.yul\":3583:4202   */\n  pop\n  pop\n    /* \"#utility.yul\":3470:4202   */\n  swap4\n  swap3\n  pop\n  pop\n  pop\n  jump\t// out\n    /* \"#utility.yul\":4225:4610   */\ntag_44:\n    /* \"#utility.yul\":4307:4312   */\n  0x00\n    /* \"#utility.yul\":4356:4359   */\n  dup3\n    /* \"#utility.yul\":4349:4353   */\n  0x1f\n    /* \"#utility.yul\":4341:4347   */\n  dup4\n    /* \"#utility.yul\":4337:4354   */\n  add\n    /* \"#utility.yul\":4333:4360   */\n  slt\n    /* \"#utility.yul\":4323:4445   */\n  tag_104\n  jumpi\n    /* \"#utility.yul\":4364:4443   */\n  tag_105\n  tag_33\n  jump\t// in\ntag_105:\n    /* \"#utility.yul\":4323:4445   */\ntag_104:\n    /* \"#utility.yul\":4474:4480   */\n  dup2\n    /* \"#utility.yul\":4468:4481   */\n  mload\n    /* \"#utility.yul\":4499:4604   */\n  tag_106\n    /* \"#utility.yul\":4600:4603   */\n  dup5\n    /* \"#utility.yul\":4592:4598   */\n  dup3\n    /* \"#utility.yul\":4585:4589   */\n  0x20\n    /* \"#utility.yul\":4577:4583   */\n  dup7\n    /* \"#utility.yul\":4573:4590   */\n  add\n    /* \"#utility.yul\":4499:4604   */\n  tag_43\n  jump\t// in\ntag_106:\n    /* \"#utility.yul\":4490:4604   */\n  swap2\n  pop\n    /* \"#utility.yul\":4313:4610   */\n  pop\n    /* \"#utility.yul\":4225:4610   */\n  swap3\n  swap2\n  pop\n  pop\n  jump\t// out\n    /* \"#utility.yul\":4616:4927   */\ntag_45:\n    /* \"#utility.yul\":4693:4697   */\n  0x00\n    /* \"#utility.yul\":4783:4801   */\n  0xffffffffffffffff\n    /* \"#utility.yul\":4775:4781   */\n  dup3\n    /* \"#utility.yul\":4772:4802   */\n  gt\n    /* \"#utility.yul\":4769:4825   */\n  iszero\n  tag_108\n  jumpi\n    /* \"#utility.yul\":4805:4823   */\n  tag_109\n  tag_35\n  jump\t// in\ntag_109:\n    /* \"#utility.yul\":4769:4825   */\ntag_108:\n    /* \"#utility.yul\":4855:4859   */\n  0x20\n    /* \"#utility.yul\":4847:4853   */\n  dup3\n    /* \"#utility.yul\":4843:4860   */\n  mul\n    /* \"#utility.yul\":4835:4860   */\n  swap1\n  pop\n    /* \"#utility.yul\":4915:4919   */\n  0x20\n    /* \"#utility.yul\":4909:4913   */\n  dup2\n    /* \"#utility.yul\":4905:4920   */\n  add\n    /* \"#utility.yul\":4897:4920   */\n  swap1\n  pop\n    /* \"#utility.yul\":4616:4927   */\n  swap2\n  swap1\n  pop\n  jump\t// out\n    /* \"#utility.yul\":4933:5010   */\ntag_46:\n    /* \"#utility.yul\":4970:4977   */\n  0x00\n    /* \"#utility.yul\":4999:5004   */\n  dup2\n    /* \"#utility.yul\":4988:5004   */\n  swap1\n  pop\n    /* \"#utility.yul\":4933:5010   */\n  swap2\n  swap1\n  pop\n  jump\t// out\n    /* \"#utility.yul\":5016:5138   */\ntag_47:\n    /* \"#utility.yul\":5089:5113   */\n  tag_112\n    /* \"#utility.yul\":5107:5112   */\n  dup2\n    /* \"#utility.yul\":5089:5113   */\n  tag_46\n  jump\t// in\ntag_112:\n    /* \"#utility.yul\":5082:5087   */\n  dup2\n    /* \"#utility.yul\":5079:5114   */\n  eq\n    /* \"#utility.yul\":5069:5132   */\n  tag_113\n  jumpi\n    /* \"#utility.yul\":5128:5129   */\n  0x00\n    /* \"#utility.yul\":5125:5126   */\n  dup1\n    /* \"#utility.yul\":5118:5130   */\n  revert\n    /* \"#utility.yul\":5069:5132   */\ntag_113:\n    /* \"#utility.yul\":5016:5138   */\n  pop\n  jump\t// out\n    /* \"#utility.yul\":5144:5287   */\ntag_48:\n    /* \"#utility.yul\":5201:5206   */\n  0x00\n    /* \"#utility.yul\":5232:5238   */\n  dup2\n    /* \"#utility.yul\":5226:5239   */\n  mload\n    /* \"#utility.yul\":5217:5239   */\n  swap1\n  pop\n    /* \"#utility.yul\":5248:5281   */\n  tag_115\n    /* \"#utility.yul\":5275:5280   */\n  dup2\n    /* \"#utility.yul\":5248:5281   */\n  tag_47\n  jump\t// in\ntag_115:\n    /* \"#utility.yul\":5144:5287   */\n  swap3\n  swap2\n  pop\n  pop\n  jump\t// out\n    /* \"#utility.yul\":5310:6042   */\ntag_49:\n    /* \"#utility.yul\":5417:5422   */\n  0x00\n    /* \"#utility.yul\":5442:5523   */\n  tag_117\n    /* \"#utility.yul\":5458:5522   */\n  tag_118\n    /* \"#utility.yul\":5515:5521   */\n  dup5\n    /* \"#utility.yul\":5458:5522   */\n  tag_45\n  jump\t// in\ntag_118:\n    /* \"#utility.yul\":5442:5523   */\n  tag_37\n  jump\t// in\ntag_117:\n    /* \"#utility.yul\":5433:5523   */\n  swap1\n  pop\n    /* \"#utility.yul\":5543:5548   */\n  dup1\n    /* \"#utility.yul\":5572:5578   */\n  dup4\n    /* \"#utility.yul\":5565:5570   */\n  dup3\n    /* \"#utility.yul\":5558:5579   */\n  mstore\n    /* \"#utility.yul\":5606:5610   */\n  0x20\n    /* \"#utility.yul\":5599:5604   */\n  dup3\n    /* \"#utility.yul\":5595:5611   */\n  add\n    /* \"#utility.yul\":5588:5611   */\n  swap1\n  pop\n    /* \"#utility.yul\":5659:5663   */\n  0x20\n    /* \"#utility.yul\":5651:5657   */\n  dup5\n    /* \"#utility.yul\":5647:5664   */\n  mul\n    /* \"#utility.yul\":5639:5645   */\n  dup4\n    /* \"#utility.yul\":5635:5665   */\n  add\n    /* \"#utility.yul\":5688:5691   */\n  dup6\n    /* \"#utility.yul\":5680:5686   */\n  dup2\n    /* \"#utility.yul\":5677:5692   */\n  gt\n    /* \"#utility.yul\":5674:5796   */\n  iszero\n  tag_119\n  jumpi\n    /* \"#utility.yul\":5707:5786   */\n  tag_120\n  tag_39\n  jump\t// in\ntag_120:\n    /* \"#utility.yul\":5674:5796   */\ntag_119:\n    /* \"#utility.yul\":5822:5828   */\n  dup4\n    /* \"#utility.yul\":5805:6036   */\ntag_121:\n    /* \"#utility.yul\":5839:5845   */\n  dup2\n    /* \"#utility.yul\":5834:5837   */\n  dup2\n    /* \"#utility.yul\":5831:5846   */\n  lt\n    /* \"#utility.yul\":5805:6036   */\n  iszero\n  tag_123\n  jumpi\n    /* \"#utility.yul\":5914:5917   */\n  dup1\n    /* \"#utility.yul\":5943:5991   */\n  tag_124\n    /* \"#utility.yul\":5987:5990   */\n  dup9\n    /* \"#utility.yul\":5975:5985   */\n  dup3\n    /* \"#utility.yul\":5943:5991   */\n  tag_48\n  jump\t// in\ntag_124:\n    /* \"#utility.yul\":5938:5941   */\n  dup5\n    /* \"#utility.yul\":5931:5992   */\n  mstore\n    /* \"#utility.yul\":6021:6025   */\n  0x20\n    /* \"#utility.yul\":6016:6019   */\n  dup5\n    /* \"#utility.yul\":6012:6026   */\n  add\n    /* \"#utility.yul\":6005:6026   */\n  swap4\n  pop\n    /* \"#utility.yul\":5881:6036   */\n  pop\n    /* \"#utility.yul\":5865:5869   */\n  0x20\n    /* \"#utility.yul\":5860:5863   */\n  dup2\n    /* \"#utility.yul\":5856:5870   */\n  add\n    /* \"#utility.yul\":5849:5870   */\n  swap1\n  pop\n    /* \"#utility.yul\":5805:6036   */\n  jump(tag_121)\ntag_123:\n    /* \"#utility.yul\":5809:5830   */\n  pop\n    /* \"#utility.yul\":5423:6042   */\n  pop\n  pop\n    /* \"#utility.yul\":5310:6042   */\n  swap4\n  swap3\n  pop\n  pop\n  pop\n  jump\t// out\n    /* \"#utility.yul\":6065:6450   */\ntag_50:\n    /* \"#utility.yul\":6147:6152   */\n  0x00\n    /* \"#utility.yul\":6196:6199   */\n  dup3\n    /* \"#utility.yul\":6189:6193   */\n  0x1f\n    /* \"#utility.yul\":6181:6187   */\n  dup4\n    /* \"#utility.yul\":6177:6194   */\n  add\n    /* \"#utility.yul\":6173:6200   */\n  slt\n    /* \"#utility.yul\":6163:6285   */\n  tag_126\n  jumpi\n    /* \"#utility.yul\":6204:6283   */\n  tag_127\n  tag_33\n  jump\t// in\ntag_127:\n    /* \"#utility.yul\":6163:6285   */\ntag_126:\n    /* \"#utility.yul\":6314:6320   */\n  dup2\n    /* \"#utility.yul\":6308:6321   */\n  mload\n    /* \"#utility.yul\":6339:6444   */\n  tag_128\n    /* \"#utility.yul\":6440:6443   */\n  dup5\n    /* \"#utility.yul\":6432:6438   */\n  dup3\n    /* \"#utility.yul\":6425:6429   */\n  0x20\n    /* \"#utility.yul\":6417:6423   */\n  dup7\n    /* \"#utility.yul\":6413:6430   */\n  add\n    /* \"#utility.yul\":6339:6444   */\n  tag_49\n  jump\t// in\ntag_128:\n    /* \"#utility.yul\":6330:6444   */\n  swap2\n  pop\n    /* \"#utility.yul\":6153:6450   */\n  pop\n    /* \"#utility.yul\":6065:6450   */\n  swap3\n  swap2\n  pop\n  pop\n  jump\t// out\n    /* \"#utility.yul\":6456:7730   */\ntag_3:\n    /* \"#utility.yul\":6626:6632   */\n  0x00\n    /* \"#utility.yul\":6634:6640   */\n  dup1\n    /* \"#utility.yul\":6642:6648   */\n  0x00\n    /* \"#utility.yul\":6650:6656   */\n  dup1\n    /* \"#utility.yul\":6699:6702   */\n  0x0100\n    /* \"#utility.yul\":6687:6696   */\n  dup6\n    /* \"#utility.yul\":6678:6685   */\n  dup8\n    /* \"#utility.yul\":6674:6697   */\n  sub\n    /* \"#utility.yul\":6670:6703   */\n  slt\n    /* \"#utility.yul\":6667:6787   */\n  iszero\n  tag_130\n  jumpi\n    /* \"#utility.yul\":6706:6785   */\n  tag_131\n  tag_27\n  jump\t// in\ntag_131:\n    /* \"#utility.yul\":6667:6787   */\ntag_130:\n    /* \"#utility.yul\":6826:6827   */\n  0x00\n    /* \"#utility.yul\":6851:6915   */\n  tag_132\n    /* \"#utility.yul\":6907:6914   */\n  dup8\n    /* \"#utility.yul\":6898:6904   */\n  dup3\n    /* \"#utility.yul\":6887:6896   */\n  dup9\n    /* \"#utility.yul\":6883:6905   */\n  add\n    /* \"#utility.yul\":6851:6915   */\n  tag_32\n  jump\t// in\ntag_132:\n    /* \"#utility.yul\":6841:6915   */\n  swap5\n  pop\n    /* \"#utility.yul\":6797:6925   */\n  pop\n    /* \"#utility.yul\":6964:6966   */\n  0x20\n    /* \"#utility.yul\":6990:7077   */\n  tag_133\n    /* \"#utility.yul\":7069:7076   */\n  dup8\n    /* \"#utility.yul\":7060:7066   */\n  dup3\n    /* \"#utility.yul\":7049:7058   */\n  dup9\n    /* \"#utility.yul\":7045:7067   */\n  add\n    /* \"#utility.yul\":6990:7077   */\n  tag_41\n  jump\t// in\ntag_133:\n    /* \"#utility.yul\":6980:7077   */\n  swap4\n  pop\n    /* \"#utility.yul\":6935:7087   */\n  pop\n    /* \"#utility.yul\":7147:7150   */\n  0xc0\n    /* \"#utility.yul\":7136:7145   */\n  dup6\n    /* \"#utility.yul\":7132:7151   */\n  add\n    /* \"#utility.yul\":7126:7152   */\n  mload\n    /* \"#utility.yul\":7179:7197   */\n  0xffffffffffffffff\n    /* \"#utility.yul\":7171:7177   */\n  dup2\n    /* \"#utility.yul\":7168:7198   */\n  gt\n    /* \"#utility.yul\":7165:7282   */\n  iszero\n  tag_134\n  jumpi\n    /* \"#utility.yul\":7201:7280   */\n  tag_135\n  tag_28\n  jump\t// in\ntag_135:\n    /* \"#utility.yul\":7165:7282   */\ntag_134:\n    /* \"#utility.yul\":7306:7395   */\n  tag_136\n    /* \"#utility.yul\":7387:7394   */\n  dup8\n    /* \"#utility.yul\":7378:7384   */\n  dup3\n    /* \"#utility.yul\":7367:7376   */\n  dup9\n    /* \"#utility.yul\":7363:7385   */\n  add\n    /* \"#utility.yul\":7306:7395   */\n  tag_44\n  jump\t// in\ntag_136:\n    /* \"#utility.yul\":7296:7395   */\n  swap3\n  pop\n    /* \"#utility.yul\":7097:7405   */\n  pop\n    /* \"#utility.yul\":7465:7468   */\n  0xe0\n    /* \"#utility.yul\":7454:7463   */\n  dup6\n    /* \"#utility.yul\":7450:7469   */\n  add\n    /* \"#utility.yul\":7444:7470   */\n  mload\n    /* \"#utility.yul\":7497:7515   */\n  0xffffffffffffffff\n    /* \"#utility.yul\":7489:7495   */\n  dup2\n    /* \"#utility.yul\":7486:7516   */\n  gt\n    /* \"#utility.yul\":7483:7600   */\n  iszero\n  tag_137\n  jumpi\n    /* \"#utility.yul\":7519:7598   */\n  tag_138\n  tag_28\n  jump\t// in\ntag_138:\n    /* \"#utility.yul\":7483:7600   */\ntag_137:\n    /* \"#utility.yul\":7624:7713   */\n  tag_139\n    /* \"#utility.yul\":7705:7712   */\n  dup8\n    /* \"#utility.yul\":7696:7702   */\n  dup3\n    /* \"#utility.yul\":7685:7694   */\n  dup9\n    /* \"#utility.yul\":7681:7703   */\n  add\n    /* \"#utility.yul\":7624:7713   */\n  tag_50\n  jump\t// in\ntag_139:\n    /* \"#utility.yul\":7614:7713   */\n  swap2\n  pop\n    /* \"#utility.yul\":7415:7723   */\n  pop\n    /* \"#utility.yul\":6456:7730   */\n  swap3\n  swap6\n  swap2\n  swap5\n  pop\n  swap3\n  pop\n  jump\t// out\n    /* \"#utility.yul\":7736:7916   */\ntag_13:\n    /* \"#utility.yul\":7784:7861   */\n  0x4e487b7100000000000000000000000000000000000000000000000000000000\n    /* \"#utility.yul\":7781:7782   */\n  0x00\n    /* \"#utility.yul\":7774:7862   */\n  mstore\n    /* \"#utility.yul\":7881:7885   */\n  0x32\n    /* \"#utility.yul\":7878:7879   */\n  0x04\n    /* \"#utility.yul\":7871:7886   */\n  mstore\n    /* \"#utility.yul\":7905:7909   */\n  0x24\n    /* \"#utility.yul\":7902:7903   */\n  0x00\n    /* \"#utility.yul\":7895:7910   */\n  revert\n    /* \"#utility.yul\":7922:8102   */\ntag_51:\n    /* \"#utility.yul\":7970:8047   */\n  0x4e487b7100000000000000000000000000000000000000000000000000000000\n    /* \"#utility.yul\":7967:7968   */\n  0x00\n    /* \"#utility.yul\":7960:8048   */\n  mstore\n    /* \"#utility.yul\":8067:8071   */\n  0x11\n    /* \"#utility.yul\":8064:8065   */\n  0x04\n    /* \"#utility.yul\":8057:8072   */\n  mstore\n    /* \"#utility.yul\":8091:8095   */\n  0x24\n    /* \"#utility.yul\":8088:8089   */\n  0x00\n    /* \"#utility.yul\":8081:8096   */\n  revert\n    /* \"#utility.yul\":8108:8341   */\ntag_17:\n    /* \"#utility.yul\":8147:8150   */\n  0x00\n    /* \"#utility.yul\":8170:8194   */\n  tag_143\n    /* \"#utility.yul\":8188:8193   */\n  dup3\n    /* \"#utility.yul\":8170:8194   */\n  tag_46\n  jump\t// in\ntag_143:\n    /* \"#utility.yul\":8161:8194   */\n  swap2\n  pop\n    /* \"#utility.yul\":8216:8282   */\n  0xffffffffffffffffffffffffffffffffffffffffffffffffffffffffffffffff\n    /* \"#utility.yul\":8209:8214   */\n  dup3\n    /* \"#utility.yul\":8206:8283   */\n  sub\n    /* \"#utility.yul\":8203:8306   */\n  tag_144\n  jumpi\n    /* \"#utility.yul\":8286:8304   */\n  tag_145\n  tag_51\n  jump\t// in\ntag_145:\n    /* \"#utility.yul\":8203:8306   */\ntag_144:\n    /* \"#utility.yul\":8333:8334   */\n  0x01\n    /* \"#utility.yul\":8326:8331   */\n  dup3\n    /* \"#utility.yul\":8322:8335   */\n  add\n    /* \"#utility.yul\":8315:8335   */\n  swap1\n  pop\n    /* \"#utility.yul\":8108:8341   */\n  swap2\n  swap1\n  pop\n  jump\t// out\n    /* \"krisha7MyWallet.sol\":60:2707  contract MyWallet {... */\ntag_18:\n  dataSize(sub_0)\n  dup1\n  dataOffset(sub_0)\n  0x00\n  codecopy\n  0x00\n  return\nstop\n\nsub_0: assembly {\n        /* \"krisha7MyWallet.sol\":60:2707  contract MyWallet {... */\n      mstore(0x40, 0x80)\n      jumpi(tag_1, lt(calldatasize, 0x04))\n      shr(0xe0, calldataload(0x00))\n      dup1\n      0x8da5cb5b\n      gt\n      tag_11\n      jumpi\n      dup1\n      0x8da5cb5b\n      eq\n      tag_6\n      jumpi\n      dup1\n      0xaf7d6ca3\n      eq\n      tag_7\n      jumpi\n      dup1\n      0xc1400d3f\n      eq\n      tag_8\n      jumpi\n      dup1\n      0xd0e30db0\n      eq\n      tag_9\n      jumpi\n      dup1\n      0xf560c734\n      eq\n      tag_10\n      jumpi\n      jump(tag_1)\n    tag_11:\n      dup1\n      0x2b603c71\n      eq\n      tag_2\n      jumpi\n      dup1\n      0x310ec4a7\n      eq\n      tag_3\n      jumpi\n      dup1\n      0x6884d0a6\n      eq\n      tag_4\n      jumpi\n      dup1\n      0x83b40cc9\n      eq\n      tag_5\n      jumpi\n    tag_1:\n      0x00\n      dup1\n      revert\n        /* \"krisha7MyWallet.sol\":112:157  mapping(address => uint256) public allowances */\n    tag_2:\n      callvalue\n      dup1\n      iszero\n      tag_12\n      jumpi\n      0x00\n      dup1\n      revert\n    tag_12:\n      pop\n      tag_13\n      0x04\n      dup1\n      calldatasize\n      sub\n      dup2\n      add\n      swap1\n      tag_14\n      swap2\n      swap1\n      tag_15\n      jump\t// in\n    tag_14:\n      tag_16\n      jump\t// in\n    tag_13:\n      mload(0x40)\n      tag_17\n      swap2\n      swap1\n      tag_18\n      jump\t// in\n    tag_17:\n      mload(0x40)\n      dup1\n      swap2\n      sub\n      swap1\n      return\n        /* \"krisha7MyWallet.sol\":2229:2496  function setAllowance(address person, uint256 amount) public onlyOwner {... */\n    tag_3:\n      callvalue\n      dup1\n      iszero\n      tag_19\n      jumpi\n      0x00\n      dup1\n      revert\n    tag_19:\n      pop\n      tag_20\n      0x04\n      dup1\n      calldatasize\n      sub\n      dup2\n      add\n      swap1\n      tag_21\n      swap2\n      swap1\n      tag_22\n      jump\t// in\n    tag_21:\n      tag_23\n      jump\t// in\n    tag_20:\n      stop\n        /* \"krisha7MyWallet.sol\":247:273  uint8 public approvalCount */\n    tag_4:\n      callvalue\n      dup1\n      iszero\n      tag_24\n      jumpi\n      0x00\n      dup1\n      revert\n    tag_24:\n      pop\n      tag_25\n      tag_26\n      jump\t// in\n    tag_25:\n      mload(0x40)\n      tag_27\n      swap2\n      swap1\n      tag_28\n      jump\t// in\n    tag_27:\n      mload(0x40)\n      dup1\n      swap2\n      sub\n      swap1\n      return\n        /* \"krisha7MyWallet.sol\":1255:1585  function changeGuardian(address oldGuardian, address newGuardian) public onlyOwner {... */\n    tag_5:\n      callvalue\n      dup1\n      iszero\n      tag_29\n      jumpi\n      0x00\n      dup1\n      revert\n    tag_29:\n      pop\n      tag_30\n      0x04\n      dup1\n      calldatasize\n      sub\n      dup2\n      add\n      swap1\n      tag_31\n      swap2\n      swap1\n      tag_32\n      jump\t// in\n    tag_31:\n      tag_33\n      jump\t// in\n    tag_30:\n      stop\n        /* \"krisha7MyWallet.sol\":85:105  address public owner */\n    tag_6:\n      callvalue\n      dup1\n      iszero\n      tag_34\n      jumpi\n      0x00\n      dup1\n      revert\n    tag_34:\n      pop\n      tag_35\n      tag_36\n      jump\t// in\n    tag_35:\n      mload(0x40)\n      tag_37\n      swap2\n      swap1\n      tag_38\n      jump\t// in\n    tag_37:\n      mload(0x40)\n      dup1\n      swap2\n      sub\n      swap1\n      return\n        /* \"krisha7MyWallet.sol\":824:1247  function spend(address payable recipient, uint256 amount) public onlyOwner {... */\n    tag_7:\n      callvalue\n      dup1\n      iszero\n      tag_39\n      jumpi\n      0x00\n      dup1\n      revert\n    tag_39:\n      pop\n      tag_40\n      0x04\n      dup1\n      calldatasize\n      sub\n      dup2\n      add\n      swap1\n      tag_41\n      swap2\n      swap1\n      tag_42\n      jump\t// in\n    tag_41:\n      tag_43\n      jump\t// in\n    tag_40:\n      stop\n        /* \"krisha7MyWallet.sol\":1593:2221  function guardianApproveNewOwner(address newOwner) public {... */\n    tag_8:\n      callvalue\n      dup1\n      iszero\n      tag_44\n      jumpi\n      0x00\n      dup1\n      revert\n    tag_44:\n      pop\n      tag_45\n      0x04\n      dup1\n      calldatasize\n      sub\n      dup2\n      add\n      swap1\n      tag_46\n      swap2\n      swap1\n      tag_15\n      jump\t// in\n    tag_46:\n      tag_47\n      jump\t// in\n    tag_45:\n      stop\n        /* \"krisha7MyWallet.sol\":780:816  function deposit() public payable {} */\n    tag_9:\n      tag_48\n      tag_49\n      jump\t// in\n    tag_48:\n      stop\n        /* \"krisha7MyWallet.sol\":164:191  address[5] public guardians */\n    tag_10:\n      callvalue\n      dup1\n      iszero\n      tag_50\n      jumpi\n      0x00\n      dup1\n      revert\n    tag_50:\n      pop\n      tag_51\n      0x04\n      dup1\n      calldatasize\n      sub\n      dup2\n      add\n      swap1\n      tag_52\n      swap2\n      swap1\n      tag_53\n      jump\t// in\n    tag_52:\n      tag_54\n      jump\t// in\n    tag_51:\n      mload(0x40)\n      tag_55\n      swap2\n      swap1\n      tag_38\n      jump\t// in\n    tag_55:\n      mload(0x40)\n      dup1\n      swap2\n      sub\n      swap1\n      return\n        /* \"krisha7MyWallet.sol\":112:157  mapping(address => uint256) public allowances */\n    tag_16:\n      mstore(0x20, 0x01)\n      dup1\n      0x00\n      mstore\n      keccak256(0x00, 0x40)\n      0x00\n      swap2\n      pop\n      swap1\n      pop\n      sload\n      dup2\n      jump\t// out\n        /* \"krisha7MyWallet.sol\":2229:2496  function setAllowance(address person, uint256 amount) public onlyOwner {... */\n    tag_23:\n        /* \"krisha7MyWallet.sol\":336:341  owner */\n      0x00\n      dup1\n      sload\n      swap1\n      0x0100\n      exp\n      swap1\n      div\n      0xffffffffffffffffffffffffffffffffffffffff\n      and\n        /* \"krisha7MyWallet.sol\":322:341  msg.sender == owner */\n      0xffffffffffffffffffffffffffffffffffffffff\n      and\n        /* \"krisha7MyWallet.sol\":322:332  msg.sender */\n      caller\n        /* \"krisha7MyWallet.sol\":322:341  msg.sender == owner */\n      0xffffffffffffffffffffffffffffffffffffffff\n      and\n      eq\n        /* \"krisha7MyWallet.sol\":314:371  require(msg.sender == owner, \"Only owner can call this.\") */\n      tag_57\n      jumpi\n      mload(0x40)\n      0x08c379a000000000000000000000000000000000000000000000000000000000\n      dup2\n      mstore\n      0x04\n      add\n      tag_58\n      swap1\n      tag_59\n      jump\t// in\n    tag_58:\n      mload(0x40)\n      dup1\n      swap2\n      sub\n      swap1\n      revert\n    tag_57:\n        /* \"krisha7MyWallet.sol\":2316:2323  uint8 i */\n      0x00\n        /* \"krisha7MyWallet.sol\":2311:2451  for (uint8 i = 0; i < guardians.length; i++) {... */\n    tag_61:\n        /* \"krisha7MyWallet.sol\":2333:2349  guardians.length */\n      0x05\n        /* \"krisha7MyWallet.sol\":2329:2330  i */\n      dup2\n        /* \"krisha7MyWallet.sol\":2329:2349  i < guardians.length */\n      0xff\n      and\n      lt\n        /* \"krisha7MyWallet.sol\":2311:2451  for (uint8 i = 0; i < guardians.length; i++) {... */\n      iszero\n      tag_62\n      jumpi\n        /* \"krisha7MyWallet.sol\":2389:2398  guardians */\n      0x02\n        /* \"krisha7MyWallet.sol\":2399:2400  i */\n      dup2\n        /* \"krisha7MyWallet.sol\":2389:2401  guardians[i] */\n      0xff\n      and\n      0x05\n      dup2\n      lt\n      tag_64\n      jumpi\n      tag_65\n      tag_66\n      jump\t// in\n    tag_65:\n    tag_64:\n      add\n      0x00\n      swap1\n      sload\n      swap1\n      0x0100\n      exp\n      swap1\n      div\n      0xffffffffffffffffffffffffffffffffffffffff\n      and\n        /* \"krisha7MyWallet.sol\":2379:2401  person != guardians[i] */\n      0xffffffffffffffffffffffffffffffffffffffff\n      and\n        /* \"krisha7MyWallet.sol\":2379:2385  person */\n      dup4\n        /* \"krisha7MyWallet.sol\":2379:2401  person != guardians[i] */\n      0xffffffffffffffffffffffffffffffffffffffff\n      and\n      sub\n        /* \"krisha7MyWallet.sol\":2371:2439  require(person != guardians[i], \"Guardian cannot receive allowance\") */\n      tag_68\n      jumpi\n      mload(0x40)\n      0x08c379a000000000000000000000000000000000000000000000000000000000\n      dup2\n      mstore\n      0x04\n      add\n      tag_69\n      swap1\n      tag_70\n      jump\t// in\n    tag_69:\n      mload(0x40)\n      dup1\n      swap2\n      sub\n      swap1\n      revert\n    tag_68:\n        /* \"krisha7MyWallet.sol\":2351:2354  i++ */\n      dup1\n      dup1\n      tag_71\n      swap1\n      tag_72\n      jump\t// in\n    tag_71:\n      swap2\n      pop\n      pop\n        /* \"krisha7MyWallet.sol\":2311:2451  for (uint8 i = 0; i < guardians.length; i++) {... */\n      jump(tag_61)\n    tag_62:\n      pop\n        /* \"krisha7MyWallet.sol\":2482:2488  amount */\n      dup1\n        /* \"krisha7MyWallet.sol\":2461:2471  allowances */\n      0x01\n        /* \"krisha7MyWallet.sol\":2461:2479  allowances[person] */\n      0x00\n        /* \"krisha7MyWallet.sol\":2472:2478  person */\n      dup5\n        /* \"krisha7MyWallet.sol\":2461:2479  allowances[person] */\n      0xffffffffffffffffffffffffffffffffffffffff\n      and\n      0xffffffffffffffffffffffffffffffffffffffff\n      and\n      dup2\n      mstore\n      0x20\n      add\n      swap1\n      dup2\n      mstore\n      0x20\n      add\n      0x00\n      keccak256\n        /* \"krisha7MyWallet.sol\":2461:2488  allowances[person] = amount */\n      dup2\n      swap1\n      sstore\n      pop\n        /* \"krisha7MyWallet.sol\":2229:2496  function setAllowance(address person, uint256 amount) public onlyOwner {... */\n      pop\n      pop\n      jump\t// out\n        /* \"krisha7MyWallet.sol\":247:273  uint8 public approvalCount */\n    tag_26:\n      0x08\n      0x00\n      swap1\n      sload\n      swap1\n      0x0100\n      exp\n      swap1\n      div\n      0xff\n      and\n      dup2\n      jump\t// out\n        /* \"krisha7MyWallet.sol\":1255:1585  function changeGuardian(address oldGuardian, address newGuardian) public onlyOwner {... */\n    tag_33:\n        /* \"krisha7MyWallet.sol\":336:341  owner */\n      0x00\n      dup1\n      sload\n      swap1\n      0x0100\n      exp\n      swap1\n      div\n      0xffffffffffffffffffffffffffffffffffffffff\n      and\n        /* \"krisha7MyWallet.sol\":322:341  msg.sender == owner */\n      0xffffffffffffffffffffffffffffffffffffffff\n      and\n        /* \"krisha7MyWallet.sol\":322:332  msg.sender */\n      caller\n        /* \"krisha7MyWallet.sol\":322:341  msg.sender == owner */\n      0xffffffffffffffffffffffffffffffffffffffff\n      and\n      eq\n        /* \"krisha7MyWallet.sol\":314:371  require(msg.sender == owner, \"Only owner can call this.\") */\n      tag_74\n      jumpi\n      mload(0x40)\n      0x08c379a000000000000000000000000000000000000000000000000000000000\n      dup2\n      mstore\n      0x04\n      add\n      tag_75\n      swap1\n      tag_59\n      jump\t// in\n    tag_75:\n      mload(0x40)\n      dup1\n      swap2\n      sub\n      swap1\n      revert\n    tag_74:\n        /* \"krisha7MyWallet.sol\":1354:1361  uint8 i */\n      0x00\n        /* \"krisha7MyWallet.sol\":1349:1539  for (uint8 i = 0; i < guardians.length; i++) {... */\n    tag_77:\n        /* \"krisha7MyWallet.sol\":1371:1387  guardians.length */\n      0x05\n        /* \"krisha7MyWallet.sol\":1367:1368  i */\n      dup2\n        /* \"krisha7MyWallet.sol\":1367:1387  i < guardians.length */\n      0xff\n      and\n      lt\n        /* \"krisha7MyWallet.sol\":1349:1539  for (uint8 i = 0; i < guardians.length; i++) {... */\n      iszero\n      tag_78\n      jumpi\n        /* \"krisha7MyWallet.sol\":1429:1440  oldGuardian */\n      dup3\n        /* \"krisha7MyWallet.sol\":1413:1440  guardians[i] == oldGuardian */\n      0xffffffffffffffffffffffffffffffffffffffff\n      and\n        /* \"krisha7MyWallet.sol\":1413:1422  guardians */\n      0x02\n        /* \"krisha7MyWallet.sol\":1423:1424  i */\n      dup3\n        /* \"krisha7MyWallet.sol\":1413:1425  guardians[i] */\n      0xff\n      and\n      0x05\n      dup2\n      lt\n      tag_80\n      jumpi\n      tag_81\n      tag_66\n      jump\t// in\n    tag_81:\n    tag_80:\n      add\n      0x00\n      swap1\n      sload\n      swap1\n      0x0100\n      exp\n      swap1\n      div\n      0xffffffffffffffffffffffffffffffffffffffff\n      and\n        /* \"krisha7MyWallet.sol\":1413:1440  guardians[i] == oldGuardian */\n      0xffffffffffffffffffffffffffffffffffffffff\n      and\n      sub\n        /* \"krisha7MyWallet.sol\":1409:1528  if (guardians[i] == oldGuardian) {... */\n      tag_83\n      jumpi\n        /* \"krisha7MyWallet.sol\":1476:1487  newGuardian */\n      dup2\n        /* \"krisha7MyWallet.sol\":1461:1470  guardians */\n      0x02\n        /* \"krisha7MyWallet.sol\":1471:1472  i */\n      dup3\n        /* \"krisha7MyWallet.sol\":1461:1473  guardians[i] */\n      0xff\n      and\n      0x05\n      dup2\n      lt\n      tag_84\n      jumpi\n      tag_85\n      tag_66\n      jump\t// in\n    tag_85:\n    tag_84:\n      add\n      0x00\n        /* \"krisha7MyWallet.sol\":1461:1487  guardians[i] = newGuardian */\n      0x0100\n      exp\n      dup2\n      sload\n      dup2\n      0xffffffffffffffffffffffffffffffffffffffff\n      mul\n      not\n      and\n      swap1\n      dup4\n      0xffffffffffffffffffffffffffffffffffffffff\n      and\n      mul\n      or\n      swap1\n      sstore\n      pop\n        /* \"krisha7MyWallet.sol\":1506:1513  return; */\n      pop\n      jump(tag_76)\n        /* \"krisha7MyWallet.sol\":1409:1528  if (guardians[i] == oldGuardian) {... */\n    tag_83:\n        /* \"krisha7MyWallet.sol\":1389:1392  i++ */\n      dup1\n      dup1\n      tag_87\n      swap1\n      tag_72\n      jump\t// in\n    tag_87:\n      swap2\n      pop\n      pop\n        /* \"krisha7MyWallet.sol\":1349:1539  for (uint8 i = 0; i < guardians.length; i++) {... */\n      jump(tag_77)\n    tag_78:\n      pop\n        /* \"krisha7MyWallet.sol\":1549:1577  revert(\"Guardian not found\") */\n      mload(0x40)\n      0x08c379a000000000000000000000000000000000000000000000000000000000\n      dup2\n      mstore\n      0x04\n      add\n      tag_88\n      swap1\n      tag_89\n      jump\t// in\n    tag_88:\n      mload(0x40)\n      dup1\n      swap2\n      sub\n      swap1\n      revert\n        /* \"krisha7MyWallet.sol\":382:383  _ */\n    tag_76:\n        /* \"krisha7MyWallet.sol\":1255:1585  function changeGuardian(address oldGuardian, address newGuardian) public onlyOwner {... */\n      pop\n      pop\n      jump\t// out\n        /* \"krisha7MyWallet.sol\":85:105  address public owner */\n    tag_36:\n      0x00\n      dup1\n      sload\n      swap1\n      0x0100\n      exp\n      swap1\n      div\n      0xffffffffffffffffffffffffffffffffffffffff\n      and\n      dup2\n      jump\t// out\n        /* \"krisha7MyWallet.sol\":824:1247  function spend(address payable recipient, uint256 amount) public onlyOwner {... */\n    tag_43:\n        /* \"krisha7MyWallet.sol\":336:341  owner */\n      0x00\n      dup1\n      sload\n      swap1\n      0x0100\n      exp\n      swap1\n      div\n      0xffffffffffffffffffffffffffffffffffffffff\n      and\n        /* \"krisha7MyWallet.sol\":322:341  msg.sender == owner */\n      0xffffffffffffffffffffffffffffffffffffffff\n      and\n        /* \"krisha7MyWallet.sol\":322:332  msg.sender */\n      caller\n        /* \"krisha7MyWallet.sol\":322:341  msg.sender == owner */\n      0xffffffffffffffffffffffffffffffffffffffff\n      and\n      eq\n        /* \"krisha7MyWallet.sol\":314:371  require(msg.sender == owner, \"Only owner can call this.\") */\n      tag_91\n      jumpi\n      mload(0x40)\n      0x08c379a000000000000000000000000000000000000000000000000000000000\n      dup2\n      mstore\n      0x04\n      add\n      tag_92\n      swap1\n      tag_59\n      jump\t// in\n    tag_92:\n      mload(0x40)\n      dup1\n      swap2\n      sub\n      swap1\n      revert\n    tag_91:\n        /* \"krisha7MyWallet.sol\":943:949  amount */\n      dup1\n        /* \"krisha7MyWallet.sol\":918:939  address(this).balance */\n      selfbalance\n        /* \"krisha7MyWallet.sol\":918:949  address(this).balance >= amount */\n      lt\n      iszero\n        /* \"krisha7MyWallet.sol\":910:972  require(address(this).balance >= amount, \"Insufficient funds\") */\n      tag_94\n      jumpi\n      mload(0x40)\n      0x08c379a000000000000000000000000000000000000000000000000000000000\n      dup2\n      mstore\n      0x04\n      add\n      tag_95\n      swap1\n      tag_96\n      jump\t// in\n    tag_95:\n      mload(0x40)\n      dup1\n      swap2\n      sub\n      swap1\n      revert\n    tag_94:\n        /* \"krisha7MyWallet.sol\":1030:1036  amount */\n      dup1\n        /* \"krisha7MyWallet.sol\":1005:1015  allowances */\n      0x01\n        /* \"krisha7MyWallet.sol\":1005:1026  allowances[recipient] */\n      0x00\n        /* \"krisha7MyWallet.sol\":1016:1025  recipient */\n      dup5\n        /* \"krisha7MyWallet.sol\":1005:1026  allowances[recipient] */\n      0xffffffffffffffffffffffffffffffffffffffff\n      and\n      0xffffffffffffffffffffffffffffffffffffffff\n      and\n      dup2\n      mstore\n      0x20\n      add\n      swap1\n      dup2\n      mstore\n      0x20\n      add\n      0x00\n      keccak256\n      sload\n        /* \"krisha7MyWallet.sol\":1005:1036  allowances[recipient] >= amount */\n      lt\n      iszero\n        /* \"krisha7MyWallet.sol\":1005:1058  allowances[recipient] >= amount || recipient == owner */\n      dup1\n      tag_97\n      jumpi\n      pop\n        /* \"krisha7MyWallet.sol\":1053:1058  owner */\n      0x00\n      dup1\n      sload\n      swap1\n      0x0100\n      exp\n      swap1\n      div\n      0xffffffffffffffffffffffffffffffffffffffff\n      and\n        /* \"krisha7MyWallet.sol\":1040:1058  recipient == owner */\n      0xffffffffffffffffffffffffffffffffffffffff\n      and\n        /* \"krisha7MyWallet.sol\":1040:1049  recipient */\n      dup3\n        /* \"krisha7MyWallet.sol\":1040:1058  recipient == owner */\n      0xffffffffffffffffffffffffffffffffffffffff\n      and\n      eq\n        /* \"krisha7MyWallet.sol\":1005:1058  allowances[recipient] >= amount || recipient == owner */\n    tag_97:\n        /* \"krisha7MyWallet.sol\":983:1110  require(... */\n      tag_98\n      jumpi\n      mload(0x40)\n      0x08c379a000000000000000000000000000000000000000000000000000000000\n      dup2\n      mstore\n      0x04\n      add\n      tag_99\n      swap1\n      tag_100\n      jump\t// in\n    tag_99:\n      mload(0x40)\n      dup1\n      swap2\n      sub\n      swap1\n      revert\n    tag_98:\n        /* \"krisha7MyWallet.sol\":1138:1143  owner */\n      0x00\n      dup1\n      sload\n      swap1\n      0x0100\n      exp\n      swap1\n      div\n      0xffffffffffffffffffffffffffffffffffffffff\n      and\n        /* \"krisha7MyWallet.sol\":1125:1143  recipient != owner */\n      0xffffffffffffffffffffffffffffffffffffffff\n      and\n        /* \"krisha7MyWallet.sol\":1125:1134  recipient */\n      dup3\n        /* \"krisha7MyWallet.sol\":1125:1143  recipient != owner */\n      0xffffffffffffffffffffffffffffffffffffffff\n      and\n      eq\n        /* \"krisha7MyWallet.sol\":1121:1203  if (recipient != owner) {... */\n      tag_101\n      jumpi\n        /* \"krisha7MyWallet.sol\":1185:1191  amount */\n      dup1\n        /* \"krisha7MyWallet.sol\":1160:1170  allowances */\n      0x01\n        /* \"krisha7MyWallet.sol\":1160:1181  allowances[recipient] */\n      0x00\n        /* \"krisha7MyWallet.sol\":1171:1180  recipient */\n      dup5\n        /* \"krisha7MyWallet.sol\":1160:1181  allowances[recipient] */\n      0xffffffffffffffffffffffffffffffffffffffff\n      and\n      0xffffffffffffffffffffffffffffffffffffffff\n      and\n      dup2\n      mstore\n      0x20\n      add\n      swap1\n      dup2\n      mstore\n      0x20\n      add\n      0x00\n      keccak256\n      0x00\n        /* \"krisha7MyWallet.sol\":1160:1191  allowances[recipient] -= amount */\n      dup3\n      dup3\n      sload\n      tag_102\n      swap2\n      swap1\n      tag_103\n      jump\t// in\n    tag_102:\n      swap3\n      pop\n      pop\n      dup2\n      swap1\n      sstore\n      pop\n        /* \"krisha7MyWallet.sol\":1121:1203  if (recipient != owner) {... */\n    tag_101:\n        /* \"krisha7MyWallet.sol\":1213:1222  recipient */\n      dup2\n        /* \"krisha7MyWallet.sol\":1213:1231  recipient.transfer */\n      0xffffffffffffffffffffffffffffffffffffffff\n      and\n        /* \"krisha7MyWallet.sol\":1213:1239  recipient.transfer(amount) */\n      0x08fc\n        /* \"krisha7MyWallet.sol\":1232:1238  amount */\n      dup3\n        /* \"krisha7MyWallet.sol\":1213:1239  recipient.transfer(amount) */\n      swap1\n      dup2\n      iszero\n      mul\n      swap1\n      mload(0x40)\n      0x00\n      mload(0x40)\n      dup1\n      dup4\n      sub\n      dup2\n      dup6\n      dup9\n      dup9\n      call\n      swap4\n      pop\n      pop\n      pop\n      pop\n      iszero\n      dup1\n      iszero\n      tag_105\n      jumpi\n      returndatasize\n      0x00\n      dup1\n      returndatacopy\n      revert(0x00, returndatasize)\n    tag_105:\n      pop\n        /* \"krisha7MyWallet.sol\":824:1247  function spend(address payable recipient, uint256 amount) public onlyOwner {... */\n      pop\n      pop\n      jump\t// out\n        /* \"krisha7MyWallet.sol\":1593:2221  function guardianApproveNewOwner(address newOwner) public {... */\n    tag_47:\n        /* \"krisha7MyWallet.sol\":1662:1677  bool isGuardian */\n      0x00\n        /* \"krisha7MyWallet.sol\":1701:1708  uint8 i */\n      dup1\n        /* \"krisha7MyWallet.sol\":1696:1875  for (uint8 i = 0; i < guardians.length; i++) {... */\n    tag_107:\n        /* \"krisha7MyWallet.sol\":1718:1734  guardians.length */\n      0x05\n        /* \"krisha7MyWallet.sol\":1714:1715  i */\n      dup2\n        /* \"krisha7MyWallet.sol\":1714:1734  i < guardians.length */\n      0xff\n      and\n      lt\n        /* \"krisha7MyWallet.sol\":1696:1875  for (uint8 i = 0; i < guardians.length; i++) {... */\n      iszero\n      tag_108\n      jumpi\n        /* \"krisha7MyWallet.sol\":1776:1786  msg.sender */\n      caller\n        /* \"krisha7MyWallet.sol\":1760:1786  guardians[i] == msg.sender */\n      0xffffffffffffffffffffffffffffffffffffffff\n      and\n        /* \"krisha7MyWallet.sol\":1760:1769  guardians */\n      0x02\n        /* \"krisha7MyWallet.sol\":1770:1771  i */\n      dup3\n        /* \"krisha7MyWallet.sol\":1760:1772  guardians[i] */\n      0xff\n      and\n      0x05\n      dup2\n      lt\n      tag_110\n      jumpi\n      tag_111\n      tag_66\n      jump\t// in\n    tag_111:\n    tag_110:\n      add\n      0x00\n      swap1\n      sload\n      swap1\n      0x0100\n      exp\n      swap1\n      div\n      0xffffffffffffffffffffffffffffffffffffffff\n      and\n        /* \"krisha7MyWallet.sol\":1760:1786  guardians[i] == msg.sender */\n      0xffffffffffffffffffffffffffffffffffffffff\n      and\n      sub\n        /* \"krisha7MyWallet.sol\":1756:1864  if (guardians[i] == msg.sender) {... */\n      tag_113\n      jumpi\n        /* \"krisha7MyWallet.sol\":1820:1824  true */\n      0x01\n        /* \"krisha7MyWallet.sol\":1807:1824  isGuardian = true */\n      swap2\n      pop\n        /* \"krisha7MyWallet.sol\":1843:1848  break */\n      jump(tag_108)\n        /* \"krisha7MyWallet.sol\":1756:1864  if (guardians[i] == msg.sender) {... */\n    tag_113:\n        /* \"krisha7MyWallet.sol\":1736:1739  i++ */\n      dup1\n      dup1\n      tag_114\n      swap1\n      tag_72\n      jump\t// in\n    tag_114:\n      swap2\n      pop\n      pop\n        /* \"krisha7MyWallet.sol\":1696:1875  for (uint8 i = 0; i < guardians.length; i++) {... */\n      jump(tag_107)\n    tag_108:\n      pop\n        /* \"krisha7MyWallet.sol\":1895:1905  isGuardian */\n      dup1\n        /* \"krisha7MyWallet.sol\":1887:1936  require(isGuardian, \"Only guardians can approve\") */\n      tag_115\n      jumpi\n      mload(0x40)\n      0x08c379a000000000000000000000000000000000000000000000000000000000\n      dup2\n      mstore\n      0x04\n      add\n      tag_116\n      swap1\n      tag_117\n      jump\t// in\n    tag_116:\n      mload(0x40)\n      dup1\n      swap2\n      sub\n      swap1\n      revert\n    tag_115:\n        /* \"krisha7MyWallet.sol\":1956:1973  guardianApprovals */\n      0x07\n        /* \"krisha7MyWallet.sol\":1956:1985  guardianApprovals[msg.sender] */\n      0x00\n        /* \"krisha7MyWallet.sol\":1974:1984  msg.sender */\n      caller\n        /* \"krisha7MyWallet.sol\":1956:1985  guardianApprovals[msg.sender] */\n      0xffffffffffffffffffffffffffffffffffffffff\n      and\n      0xffffffffffffffffffffffffffffffffffffffff\n      and\n      dup2\n      mstore\n      0x20\n      add\n      swap1\n      dup2\n      mstore\n      0x20\n      add\n      0x00\n      keccak256\n      0x00\n      swap1\n      sload\n      swap1\n      0x0100\n      exp\n      swap1\n      div\n      0xff\n      and\n        /* \"krisha7MyWallet.sol\":1955:1985  !guardianApprovals[msg.sender] */\n      iszero\n        /* \"krisha7MyWallet.sol\":1947:2019  require(!guardianApprovals[msg.sender], \"Guardian has already approved\") */\n      tag_118\n      jumpi\n      mload(0x40)\n      0x08c379a000000000000000000000000000000000000000000000000000000000\n      dup2\n      mstore\n      0x04\n      add\n      tag_119\n      swap1\n      tag_120\n      jump\t// in\n    tag_119:\n      mload(0x40)\n      dup1\n      swap2\n      sub\n      swap1\n      revert\n    tag_118:\n        /* \"krisha7MyWallet.sol\":2064:2068  true */\n      0x01\n        /* \"krisha7MyWallet.sol\":2032:2049  guardianApprovals */\n      0x07\n        /* \"krisha7MyWallet.sol\":2032:2061  guardianApprovals[msg.sender] */\n      0x00\n        /* \"krisha7MyWallet.sol\":2050:2060  msg.sender */\n      caller\n        /* \"krisha7MyWallet.sol\":2032:2061  guardianApprovals[msg.sender] */\n      0xffffffffffffffffffffffffffffffffffffffff\n      and\n      0xffffffffffffffffffffffffffffffffffffffff\n      and\n      dup2\n      mstore\n      0x20\n      add\n      swap1\n      dup2\n      mstore\n      0x20\n      add\n      0x00\n      keccak256\n      0x00\n        /* \"krisha7MyWallet.sol\":2032:2068  guardianApprovals[msg.sender] = true */\n      0x0100\n      exp\n      dup2\n      sload\n      dup2\n      0xff\n      mul\n      not\n      and\n      swap1\n      dup4\n      iszero\n      iszero\n      mul\n      or\n      swap1\n      sstore\n      pop\n        /* \"krisha7MyWallet.sol\":2079:2092  approvalCount */\n      0x08\n      0x00\n        /* \"krisha7MyWallet.sol\":2079:2094  approvalCount++ */\n      dup2\n      dup2\n      swap1\n      sload\n      swap1\n      0x0100\n      exp\n      swap1\n      div\n      0xff\n      and\n      dup1\n      swap3\n      swap2\n      swap1\n      tag_121\n      swap1\n      tag_72\n      jump\t// in\n    tag_121:\n      swap2\n      swap1\n      0x0100\n      exp\n      dup2\n      sload\n      dup2\n      0xff\n      mul\n      not\n      and\n      swap1\n      dup4\n      0xff\n      and\n      mul\n      or\n      swap1\n      sstore\n      pop\n      pop\n        /* \"krisha7MyWallet.sol\":2128:2129  3 */\n      0x03\n        /* \"krisha7MyWallet.sol\":2111:2124  approvalCount */\n      0x08\n      0x00\n      swap1\n      sload\n      swap1\n      0x0100\n      exp\n      swap1\n      div\n      0xff\n      and\n        /* \"krisha7MyWallet.sol\":2111:2129  approvalCount >= 3 */\n      0xff\n      and\n      lt\n        /* \"krisha7MyWallet.sol\":2107:2214  if (approvalCount >= 3) {... */\n      tag_122\n      jumpi\n        /* \"krisha7MyWallet.sol\":2154:2162  newOwner */\n      dup2\n        /* \"krisha7MyWallet.sol\":2146:2151  owner */\n      0x00\n      dup1\n        /* \"krisha7MyWallet.sol\":2146:2162  owner = newOwner */\n      0x0100\n      exp\n      dup2\n      sload\n      dup2\n      0xffffffffffffffffffffffffffffffffffffffff\n      mul\n      not\n      and\n      swap1\n      dup4\n      0xffffffffffffffffffffffffffffffffffffffff\n      and\n      mul\n      or\n      swap1\n      sstore\n      pop\n        /* \"krisha7MyWallet.sol\":2177:2202  _resetGuardianApprovals() */\n      tag_123\n        /* \"krisha7MyWallet.sol\":2177:2200  _resetGuardianApprovals */\n      tag_124\n        /* \"krisha7MyWallet.sol\":2177:2202  _resetGuardianApprovals() */\n      jump\t// in\n    tag_123:\n        /* \"krisha7MyWallet.sol\":2107:2214  if (approvalCount >= 3) {... */\n    tag_122:\n        /* \"krisha7MyWallet.sol\":1651:2221  {... */\n      pop\n        /* \"krisha7MyWallet.sol\":1593:2221  function guardianApproveNewOwner(address newOwner) public {... */\n      pop\n      jump\t// out\n        /* \"krisha7MyWallet.sol\":780:816  function deposit() public payable {} */\n    tag_49:\n      jump\t// out\n        /* \"krisha7MyWallet.sol\":164:191  address[5] public guardians */\n    tag_54:\n      0x02\n      dup2\n      0x05\n      dup2\n      lt\n      tag_126\n      jumpi\n      0x00\n      dup1\n      revert\n    tag_126:\n      add\n      0x00\n      swap2\n      pop\n      sload\n      swap1\n      0x0100\n      exp\n      swap1\n      div\n      0xffffffffffffffffffffffffffffffffffffffff\n      and\n      dup2\n      jump\t// out\n        /* \"krisha7MyWallet.sol\":2504:2704  function _resetGuardianApprovals() private {... */\n    tag_124:\n        /* \"krisha7MyWallet.sol\":2563:2570  uint8 i */\n      0x00\n        /* \"krisha7MyWallet.sol\":2558:2669  for (uint8 i = 0; i < guardians.length; i++) {... */\n    tag_129:\n        /* \"krisha7MyWallet.sol\":2580:2596  guardians.length */\n      0x05\n        /* \"krisha7MyWallet.sol\":2576:2577  i */\n      dup2\n        /* \"krisha7MyWallet.sol\":2576:2596  i < guardians.length */\n      0xff\n      and\n      lt\n        /* \"krisha7MyWallet.sol\":2558:2669  for (uint8 i = 0; i < guardians.length; i++) {... */\n      iszero\n      tag_130\n      jumpi\n        /* \"krisha7MyWallet.sol\":2652:2657  false */\n      0x00\n        /* \"krisha7MyWallet.sol\":2618:2635  guardianApprovals */\n      0x07\n        /* \"krisha7MyWallet.sol\":2618:2649  guardianApprovals[guardians[i]] */\n      0x00\n        /* \"krisha7MyWallet.sol\":2636:2645  guardians */\n      0x02\n        /* \"krisha7MyWallet.sol\":2646:2647  i */\n      dup5\n        /* \"krisha7MyWallet.sol\":2636:2648  guardians[i] */\n      0xff\n      and\n      0x05\n      dup2\n      lt\n      tag_132\n      jumpi\n      tag_133\n      tag_66\n      jump\t// in\n    tag_133:\n    tag_132:\n      add\n      0x00\n      swap1\n      sload\n      swap1\n      0x0100\n      exp\n      swap1\n      div\n      0xffffffffffffffffffffffffffffffffffffffff\n      and\n        /* \"krisha7MyWallet.sol\":2618:2649  guardianApprovals[guardians[i]] */\n      0xffffffffffffffffffffffffffffffffffffffff\n      and\n      0xffffffffffffffffffffffffffffffffffffffff\n      and\n      dup2\n      mstore\n      0x20\n      add\n      swap1\n      dup2\n      mstore\n      0x20\n      add\n      0x00\n      keccak256\n      0x00\n        /* \"krisha7MyWallet.sol\":2618:2657  guardianApprovals[guardians[i]] = false */\n      0x0100\n      exp\n      dup2\n      sload\n      dup2\n      0xff\n      mul\n      not\n      and\n      swap1\n      dup4\n      iszero\n      iszero\n      mul\n      or\n      swap1\n      sstore\n      pop\n        /* \"krisha7MyWallet.sol\":2598:2601  i++ */\n      dup1\n      dup1\n      tag_135\n      swap1\n      tag_72\n      jump\t// in\n    tag_135:\n      swap2\n      pop\n      pop\n        /* \"krisha7MyWallet.sol\":2558:2669  for (uint8 i = 0; i < guardians.length; i++) {... */\n      jump(tag_129)\n    tag_130:\n      pop\n        /* \"krisha7MyWallet.sol\":2695:2696  0 */\n      0x00\n        /* \"krisha7MyWallet.sol\":2679:2692  approvalCount */\n      0x08\n      0x00\n        /* \"krisha7MyWallet.sol\":2679:2696  approvalCount = 0 */\n      0x0100\n      exp\n      dup2\n      sload\n      dup2\n      0xff\n      mul\n      not\n      and\n      swap1\n      dup4\n      0xff\n      and\n      mul\n      or\n      swap1\n      sstore\n      pop\n        /* \"krisha7MyWallet.sol\":2504:2704  function _resetGuardianApprovals() private {... */\n      jump\t// out\n        /* \"#utility.yul\":88:205   */\n    tag_137:\n        /* \"#utility.yul\":197:198   */\n      0x00\n        /* \"#utility.yul\":194:195   */\n      dup1\n        /* \"#utility.yul\":187:199   */\n      revert\n        /* \"#utility.yul\":334:460   */\n    tag_139:\n        /* \"#utility.yul\":371:378   */\n      0x00\n        /* \"#utility.yul\":411:453   */\n      0xffffffffffffffffffffffffffffffffffffffff\n        /* \"#utility.yul\":404:409   */\n      dup3\n        /* \"#utility.yul\":400:454   */\n      and\n        /* \"#utility.yul\":389:454   */\n      swap1\n      pop\n        /* \"#utility.yul\":334:460   */\n      swap2\n      swap1\n      pop\n      jump\t// out\n        /* \"#utility.yul\":466:562   */\n    tag_140:\n        /* \"#utility.yul\":503:510   */\n      0x00\n        /* \"#utility.yul\":532:556   */\n      tag_175\n        /* \"#utility.yul\":550:555   */\n      dup3\n        /* \"#utility.yul\":532:556   */\n      tag_139\n      jump\t// in\n    tag_175:\n        /* \"#utility.yul\":521:556   */\n      swap1\n      pop\n        /* \"#utility.yul\":466:562   */\n      swap2\n      swap1\n      pop\n      jump\t// out\n        /* \"#utility.yul\":568:690   */\n    tag_141:\n        /* \"#utility.yul\":641:665   */\n      tag_177\n        /* \"#utility.yul\":659:664   */\n      dup2\n        /* \"#utility.yul\":641:665   */\n      tag_140\n      jump\t// in\n    tag_177:\n        /* \"#utility.yul\":634:639   */\n      dup2\n        /* \"#utility.yul\":631:666   */\n      eq\n        /* \"#utility.yul\":621:684   */\n      tag_178\n      jumpi\n        /* \"#utility.yul\":680:681   */\n      0x00\n        /* \"#utility.yul\":677:678   */\n      dup1\n        /* \"#utility.yul\":670:682   */\n      revert\n        /* \"#utility.yul\":621:684   */\n    tag_178:\n        /* \"#utility.yul\":568:690   */\n      pop\n      jump\t// out\n        /* \"#utility.yul\":696:835   */\n    tag_142:\n        /* \"#utility.yul\":742:747   */\n      0x00\n        /* \"#utility.yul\":780:786   */\n      dup2\n        /* \"#utility.yul\":767:787   */\n      calldataload\n        /* \"#utility.yul\":758:787   */\n      swap1\n      pop\n        /* \"#utility.yul\":796:829   */\n      tag_180\n        /* \"#utility.yul\":823:828   */\n      dup2\n        /* \"#utility.yul\":796:829   */\n      tag_141\n      jump\t// in\n    tag_180:\n        /* \"#utility.yul\":696:835   */\n      swap3\n      swap2\n      pop\n      pop\n      jump\t// out\n        /* \"#utility.yul\":841:1170   */\n    tag_15:\n        /* \"#utility.yul\":900:906   */\n      0x00\n        /* \"#utility.yul\":949:951   */\n      0x20\n        /* \"#utility.yul\":937:946   */\n      dup3\n        /* \"#utility.yul\":928:935   */\n      dup5\n        /* \"#utility.yul\":924:947   */\n      sub\n        /* \"#utility.yul\":920:952   */\n      slt\n        /* \"#utility.yul\":917:1036   */\n      iszero\n      tag_182\n      jumpi\n        /* \"#utility.yul\":955:1034   */\n      tag_183\n      tag_137\n      jump\t// in\n    tag_183:\n        /* \"#utility.yul\":917:1036   */\n    tag_182:\n        /* \"#utility.yul\":1075:1076   */\n      0x00\n        /* \"#utility.yul\":1100:1153   */\n      tag_184\n        /* \"#utility.yul\":1145:1152   */\n      dup5\n        /* \"#utility.yul\":1136:1142   */\n      dup3\n        /* \"#utility.yul\":1125:1134   */\n      dup6\n        /* \"#utility.yul\":1121:1143   */\n      add\n        /* \"#utility.yul\":1100:1153   */\n      tag_142\n      jump\t// in\n    tag_184:\n        /* \"#utility.yul\":1090:1153   */\n      swap2\n      pop\n        /* \"#utility.yul\":1046:1163   */\n      pop\n        /* \"#utility.yul\":841:1170   */\n      swap3\n      swap2\n      pop\n      pop\n      jump\t// out\n        /* \"#utility.yul\":1176:1253   */\n    tag_143:\n        /* \"#utility.yul\":1213:1220   */\n      0x00\n        /* \"#utility.yul\":1242:1247   */\n      dup2\n        /* \"#utility.yul\":1231:1247   */\n      swap1\n      pop\n        /* \"#utility.yul\":1176:1253   */\n      swap2\n      swap1\n      pop\n      jump\t// out\n        /* \"#utility.yul\":1259:1377   */\n    tag_144:\n        /* \"#utility.yul\":1346:1370   */\n      tag_187\n        /* \"#utility.yul\":1364:1369   */\n      dup2\n        /* \"#utility.yul\":1346:1370   */\n      tag_143\n      jump\t// in\n    tag_187:\n        /* \"#utility.yul\":1341:1344   */\n      dup3\n        /* \"#utility.yul\":1334:1371   */\n      mstore\n        /* \"#utility.yul\":1259:1377   */\n      pop\n      pop\n      jump\t// out\n        /* \"#utility.yul\":1383:1605   */\n    tag_18:\n        /* \"#utility.yul\":1476:1480   */\n      0x00\n        /* \"#utility.yul\":1514:1516   */\n      0x20\n        /* \"#utility.yul\":1503:1512   */\n      dup3\n        /* \"#utility.yul\":1499:1517   */\n      add\n        /* \"#utility.yul\":1491:1517   */\n      swap1\n      pop\n        /* \"#utility.yul\":1527:1598   */\n      tag_189\n        /* \"#utility.yul\":1595:1596   */\n      0x00\n        /* \"#utility.yul\":1584:1593   */\n      dup4\n        /* \"#utility.yul\":1580:1597   */\n      add\n        /* \"#utility.yul\":1571:1577   */\n      dup5\n        /* \"#utility.yul\":1527:1598   */\n      tag_144\n      jump\t// in\n    tag_189:\n        /* \"#utility.yul\":1383:1605   */\n      swap3\n      swap2\n      pop\n      pop\n      jump\t// out\n        /* \"#utility.yul\":1611:1733   */\n    tag_145:\n        /* \"#utility.yul\":1684:1708   */\n      tag_191\n        /* \"#utility.yul\":1702:1707   */\n      dup2\n        /* \"#utility.yul\":1684:1708   */\n      tag_143\n      jump\t// in\n    tag_191:\n        /* \"#utility.yul\":1677:1682   */\n      dup2\n        /* \"#utility.yul\":1674:1709   */\n      eq\n        /* \"#utility.yul\":1664:1727   */\n      tag_192\n      jumpi\n        /* \"#utility.yul\":1723:1724   */\n      0x00\n        /* \"#utility.yul\":1720:1721   */\n      dup1\n        /* \"#utility.yul\":1713:1725   */\n      revert\n        /* \"#utility.yul\":1664:1727   */\n    tag_192:\n        /* \"#utility.yul\":1611:1733   */\n      pop\n      jump\t// out\n        /* \"#utility.yul\":1739:1878   */\n    tag_146:\n        /* \"#utility.yul\":1785:1790   */\n      0x00\n        /* \"#utility.yul\":1823:1829   */\n      dup2\n        /* \"#utility.yul\":1810:1830   */\n      calldataload\n        /* \"#utility.yul\":1801:1830   */\n      swap1\n      pop\n        /* \"#utility.yul\":1839:1872   */\n      tag_194\n        /* \"#utility.yul\":1866:1871   */\n      dup2\n        /* \"#utility.yul\":1839:1872   */\n      tag_145\n      jump\t// in\n    tag_194:\n        /* \"#utility.yul\":1739:1878   */\n      swap3\n      swap2\n      pop\n      pop\n      jump\t// out\n        /* \"#utility.yul\":1884:2358   */\n    tag_22:\n        /* \"#utility.yul\":1952:1958   */\n      0x00\n        /* \"#utility.yul\":1960:1966   */\n      dup1\n        /* \"#utility.yul\":2009:2011   */\n      0x40\n        /* \"#utility.yul\":1997:2006   */\n      dup4\n        /* \"#utility.yul\":1988:1995   */\n      dup6\n        /* \"#utility.yul\":1984:2007   */\n      sub\n        /* \"#utility.yul\":1980:2012   */\n      slt\n        /* \"#utility.yul\":1977:2096   */\n      iszero\n      tag_196\n      jumpi\n        /* \"#utility.yul\":2015:2094   */\n      tag_197\n      tag_137\n      jump\t// in\n    tag_197:\n        /* \"#utility.yul\":1977:2096   */\n    tag_196:\n        /* \"#utility.yul\":2135:2136   */\n      0x00\n        /* \"#utility.yul\":2160:2213   */\n      tag_198\n        /* \"#utility.yul\":2205:2212   */\n      dup6\n        /* \"#utility.yul\":2196:2202   */\n      dup3\n        /* \"#utility.yul\":2185:2194   */\n      dup7\n        /* \"#utility.yul\":2181:2203   */\n      add\n        /* \"#utility.yul\":2160:2213   */\n      tag_142\n      jump\t// in\n    tag_198:\n        /* \"#utility.yul\":2150:2213   */\n      swap3\n      pop\n        /* \"#utility.yul\":2106:2223   */\n      pop\n        /* \"#utility.yul\":2262:2264   */\n      0x20\n        /* \"#utility.yul\":2288:2341   */\n      tag_199\n        /* \"#utility.yul\":2333:2340   */\n      dup6\n        /* \"#utility.yul\":2324:2330   */\n      dup3\n        /* \"#utility.yul\":2313:2322   */\n      dup7\n        /* \"#utility.yul\":2309:2331   */\n      add\n        /* \"#utility.yul\":2288:2341   */\n      tag_146\n      jump\t// in\n    tag_199:\n        /* \"#utility.yul\":2278:2341   */\n      swap2\n      pop\n        /* \"#utility.yul\":2233:2351   */\n      pop\n        /* \"#utility.yul\":1884:2358   */\n      swap3\n      pop\n      swap3\n      swap1\n      pop\n      jump\t// out\n        /* \"#utility.yul\":2364:2450   */\n    tag_147:\n        /* \"#utility.yul\":2399:2406   */\n      0x00\n        /* \"#utility.yul\":2439:2443   */\n      0xff\n        /* \"#utility.yul\":2432:2437   */\n      dup3\n        /* \"#utility.yul\":2428:2444   */\n      and\n        /* \"#utility.yul\":2417:2444   */\n      swap1\n      pop\n        /* \"#utility.yul\":2364:2450   */\n      swap2\n      swap1\n      pop\n      jump\t// out\n        /* \"#utility.yul\":2456:2568   */\n    tag_148:\n        /* \"#utility.yul\":2539:2561   */\n      tag_202\n        /* \"#utility.yul\":2555:2560   */\n      dup2\n        /* \"#utility.yul\":2539:2561   */\n      tag_147\n      jump\t// in\n    tag_202:\n        /* \"#utility.yul\":2534:2537   */\n      dup3\n        /* \"#utility.yul\":2527:2562   */\n      mstore\n        /* \"#utility.yul\":2456:2568   */\n      pop\n      pop\n      jump\t// out\n        /* \"#utility.yul\":2574:2788   */\n    tag_28:\n        /* \"#utility.yul\":2663:2667   */\n      0x00\n        /* \"#utility.yul\":2701:2703   */\n      0x20\n        /* \"#utility.yul\":2690:2699   */\n      dup3\n        /* \"#utility.yul\":2686:2704   */\n      add\n        /* \"#utility.yul\":2678:2704   */\n      swap1\n      pop\n        /* \"#utility.yul\":2714:2781   */\n      tag_204\n        /* \"#utility.yul\":2778:2779   */\n      0x00\n        /* \"#utility.yul\":2767:2776   */\n      dup4\n        /* \"#utility.yul\":2763:2780   */\n      add\n        /* \"#utility.yul\":2754:2760   */\n      dup5\n        /* \"#utility.yul\":2714:2781   */\n      tag_148\n      jump\t// in\n    tag_204:\n        /* \"#utility.yul\":2574:2788   */\n      swap3\n      swap2\n      pop\n      pop\n      jump\t// out\n        /* \"#utility.yul\":2794:3268   */\n    tag_32:\n        /* \"#utility.yul\":2862:2868   */\n      0x00\n        /* \"#utility.yul\":2870:2876   */\n      dup1\n        /* \"#utility.yul\":2919:2921   */\n      0x40\n        /* \"#utility.yul\":2907:2916   */\n      dup4\n        /* \"#utility.yul\":2898:2905   */\n      dup6\n        /* \"#utility.yul\":2894:2917   */\n      sub\n        /* \"#utility.yul\":2890:2922   */\n      slt\n        /* \"#utility.yul\":2887:3006   */\n      iszero\n      tag_206\n      jumpi\n        /* \"#utility.yul\":2925:3004   */\n      tag_207\n      tag_137\n      jump\t// in\n    tag_207:\n        /* \"#utility.yul\":2887:3006   */\n    tag_206:\n        /* \"#utility.yul\":3045:3046   */\n      0x00\n        /* \"#utility.yul\":3070:3123   */\n      tag_208\n        /* \"#utility.yul\":3115:3122   */\n      dup6\n        /* \"#utility.yul\":3106:3112   */\n      dup3\n        /* \"#utility.yul\":3095:3104   */\n      dup7\n        /* \"#utility.yul\":3091:3113   */\n      add\n        /* \"#utility.yul\":3070:3123   */\n      tag_142\n      jump\t// in\n    tag_208:\n        /* \"#utility.yul\":3060:3123   */\n      swap3\n      pop\n        /* \"#utility.yul\":3016:3133   */\n      pop\n        /* \"#utility.yul\":3172:3174   */\n      0x20\n        /* \"#utility.yul\":3198:3251   */\n      tag_209\n        /* \"#utility.yul\":3243:3250   */\n      dup6\n        /* \"#utility.yul\":3234:3240   */\n      dup3\n        /* \"#utility.yul\":3223:3232   */\n      dup7\n        /* \"#utility.yul\":3219:3241   */\n      add\n        /* \"#utility.yul\":3198:3251   */\n      tag_142\n      jump\t// in\n    tag_209:\n        /* \"#utility.yul\":3188:3251   */\n      swap2\n      pop\n        /* \"#utility.yul\":3143:3261   */\n      pop\n        /* \"#utility.yul\":2794:3268   */\n      swap3\n      pop\n      swap3\n      swap1\n      pop\n      jump\t// out\n        /* \"#utility.yul\":3274:3392   */\n    tag_149:\n        /* \"#utility.yul\":3361:3385   */\n      tag_211\n        /* \"#utility.yul\":3379:3384   */\n      dup2\n        /* \"#utility.yul\":3361:3385   */\n      tag_140\n      jump\t// in\n    tag_211:\n        /* \"#utility.yul\":3356:3359   */\n      dup3\n        /* \"#utility.yul\":3349:3386   */\n      mstore\n        /* \"#utility.yul\":3274:3392   */\n      pop\n      pop\n      jump\t// out\n        /* \"#utility.yul\":3398:3620   */\n    tag_38:\n        /* \"#utility.yul\":3491:3495   */\n      0x00\n        /* \"#utility.yul\":3529:3531   */\n      0x20\n        /* \"#utility.yul\":3518:3527   */\n      dup3\n        /* \"#utility.yul\":3514:3532   */\n      add\n        /* \"#utility.yul\":3506:3532   */\n      swap1\n      pop\n        /* \"#utility.yul\":3542:3613   */\n      tag_213\n        /* \"#utility.yul\":3610:3611   */\n      0x00\n        /* \"#utility.yul\":3599:3608   */\n      dup4\n        /* \"#utility.yul\":3595:3612   */\n      add\n        /* \"#utility.yul\":3586:3592   */\n      dup5\n        /* \"#utility.yul\":3542:3613   */\n      tag_149\n      jump\t// in\n    tag_213:\n        /* \"#utility.yul\":3398:3620   */\n      swap3\n      swap2\n      pop\n      pop\n      jump\t// out\n        /* \"#utility.yul\":3626:3730   */\n    tag_150:\n        /* \"#utility.yul\":3671:3678   */\n      0x00\n        /* \"#utility.yul\":3700:3724   */\n      tag_215\n        /* \"#utility.yul\":3718:3723   */\n      dup3\n        /* \"#utility.yul\":3700:3724   */\n      tag_139\n      jump\t// in\n    tag_215:\n        /* \"#utility.yul\":3689:3724   */\n      swap1\n      pop\n        /* \"#utility.yul\":3626:3730   */\n      swap2\n      swap1\n      pop\n      jump\t// out\n        /* \"#utility.yul\":3736:3874   */\n    tag_151:\n        /* \"#utility.yul\":3817:3849   */\n      tag_217\n        /* \"#utility.yul\":3843:3848   */\n      dup2\n        /* \"#utility.yul\":3817:3849   */\n      tag_150\n      jump\t// in\n    tag_217:\n        /* \"#utility.yul\":3810:3815   */\n      dup2\n        /* \"#utility.yul\":3807:3850   */\n      eq\n        /* \"#utility.yul\":3797:3868   */\n      tag_218\n      jumpi\n        /* \"#utility.yul\":3864:3865   */\n      0x00\n        /* \"#utility.yul\":3861:3862   */\n      dup1\n        /* \"#utility.yul\":3854:3866   */\n      revert\n        /* \"#utility.yul\":3797:3868   */\n    tag_218:\n        /* \"#utility.yul\":3736:3874   */\n      pop\n      jump\t// out\n        /* \"#utility.yul\":3880:4035   */\n    tag_152:\n        /* \"#utility.yul\":3934:3939   */\n      0x00\n        /* \"#utility.yul\":3972:3978   */\n      dup2\n        /* \"#utility.yul\":3959:3979   */\n      calldataload\n        /* \"#utility.yul\":3950:3979   */\n      swap1\n      pop\n        /* \"#utility.yul\":3988:4029   */\n      tag_220\n        /* \"#utility.yul\":4023:4028   */\n      dup2\n        /* \"#utility.yul\":3988:4029   */\n      tag_151\n      jump\t// in\n    tag_220:\n        /* \"#utility.yul\":3880:4035   */\n      swap3\n      swap2\n      pop\n      pop\n      jump\t// out\n        /* \"#utility.yul\":4041:4531   */\n    tag_42:\n        /* \"#utility.yul\":4117:4123   */\n      0x00\n        /* \"#utility.yul\":4125:4131   */\n      dup1\n        /* \"#utility.yul\":4174:4176   */\n      0x40\n        /* \"#utility.yul\":4162:4171   */\n      dup4\n        /* \"#utility.yul\":4153:4160   */\n      dup6\n        /* \"#utility.yul\":4149:4172   */\n      sub\n        /* \"#utility.yul\":4145:4177   */\n      slt\n        /* \"#utility.yul\":4142:4261   */\n      iszero\n      tag_222\n      jumpi\n        /* \"#utility.yul\":4180:4259   */\n      tag_223\n      tag_137\n      jump\t// in\n    tag_223:\n        /* \"#utility.yul\":4142:4261   */\n    tag_222:\n        /* \"#utility.yul\":4300:4301   */\n      0x00\n        /* \"#utility.yul\":4325:4386   */\n      tag_224\n        /* \"#utility.yul\":4378:4385   */\n      dup6\n        /* \"#utility.yul\":4369:4375   */\n      dup3\n        /* \"#utility.yul\":4358:4367   */\n      dup7\n        /* \"#utility.yul\":4354:4376   */\n      add\n        /* \"#utility.yul\":4325:4386   */\n      tag_152\n      jump\t// in\n    tag_224:\n        /* \"#utility.yul\":4315:4386   */\n      swap3\n      pop\n        /* \"#utility.yul\":4271:4396   */\n      pop\n        /* \"#utility.yul\":4435:4437   */\n      0x20\n        /* \"#utility.yul\":4461:4514   */\n      tag_225\n        /* \"#utility.yul\":4506:4513   */\n      dup6\n        /* \"#utility.yul\":4497:4503   */\n      dup3\n        /* \"#utility.yul\":4486:4495   */\n      dup7\n        /* \"#utility.yul\":4482:4504   */\n      add\n        /* \"#utility.yul\":4461:4514   */\n      tag_146\n      jump\t// in\n    tag_225:\n        /* \"#utility.yul\":4451:4514   */\n      swap2\n      pop\n        /* \"#utility.yul\":4406:4524   */\n      pop\n        /* \"#utility.yul\":4041:4531   */\n      swap3\n      pop\n      swap3\n      swap1\n      pop\n      jump\t// out\n        /* \"#utility.yul\":4537:4866   */\n    tag_53:\n        /* \"#utility.yul\":4596:4602   */\n      0x00\n        /* \"#utility.yul\":4645:4647   */\n      0x20\n        /* \"#utility.yul\":4633:4642   */\n      dup3\n        /* \"#utility.yul\":4624:4631   */\n      dup5\n        /* \"#utility.yul\":4620:4643   */\n      sub\n        /* \"#utility.yul\":4616:4648   */\n      slt\n        /* \"#utility.yul\":4613:4732   */\n      iszero\n      tag_227\n      jumpi\n        /* \"#utility.yul\":4651:4730   */\n      tag_228\n      tag_137\n      jump\t// in\n    tag_228:\n        /* \"#utility.yul\":4613:4732   */\n    tag_227:\n        /* \"#utility.yul\":4771:4772   */\n      0x00\n        /* \"#utility.yul\":4796:4849   */\n      tag_229\n        /* \"#utility.yul\":4841:4848   */\n      dup5\n        /* \"#utility.yul\":4832:4838   */\n      dup3\n        /* \"#utility.yul\":4821:4830   */\n      dup6\n        /* \"#utility.yul\":4817:4839   */\n      add\n        /* \"#utility.yul\":4796:4849   */\n      tag_146\n      jump\t// in\n    tag_229:\n        /* \"#utility.yul\":4786:4849   */\n      swap2\n      pop\n        /* \"#utility.yul\":4742:4859   */\n      pop\n        /* \"#utility.yul\":4537:4866   */\n      swap3\n      swap2\n      pop\n      pop\n      jump\t// out\n        /* \"#utility.yul\":4872:5041   */\n    tag_153:\n        /* \"#utility.yul\":4956:4967   */\n      0x00\n        /* \"#utility.yul\":4990:4996   */\n      dup3\n        /* \"#utility.yul\":4985:4988   */\n      dup3\n        /* \"#utility.yul\":4978:4997   */\n      mstore\n        /* \"#utility.yul\":5030:5034   */\n      0x20\n        /* \"#utility.yul\":5025:5028   */\n      dup3\n        /* \"#utility.yul\":5021:5035   */\n      add\n        /* \"#utility.yul\":5006:5035   */\n      swap1\n      pop\n        /* \"#utility.yul\":4872:5041   */\n      swap3\n      swap2\n      pop\n      pop\n      jump\t// out\n        /* \"#utility.yul\":5047:5222   */\n    tag_154:\n        /* \"#utility.yul\":5187:5214   */\n      0x4f6e6c79206f776e65722063616e2063616c6c20746869732e00000000000000\n        /* \"#utility.yul\":5183:5184   */\n      0x00\n        /* \"#utility.yul\":5175:5181   */\n      dup3\n        /* \"#utility.yul\":5171:5185   */\n      add\n        /* \"#utility.yul\":5164:5215   */\n      mstore\n        /* \"#utility.yul\":5047:5222   */\n      pop\n      jump\t// out\n        /* \"#utility.yul\":5228:5594   */\n    tag_155:\n        /* \"#utility.yul\":5370:5373   */\n      0x00\n        /* \"#utility.yul\":5391:5458   */\n      tag_233\n        /* \"#utility.yul\":5455:5457   */\n      0x19\n        /* \"#utility.yul\":5450:5453   */\n      dup4\n        /* \"#utility.yul\":5391:5458   */\n      tag_153\n      jump\t// in\n    tag_233:\n        /* \"#utility.yul\":5384:5458   */\n      swap2\n      pop\n        /* \"#utility.yul\":5467:5560   */\n      tag_234\n        /* \"#utility.yul\":5556:5559   */\n      dup3\n        /* \"#utility.yul\":5467:5560   */\n      tag_154\n      jump\t// in\n    tag_234:\n        /* \"#utility.yul\":5585:5587   */\n      0x20\n        /* \"#utility.yul\":5580:5583   */\n      dup3\n        /* \"#utility.yul\":5576:5588   */\n      add\n        /* \"#utility.yul\":5569:5588   */\n      swap1\n      pop\n        /* \"#utility.yul\":5228:5594   */\n      swap2\n      swap1\n      pop\n      jump\t// out\n        /* \"#utility.yul\":5600:6019   */\n    tag_59:\n        /* \"#utility.yul\":5766:5770   */\n      0x00\n        /* \"#utility.yul\":5804:5806   */\n      0x20\n        /* \"#utility.yul\":5793:5802   */\n      dup3\n        /* \"#utility.yul\":5789:5807   */\n      add\n        /* \"#utility.yul\":5781:5807   */\n      swap1\n      pop\n        /* \"#utility.yul\":5853:5862   */\n      dup2\n        /* \"#utility.yul\":5847:5851   */\n      dup2\n        /* \"#utility.yul\":5843:5863   */\n      sub\n        /* \"#utility.yul\":5839:5840   */\n      0x00\n        /* \"#utility.yul\":5828:5837   */\n      dup4\n        /* \"#utility.yul\":5824:5841   */\n      add\n        /* \"#utility.yul\":5817:5864   */\n      mstore\n        /* \"#utility.yul\":5881:6012   */\n      tag_236\n        /* \"#utility.yul\":6007:6011   */\n      dup2\n        /* \"#utility.yul\":5881:6012   */\n      tag_155\n      jump\t// in\n    tag_236:\n        /* \"#utility.yul\":5873:6012   */\n      swap1\n      pop\n        /* \"#utility.yul\":5600:6019   */\n      swap2\n      swap1\n      pop\n      jump\t// out\n        /* \"#utility.yul\":6025:6205   */\n    tag_66:\n        /* \"#utility.yul\":6073:6150   */\n      0x4e487b7100000000000000000000000000000000000000000000000000000000\n        /* \"#utility.yul\":6070:6071   */\n      0x00\n        /* \"#utility.yul\":6063:6151   */\n      mstore\n        /* \"#utility.yul\":6170:6174   */\n      0x32\n        /* \"#utility.yul\":6167:6168   */\n      0x04\n        /* \"#utility.yul\":6160:6175   */\n      mstore\n        /* \"#utility.yul\":6194:6198   */\n      0x24\n        /* \"#utility.yul\":6191:6192   */\n      0x00\n        /* \"#utility.yul\":6184:6199   */\n      revert\n        /* \"#utility.yul\":6211:6431   */\n    tag_156:\n        /* \"#utility.yul\":6351:6385   */\n      0x477561726469616e2063616e6e6f74207265636569766520616c6c6f77616e63\n        /* \"#utility.yul\":6347:6348   */\n      0x00\n        /* \"#utility.yul\":6339:6345   */\n      dup3\n        /* \"#utility.yul\":6335:6349   */\n      add\n        /* \"#utility.yul\":6328:6386   */\n      mstore\n        /* \"#utility.yul\":6420:6423   */\n      0x6500000000000000000000000000000000000000000000000000000000000000\n        /* \"#utility.yul\":6415:6417   */\n      0x20\n        /* \"#utility.yul\":6407:6413   */\n      dup3\n        /* \"#utility.yul\":6403:6418   */\n      add\n        /* \"#utility.yul\":6396:6424   */\n      mstore\n        /* \"#utility.yul\":6211:6431   */\n      pop\n      jump\t// out\n        /* \"#utility.yul\":6437:6803   */\n    tag_157:\n        /* \"#utility.yul\":6579:6582   */\n      0x00\n        /* \"#utility.yul\":6600:6667   */\n      tag_240\n        /* \"#utility.yul\":6664:6666   */\n      0x21\n        /* \"#utility.yul\":6659:6662   */\n      dup4\n        /* \"#utility.yul\":6600:6667   */\n      tag_153\n      jump\t// in\n    tag_240:\n        /* \"#utility.yul\":6593:6667   */\n      swap2\n      pop\n        /* \"#utility.yul\":6676:6769   */\n      tag_241\n        /* \"#utility.yul\":6765:6768   */\n      dup3\n        /* \"#utility.yul\":6676:6769   */\n      tag_156\n      jump\t// in\n    tag_241:\n        /* \"#utility.yul\":6794:6796   */\n      0x40\n        /* \"#utility.yul\":6789:6792   */\n      dup3\n        /* \"#utility.yul\":6785:6797   */\n      add\n        /* \"#utility.yul\":6778:6797   */\n      swap1\n      pop\n        /* \"#utility.yul\":6437:6803   */\n      swap2\n      swap1\n      pop\n      jump\t// out\n        /* \"#utility.yul\":6809:7228   */\n    tag_70:\n        /* \"#utility.yul\":6975:6979   */\n      0x00\n        /* \"#utility.yul\":7013:7015   */\n      0x20\n        /* \"#utility.yul\":7002:7011   */\n      dup3\n        /* \"#utility.yul\":6998:7016   */\n      add\n        /* \"#utility.yul\":6990:7016   */\n      swap1\n      pop\n        /* \"#utility.yul\":7062:7071   */\n      dup2\n        /* \"#utility.yul\":7056:7060   */\n      dup2\n        /* \"#utility.yul\":7052:7072   */\n      sub\n        /* \"#utility.yul\":7048:7049   */\n      0x00\n        /* \"#utility.yul\":7037:7046   */\n      dup4\n        /* \"#utility.yul\":7033:7050   */\n      add\n        /* \"#utility.yul\":7026:7073   */\n      mstore\n        /* \"#utility.yul\":7090:7221   */\n      tag_243\n        /* \"#utility.yul\":7216:7220   */\n      dup2\n        /* \"#utility.yul\":7090:7221   */\n      tag_157\n      jump\t// in\n    tag_243:\n        /* \"#utility.yul\":7082:7221   */\n      swap1\n      pop\n        /* \"#utility.yul\":6809:7228   */\n      swap2\n      swap1\n      pop\n      jump\t// out\n        /* \"#utility.yul\":7234:7414   */\n    tag_158:\n        /* \"#utility.yul\":7282:7359   */\n      0x4e487b7100000000000000000000000000000000000000000000000000000000\n        /* \"#utility.yul\":7279:7280   */\n      0x00\n        /* \"#utility.yul\":7272:7360   */\n      mstore\n        /* \"#utility.yul\":7379:7383   */\n      0x11\n        /* \"#utility.yul\":7376:7377   */\n      0x04\n        /* \"#utility.yul\":7369:7384   */\n      mstore\n        /* \"#utility.yul\":7403:7407   */\n      0x24\n        /* \"#utility.yul\":7400:7401   */\n      0x00\n        /* \"#utility.yul\":7393:7408   */\n      revert\n        /* \"#utility.yul\":7420:7587   */\n    tag_72:\n        /* \"#utility.yul\":7457:7460   */\n      0x00\n        /* \"#utility.yul\":7480:7502   */\n      tag_246\n        /* \"#utility.yul\":7496:7501   */\n      dup3\n        /* \"#utility.yul\":7480:7502   */\n      tag_147\n      jump\t// in\n    tag_246:\n        /* \"#utility.yul\":7471:7502   */\n      swap2\n      pop\n        /* \"#utility.yul\":7524:7528   */\n      0xff\n        /* \"#utility.yul\":7517:7522   */\n      dup3\n        /* \"#utility.yul\":7514:7529   */\n      sub\n        /* \"#utility.yul\":7511:7552   */\n      tag_247\n      jumpi\n        /* \"#utility.yul\":7532:7550   */\n      tag_248\n      tag_158\n      jump\t// in\n    tag_248:\n        /* \"#utility.yul\":7511:7552   */\n    tag_247:\n        /* \"#utility.yul\":7579:7580   */\n      0x01\n        /* \"#utility.yul\":7572:7577   */\n      dup3\n        /* \"#utility.yul\":7568:7581   */\n      add\n        /* \"#utility.yul\":7561:7581   */\n      swap1\n      pop\n        /* \"#utility.yul\":7420:7587   */\n      swap2\n      swap1\n      pop\n      jump\t// out\n        /* \"#utility.yul\":7593:7761   */\n    tag_159:\n        /* \"#utility.yul\":7733:7753   */\n      0x477561726469616e206e6f7420666f756e640000000000000000000000000000\n        /* \"#utility.yul\":7729:7730   */\n      0x00\n        /* \"#utility.yul\":7721:7727   */\n      dup3\n        /* \"#utility.yul\":7717:7731   */\n      add\n        /* \"#utility.yul\":7710:7754   */\n      mstore\n        /* \"#utility.yul\":7593:7761   */\n      pop\n      jump\t// out\n        /* \"#utility.yul\":7767:8133   */\n    tag_160:\n        /* \"#utility.yul\":7909:7912   */\n      0x00\n        /* \"#utility.yul\":7930:7997   */\n      tag_251\n        /* \"#utility.yul\":7994:7996   */\n      0x12\n        /* \"#utility.yul\":7989:7992   */\n      dup4\n        /* \"#utility.yul\":7930:7997   */\n      tag_153\n      jump\t// in\n    tag_251:\n        /* \"#utility.yul\":7923:7997   */\n      swap2\n      pop\n        /* \"#utility.yul\":8006:8099   */\n      tag_252\n        /* \"#utility.yul\":8095:8098   */\n      dup3\n        /* \"#utility.yul\":8006:8099   */\n      tag_159\n      jump\t// in\n    tag_252:\n        /* \"#utility.yul\":8124:8126   */\n      0x20\n        /* \"#utility.yul\":8119:8122   */\n      dup3\n        /* \"#utility.yul\":8115:8127   */\n      add\n        /* \"#utility.yul\":8108:8127   */\n      swap1\n      pop\n        /* \"#utility.yul\":7767:8133   */\n      swap2\n      swap1\n      pop\n      jump\t// out\n        /* \"#utility.yul\":8139:8558   */\n    tag_89:\n        /* \"#utility.yul\":8305:8309   */\n      0x00\n        /* \"#utility.yul\":8343:8345   */\n      0x20\n        /* \"#utility.yul\":8332:8341   */\n      dup3\n        /* \"#utility.yul\":8328:8346   */\n      add\n        /* \"#utility.yul\":8320:8346   */\n      swap1\n      pop\n        /* \"#utility.yul\":8392:8401   */\n      dup2\n        /* \"#utility.yul\":8386:8390   */\n      dup2\n        /* \"#utility.yul\":8382:8402   */\n      sub\n        /* \"#utility.yul\":8378:8379   */\n      0x00\n        /* \"#utility.yul\":8367:8376   */\n      dup4\n        /* \"#utility.yul\":8363:8380   */\n      add\n        /* \"#utility.yul\":8356:8403   */\n      mstore\n        /* \"#utility.yul\":8420:8551   */\n      tag_254\n        /* \"#utility.yul\":8546:8550   */\n      dup2\n        /* \"#utility.yul\":8420:8551   */\n      tag_160\n      jump\t// in\n    tag_254:\n        /* \"#utility.yul\":8412:8551   */\n      swap1\n      pop\n        /* \"#utility.yul\":8139:8558   */\n      swap2\n      swap1\n      pop\n      jump\t// out\n        /* \"#utility.yul\":8564:8732   */\n    tag_161:\n        /* \"#utility.yul\":8704:8724   */\n      0x496e73756666696369656e742066756e64730000000000000000000000000000\n        /* \"#utility.yul\":8700:8701   */\n      0x00\n        /* \"#utility.yul\":8692:8698   */\n      dup3\n        /* \"#utility.yul\":8688:8702   */\n      add\n        /* \"#utility.yul\":8681:8725   */\n      mstore\n        /* \"#utility.yul\":8564:8732   */\n      pop\n      jump\t// out\n        /* \"#utility.yul\":8738:9104   */\n    tag_162:\n        /* \"#utility.yul\":8880:8883   */\n      0x00\n        /* \"#utility.yul\":8901:8968   */\n      tag_257\n        /* \"#utility.yul\":8965:8967   */\n      0x12\n        /* \"#utility.yul\":8960:8963   */\n      dup4\n        /* \"#utility.yul\":8901:8968   */\n      tag_153\n      jump\t// in\n    tag_257:\n        /* \"#utility.yul\":8894:8968   */\n      swap2\n      pop\n        /* \"#utility.yul\":8977:9070   */\n      tag_258\n        /* \"#utility.yul\":9066:9069   */\n      dup3\n        /* \"#utility.yul\":8977:9070   */\n      tag_161\n      jump\t// in\n    tag_258:\n        /* \"#utility.yul\":9095:9097   */\n      0x20\n        /* \"#utility.yul\":9090:9093   */\n      dup3\n        /* \"#utility.yul\":9086:9098   */\n      add\n        /* \"#utility.yul\":9079:9098   */\n      swap1\n      pop\n        /* \"#utility.yul\":8738:9104   */\n      swap2\n      swap1\n      pop\n      jump\t// out\n        /* \"#utility.yul\":9110:9529   */\n    tag_96:\n        /* \"#utility.yul\":9276:9280   */\n      0x00\n        /* \"#utility.yul\":9314:9316   */\n      0x20\n        /* \"#utility.yul\":9303:9312   */\n      dup3\n        /* \"#utility.yul\":9299:9317   */\n      add\n        /* \"#utility.yul\":9291:9317   */\n      swap1\n      pop\n        /* \"#utility.yul\":9363:9372   */\n      dup2\n        /* \"#utility.yul\":9357:9361   */\n      dup2\n        /* \"#utility.yul\":9353:9373   */\n      sub\n        /* \"#utility.yul\":9349:9350   */\n      0x00\n        /* \"#utility.yul\":9338:9347   */\n      dup4\n        /* \"#utility.yul\":9334:9351   */\n      add\n        /* \"#utility.yul\":9327:9374   */\n      mstore\n        /* \"#utility.yul\":9391:9522   */\n      tag_260\n        /* \"#utility.yul\":9517:9521   */\n      dup2\n        /* \"#utility.yul\":9391:9522   */\n      tag_162\n      jump\t// in\n    tag_260:\n        /* \"#utility.yul\":9383:9522   */\n      swap1\n      pop\n        /* \"#utility.yul\":9110:9529   */\n      swap2\n      swap1\n      pop\n      jump\t// out\n        /* \"#utility.yul\":9535:9709   */\n    tag_163:\n        /* \"#utility.yul\":9675:9701   */\n      0x416d6f756e74206578636565647320616c6c6f77616e63650000000000000000\n        /* \"#utility.yul\":9671:9672   */\n      0x00\n        /* \"#utility.yul\":9663:9669   */\n      dup3\n        /* \"#utility.yul\":9659:9673   */\n      add\n        /* \"#utility.yul\":9652:9702   */\n      mstore\n        /* \"#utility.yul\":9535:9709   */\n      pop\n      jump\t// out\n        /* \"#utility.yul\":9715:10081   */\n    tag_164:\n        /* \"#utility.yul\":9857:9860   */\n      0x00\n        /* \"#utility.yul\":9878:9945   */\n      tag_263\n        /* \"#utility.yul\":9942:9944   */\n      0x18\n        /* \"#utility.yul\":9937:9940   */\n      dup4\n        /* \"#utility.yul\":9878:9945   */\n      tag_153\n      jump\t// in\n    tag_263:\n        /* \"#utility.yul\":9871:9945   */\n      swap2\n      pop\n        /* \"#utility.yul\":9954:10047   */\n      tag_264\n        /* \"#utility.yul\":10043:10046   */\n      dup3\n        /* \"#utility.yul\":9954:10047   */\n      tag_163\n      jump\t// in\n    tag_264:\n        /* \"#utility.yul\":10072:10074   */\n      0x20\n        /* \"#utility.yul\":10067:10070   */\n      dup3\n        /* \"#utility.yul\":10063:10075   */\n      add\n        /* \"#utility.yul\":10056:10075   */\n      swap1\n      pop\n        /* \"#utility.yul\":9715:10081   */\n      swap2\n      swap1\n      pop\n      jump\t// out\n        /* \"#utility.yul\":10087:10506   */\n    tag_100:\n        /* \"#utility.yul\":10253:10257   */\n      0x00\n        /* \"#utility.yul\":10291:10293   */\n      0x20\n        /* \"#utility.yul\":10280:10289   */\n      dup3\n        /* \"#utility.yul\":10276:10294   */\n      add\n        /* \"#utility.yul\":10268:10294   */\n      swap1\n      pop\n        /* \"#utility.yul\":10340:10349   */\n      dup2\n        /* \"#utility.yul\":10334:10338   */\n      dup2\n        /* \"#utility.yul\":10330:10350   */\n      sub\n        /* \"#utility.yul\":10326:10327   */\n      0x00\n        /* \"#utility.yul\":10315:10324   */\n      dup4\n        /* \"#utility.yul\":10311:10328   */\n      add\n        /* \"#utility.yul\":10304:10351   */\n      mstore\n        /* \"#utility.yul\":10368:10499   */\n      tag_266\n        /* \"#utility.yul\":10494:10498   */\n      dup2\n        /* \"#utility.yul\":10368:10499   */\n      tag_164\n      jump\t// in\n    tag_266:\n        /* \"#utility.yul\":10360:10499   */\n      swap1\n      pop\n        /* \"#utility.yul\":10087:10506   */\n      swap2\n      swap1\n      pop\n      jump\t// out\n        /* \"#utility.yul\":10512:10706   */\n    tag_103:\n        /* \"#utility.yul\":10552:10556   */\n      0x00\n        /* \"#utility.yul\":10572:10592   */\n      tag_268\n        /* \"#utility.yul\":10590:10591   */\n      dup3\n        /* \"#utility.yul\":10572:10592   */\n      tag_143\n      jump\t// in\n    tag_268:\n        /* \"#utility.yul\":10567:10592   */\n      swap2\n      pop\n        /* \"#utility.yul\":10606:10626   */\n      tag_269\n        /* \"#utility.yul\":10624:10625   */\n      dup4\n        /* \"#utility.yul\":10606:10626   */\n      tag_143\n      jump\t// in\n    tag_269:\n        /* \"#utility.yul\":10601:10626   */\n      swap3\n      pop\n        /* \"#utility.yul\":10650:10651   */\n      dup3\n        /* \"#utility.yul\":10647:10648   */\n      dup3\n        /* \"#utility.yul\":10643:10652   */\n      sub\n        /* \"#utility.yul\":10635:10652   */\n      swap1\n      pop\n        /* \"#utility.yul\":10674:10675   */\n      dup2\n        /* \"#utility.yul\":10668:10672   */\n      dup2\n        /* \"#utility.yul\":10665:10676   */\n      gt\n        /* \"#utility.yul\":10662:10699   */\n      iszero\n      tag_270\n      jumpi\n        /* \"#utility.yul\":10679:10697   */\n      tag_271\n      tag_158\n      jump\t// in\n    tag_271:\n        /* \"#utility.yul\":10662:10699   */\n    tag_270:\n        /* \"#utility.yul\":10512:10706   */\n      swap3\n      swap2\n      pop\n      pop\n      jump\t// out\n        /* \"#utility.yul\":10712:10888   */\n    tag_165:\n        /* \"#utility.yul\":10852:10880   */\n      0x4f6e6c7920677561726469616e732063616e20617070726f7665000000000000\n        /* \"#utility.yul\":10848:10849   */\n      0x00\n        /* \"#utility.yul\":10840:10846   */\n      dup3\n        /* \"#utility.yul\":10836:10850   */\n      add\n        /* \"#utility.yul\":10829:10881   */\n      mstore\n        /* \"#utility.yul\":10712:10888   */\n      pop\n      jump\t// out\n        /* \"#utility.yul\":10894:11260   */\n    tag_166:\n        /* \"#utility.yul\":11036:11039   */\n      0x00\n        /* \"#utility.yul\":11057:11124   */\n      tag_274\n        /* \"#utility.yul\":11121:11123   */\n      0x1a\n        /* \"#utility.yul\":11116:11119   */\n      dup4\n        /* \"#utility.yul\":11057:11124   */\n      tag_153\n      jump\t// in\n    tag_274:\n        /* \"#utility.yul\":11050:11124   */\n      swap2\n      pop\n        /* \"#utility.yul\":11133:11226   */\n      tag_275\n        /* \"#utility.yul\":11222:11225   */\n      dup3\n        /* \"#utility.yul\":11133:11226   */\n      tag_165\n      jump\t// in\n    tag_275:\n        /* \"#utility.yul\":11251:11253   */\n      0x20\n        /* \"#utility.yul\":11246:11249   */\n      dup3\n        /* \"#utility.yul\":11242:11254   */\n      add\n        /* \"#utility.yul\":11235:11254   */\n      swap1\n      pop\n        /* \"#utility.yul\":10894:11260   */\n      swap2\n      swap1\n      pop\n      jump\t// out\n        /* \"#utility.yul\":11266:11685   */\n    tag_117:\n        /* \"#utility.yul\":11432:11436   */\n      0x00\n        /* \"#utility.yul\":11470:11472   */\n      0x20\n        /* \"#utility.yul\":11459:11468   */\n      dup3\n        /* \"#utility.yul\":11455:11473   */\n      add\n        /* \"#utility.yul\":11447:11473   */\n      swap1\n      pop\n        /* \"#utility.yul\":11519:11528   */\n      dup2\n        /* \"#utility.yul\":11513:11517   */\n      dup2\n        /* \"#utility.yul\":11509:11529   */\n      sub\n        /* \"#utility.yul\":11505:11506   */\n      0x00\n        /* \"#utility.yul\":11494:11503   */\n      dup4\n        /* \"#utility.yul\":11490:11507   */\n      add\n        /* \"#utility.yul\":11483:11530   */\n      mstore\n        /* \"#utility.yul\":11547:11678   */\n      tag_277\n        /* \"#utility.yul\":11673:11677   */\n      dup2\n        /* \"#utility.yul\":11547:11678   */\n      tag_166\n      jump\t// in\n    tag_277:\n        /* \"#utility.yul\":11539:11678   */\n      swap1\n      pop\n        /* \"#utility.yul\":11266:11685   */\n      swap2\n      swap1\n      pop\n      jump\t// out\n        /* \"#utility.yul\":11691:11870   */\n    tag_167:\n        /* \"#utility.yul\":11831:11862   */\n      0x477561726469616e2068617320616c726561647920617070726f766564000000\n        /* \"#utility.yul\":11827:11828   */\n      0x00\n        /* \"#utility.yul\":11819:11825   */\n      dup3\n        /* \"#utility.yul\":11815:11829   */\n      add\n        /* \"#utility.yul\":11808:11863   */\n      mstore\n        /* \"#utility.yul\":11691:11870   */\n      pop\n      jump\t// out\n        /* \"#utility.yul\":11876:12242   */\n    tag_168:\n        /* \"#utility.yul\":12018:12021   */\n      0x00\n        /* \"#utility.yul\":12039:12106   */\n      tag_280\n        /* \"#utility.yul\":12103:12105   */\n      0x1d\n        /* \"#utility.yul\":12098:12101   */\n      dup4\n        /* \"#utility.yul\":12039:12106   */\n      tag_153\n      jump\t// in\n    tag_280:\n        /* \"#utility.yul\":12032:12106   */\n      swap2\n      pop\n        /* \"#utility.yul\":12115:12208   */\n      tag_281\n        /* \"#utility.yul\":12204:12207   */\n      dup3\n        /* \"#utility.yul\":12115:12208   */\n      tag_167\n      jump\t// in\n    tag_281:\n        /* \"#utility.yul\":12233:12235   */\n      0x20\n        /* \"#utility.yul\":12228:12231   */\n      dup3\n        /* \"#utility.yul\":12224:12236   */\n      add\n        /* \"#utility.yul\":12217:12236   */\n      swap1\n      pop\n        /* \"#utility.yul\":11876:12242   */\n      swap2\n      swap1\n      pop\n      jump\t// out\n        /* \"#utility.yul\":12248:12667   */\n    tag_120:\n        /* \"#utility.yul\":12414:12418   */\n      0x00\n        /* \"#utility.yul\":12452:12454   */\n      0x20\n        /* \"#utility.yul\":12441:12450   */\n      dup3\n        /* \"#utility.yul\":12437:12455   */\n      add\n        /* \"#utility.yul\":12429:12455   */\n      swap1\n      pop\n        /* \"#utility.yul\":12501:12510   */\n      dup2\n        /* \"#utility.yul\":12495:12499   */\n      dup2\n        /* \"#utility.yul\":12491:12511   */\n      sub\n        /* \"#utility.yul\":12487:12488   */\n      0x00\n        /* \"#utility.yul\":12476:12485   */\n      dup4\n        /* \"#utility.yul\":12472:12489   */\n      add\n        /* \"#utility.yul\":12465:12512   */\n      mstore\n        /* \"#utility.yul\":12529:12660   */\n      tag_283\n        /* \"#utility.yul\":12655:12659   */\n      dup2\n        /* \"#utility.yul\":12529:12660   */\n      tag_168\n      jump\t// in\n    tag_283:\n        /* \"#utility.yul\":12521:12660   */\n      swap1\n      pop\n        /* \"#utility.yul\":12248:12667   */\n      swap2\n      swap1\n      pop\n      jump\t// out\n\n    auxdata: 0xa2646970667358221220bdfc6e46fdc1324ef26f0cd103f16f0ff76c90699066e81e18c761e52750de5e64736f6c63430008120033\n}\n",
				"bytecode": {
					"linkReferences": {},
					"object": "60806040523480156200001157600080fd5b50604051620019513803806200195183398181016040528101906200003791906200059b565b836000806101000a81548173ffffffffffffffffffffffffffffffffffffffff021916908373ffffffffffffffffffffffffffffffffffffffff1602179055508260029060056200008a92919062000137565b5060005b82518110156200012c57818181518110620000ae57620000ad6200064c565b5b602002602001015160016000858481518110620000d057620000cf6200064c565b5b602002602001015173ffffffffffffffffffffffffffffffffffffffff1673ffffffffffffffffffffffffffffffffffffffff1681526020019081526020016000208190555080806200012390620006aa565b9150506200008e565b5050505050620006f7565b8260058101928215620001a6579160200282015b82811115620001a55782518260006101000a81548173ffffffffffffffffffffffffffffffffffffffff021916908373ffffffffffffffffffffffffffffffffffffffff160217905550916020019190600101906200014b565b5b509050620001b59190620001b9565b5090565b5b80821115620001d4576000816000905550600101620001ba565b5090565b6000604051905090565b600080fd5b600080fd5b600073ffffffffffffffffffffffffffffffffffffffff82169050919050565b60006200021982620001ec565b9050919050565b6200022b816200020c565b81146200023757600080fd5b50565b6000815190506200024b8162000220565b92915050565b600080fd5b6000601f19601f8301169050919050565b7f4e487b7100000000000000000000000000000000000000000000000000000000600052604160045260246000fd5b620002a18262000256565b810181811067ffffffffffffffff82111715620002c357620002c262000267565b5b80604052505050565b6000620002d8620001d8565b9050620002e6828262000296565b919050565b600067ffffffffffffffff82111562000309576200030862000267565b5b602082029050919050565b600080fd5b6000620003306200032a84620002eb565b620002cc565b905080602084028301858111156200034d576200034c62000314565b5b835b818110156200037a57806200036588826200023a565b8452602084019350506020810190506200034f565b5050509392505050565b600082601f8301126200039c576200039b62000251565b5b6005620003ab84828562000319565b91505092915050565b600067ffffffffffffffff821115620003d257620003d162000267565b5b602082029050602081019050919050565b6000620003fa620003f484620003b4565b620002cc565b9050808382526020820190506020840283018581111562000420576200041f62000314565b5b835b818110156200044d57806200043888826200023a565b84526020840193505060208101905062000422565b5050509392505050565b600082601f8301126200046f576200046e62000251565b5b815162000481848260208601620003e3565b91505092915050565b600067ffffffffffffffff821115620004a857620004a762000267565b5b602082029050602081019050919050565b6000819050919050565b620004ce81620004b9565b8114620004da57600080fd5b50565b600081519050620004ee81620004c3565b92915050565b60006200050b62000505846200048a565b620002cc565b9050808382526020820190506020840283018581111562000531576200053062000314565b5b835b818110156200055e5780620005498882620004dd565b84526020840193505060208101905062000533565b5050509392505050565b600082601f83011262000580576200057f62000251565b5b815162000592848260208601620004f4565b91505092915050565b6000806000806101008587031215620005b957620005b8620001e2565b5b6000620005c9878288016200023a565b9450506020620005dc8782880162000384565b93505060c085015167ffffffffffffffff8111156200060057620005ff620001e7565b5b6200060e8782880162000457565b92505060e085015167ffffffffffffffff811115620006325762000631620001e7565b5b620006408782880162000568565b91505092959194509250565b7f4e487b7100000000000000000000000000000000000000000000000000000000600052603260045260246000fd5b7f4e487b7100000000000000000000000000000000000000000000000000000000600052601160045260246000fd5b6000620006b782620004b9565b91507fffffffffffffffffffffffffffffffffffffffffffffffffffffffffffffffff8203620006ec57620006eb6200067b565b5b600182019050919050565b61124a80620007076000396000f3fe6080604052600436106100865760003560e01c80638da5cb5b116100595780638da5cb5b14610145578063af7d6ca314610170578063c1400d3f14610199578063d0e30db0146101c2578063f560c734146101cc57610086565b80632b603c711461008b578063310ec4a7146100c85780636884d0a6146100f157806383b40cc91461011c575b600080fd5b34801561009757600080fd5b506100b260048036038101906100ad9190610c15565b610209565b6040516100bf9190610c5b565b60405180910390f35b3480156100d457600080fd5b506100ef60048036038101906100ea9190610ca2565b610221565b005b3480156100fd57600080fd5b506101066103c0565b6040516101139190610cfe565b60405180910390f35b34801561012857600080fd5b50610143600480360381019061013e9190610d19565b6103d3565b005b34801561015157600080fd5b5061015a61058b565b6040516101679190610d68565b60405180910390f35b34801561017c57600080fd5b5061019760048036038101906101929190610dc1565b6105af565b005b3480156101a557600080fd5b506101c060048036038101906101bb9190610c15565b61084d565b005b6101ca610aa9565b005b3480156101d857600080fd5b506101f360048036038101906101ee9190610e01565b610aab565b6040516102009190610d68565b60405180910390f35b60016020528060005260406000206000915090505481565b60008054906101000a900473ffffffffffffffffffffffffffffffffffffffff1673ffffffffffffffffffffffffffffffffffffffff163373ffffffffffffffffffffffffffffffffffffffff16146102af576040517f08c379a00000000000000000000000000000000000000000000000000000000081526004016102a690610e8b565b60405180910390fd5b60005b60058160ff1610156103775760028160ff16600581106102d5576102d4610eab565b5b0160009054906101000a900473ffffffffffffffffffffffffffffffffffffffff1673ffffffffffffffffffffffffffffffffffffffff168373ffffffffffffffffffffffffffffffffffffffff1603610364576040517f08c379a000000000000000000000000000000000000000000000000000000000815260040161035b90610f4c565b60405180910390fd5b808061036f90610f9b565b9150506102b2565b5080600160008473ffffffffffffffffffffffffffffffffffffffff1673ffffffffffffffffffffffffffffffffffffffff168152602001908152602001600020819055505050565b600860009054906101000a900460ff1681565b60008054906101000a900473ffffffffffffffffffffffffffffffffffffffff1673ffffffffffffffffffffffffffffffffffffffff163373ffffffffffffffffffffffffffffffffffffffff1614610461576040517f08c379a000000000000000000000000000000000000000000000000000000000815260040161045890610e8b565b60405180910390fd5b60005b60058160ff16101561054b578273ffffffffffffffffffffffffffffffffffffffff1660028260ff166005811061049e5761049d610eab565b5b0160009054906101000a900473ffffffffffffffffffffffffffffffffffffffff1673ffffffffffffffffffffffffffffffffffffffff1603610538578160028260ff16600581106104f3576104f2610eab565b5b0160006101000a81548173ffffffffffffffffffffffffffffffffffffffff021916908373ffffffffffffffffffffffffffffffffffffffff16021790555050610587565b808061054390610f9b565b915050610464565b506040517f08c379a000000000000000000000000000000000000000000000000000000000815260040161057e90611010565b60405180910390fd5b5050565b60008054906101000a900473ffffffffffffffffffffffffffffffffffffffff1681565b60008054906101000a900473ffffffffffffffffffffffffffffffffffffffff1673ffffffffffffffffffffffffffffffffffffffff163373ffffffffffffffffffffffffffffffffffffffff161461063d576040517f08c379a000000000000000000000000000000000000000000000000000000000815260040161063490610e8b565b60405180910390fd5b80471015610680576040517f08c379a00000000000000000000000000000000000000000000000000000000081526004016106779061107c565b60405180910390fd5b80600160008473ffffffffffffffffffffffffffffffffffffffff1673ffffffffffffffffffffffffffffffffffffffff16815260200190815260200160002054101580610719575060008054906101000a900473ffffffffffffffffffffffffffffffffffffffff1673ffffffffffffffffffffffffffffffffffffffff168273ffffffffffffffffffffffffffffffffffffffff16145b610758576040517f08c379a000000000000000000000000000000000000000000000000000000000815260040161074f906110e8565b60405180910390fd5b60008054906101000a900473ffffffffffffffffffffffffffffffffffffffff1673ffffffffffffffffffffffffffffffffffffffff168273ffffffffffffffffffffffffffffffffffffffff16146108025780600160008473ffffffffffffffffffffffffffffffffffffffff1673ffffffffffffffffffffffffffffffffffffffff16815260200190815260200160002060008282546107fa9190611108565b925050819055505b8173ffffffffffffffffffffffffffffffffffffffff166108fc829081150290604051600060405180830381858888f19350505050158015610848573d6000803e3d6000fd5b505050565b6000805b60058160ff1610156108e4573373ffffffffffffffffffffffffffffffffffffffff1660028260ff166005811061088b5761088a610eab565b5b0160009054906101000a900473ffffffffffffffffffffffffffffffffffffffff1673ffffffffffffffffffffffffffffffffffffffff16036108d157600191506108e4565b80806108dc90610f9b565b915050610851565b5080610925576040517f08c379a000000000000000000000000000000000000000000000000000000000815260040161091c90611188565b60405180910390fd5b600760003373ffffffffffffffffffffffffffffffffffffffff1673ffffffffffffffffffffffffffffffffffffffff16815260200190815260200160002060009054906101000a900460ff16156109b2576040517f08c379a00000000000000000000000000000000000000000000000000000000081526004016109a9906111f4565b60405180910390fd5b6001600760003373ffffffffffffffffffffffffffffffffffffffff1673ffffffffffffffffffffffffffffffffffffffff16815260200190815260200160002060006101000a81548160ff0219169083151502179055506008600081819054906101000a900460ff1680929190610a2990610f9b565b91906101000a81548160ff021916908360ff160217905550506003600860009054906101000a900460ff1660ff1610610aa557816000806101000a81548173ffffffffffffffffffffffffffffffffffffffff021916908373ffffffffffffffffffffffffffffffffffffffff160217905550610aa4610ae1565b5b5050565b565b60028160058110610abb57600080fd5b016000915054906101000a900473ffffffffffffffffffffffffffffffffffffffff1681565b60005b60058160ff161015610b935760006007600060028460ff1660058110610b0d57610b0c610eab565b5b0160009054906101000a900473ffffffffffffffffffffffffffffffffffffffff1673ffffffffffffffffffffffffffffffffffffffff1673ffffffffffffffffffffffffffffffffffffffff16815260200190815260200160002060006101000a81548160ff0219169083151502179055508080610b8b90610f9b565b915050610ae4565b506000600860006101000a81548160ff021916908360ff160217905550565b600080fd5b600073ffffffffffffffffffffffffffffffffffffffff82169050919050565b6000610be282610bb7565b9050919050565b610bf281610bd7565b8114610bfd57600080fd5b50565b600081359050610c0f81610be9565b92915050565b600060208284031215610c2b57610c2a610bb2565b5b6000610c3984828501610c00565b91505092915050565b6000819050919050565b610c5581610c42565b82525050565b6000602082019050610c706000830184610c4c565b92915050565b610c7f81610c42565b8114610c8a57600080fd5b50565b600081359050610c9c81610c76565b92915050565b60008060408385031215610cb957610cb8610bb2565b5b6000610cc785828601610c00565b9250506020610cd885828601610c8d565b9150509250929050565b600060ff82169050919050565b610cf881610ce2565b82525050565b6000602082019050610d136000830184610cef565b92915050565b60008060408385031215610d3057610d2f610bb2565b5b6000610d3e85828601610c00565b9250506020610d4f85828601610c00565b9150509250929050565b610d6281610bd7565b82525050565b6000602082019050610d7d6000830184610d59565b92915050565b6000610d8e82610bb7565b9050919050565b610d9e81610d83565b8114610da957600080fd5b50565b600081359050610dbb81610d95565b92915050565b60008060408385031215610dd857610dd7610bb2565b5b6000610de685828601610dac565b9250506020610df785828601610c8d565b9150509250929050565b600060208284031215610e1757610e16610bb2565b5b6000610e2584828501610c8d565b91505092915050565b600082825260208201905092915050565b7f4f6e6c79206f776e65722063616e2063616c6c20746869732e00000000000000600082015250565b6000610e75601983610e2e565b9150610e8082610e3f565b602082019050919050565b60006020820190508181036000830152610ea481610e68565b9050919050565b7f4e487b7100000000000000000000000000000000000000000000000000000000600052603260045260246000fd5b7f477561726469616e2063616e6e6f74207265636569766520616c6c6f77616e6360008201527f6500000000000000000000000000000000000000000000000000000000000000602082015250565b6000610f36602183610e2e565b9150610f4182610eda565b604082019050919050565b60006020820190508181036000830152610f6581610f29565b9050919050565b7f4e487b7100000000000000000000000000000000000000000000000000000000600052601160045260246000fd5b6000610fa682610ce2565b915060ff8203610fb957610fb8610f6c565b5b600182019050919050565b7f477561726469616e206e6f7420666f756e640000000000000000000000000000600082015250565b6000610ffa601283610e2e565b915061100582610fc4565b602082019050919050565b6000602082019050818103600083015261102981610fed565b9050919050565b7f496e73756666696369656e742066756e64730000000000000000000000000000600082015250565b6000611066601283610e2e565b915061107182611030565b602082019050919050565b6000602082019050818103600083015261109581611059565b9050919050565b7f416d6f756e74206578636565647320616c6c6f77616e63650000000000000000600082015250565b60006110d2601883610e2e565b91506110dd8261109c565b602082019050919050565b60006020820190508181036000830152611101816110c5565b9050919050565b600061111382610c42565b915061111e83610c42565b925082820390508181111561113657611135610f6c565b5b92915050565b7f4f6e6c7920677561726469616e732063616e20617070726f7665000000000000600082015250565b6000611172601a83610e2e565b915061117d8261113c565b602082019050919050565b600060208201905081810360008301526111a181611165565b9050919050565b7f477561726469616e2068617320616c726561647920617070726f766564000000600082015250565b60006111de601d83610e2e565b91506111e9826111a8565b602082019050919050565b6000602082019050818103600083015261120d816111d1565b905091905056fea2646970667358221220bdfc6e46fdc1324ef26f0cd103f16f0ff76c90699066e81e18c761e52750de5e64736f6c63430008120033",
					"opcodes": "PUSH1 0x80 PUSH1 0x40 MSTORE CALLVALUE DUP1 ISZERO PUSH3 0x11 JUMPI PUSH1 0x0 DUP1 REVERT JUMPDEST POP PUSH1 0x40 MLOAD PUSH3 0x1951 CODESIZE SUB DUP1 PUSH3 0x1951 DUP4 CODECOPY DUP2 DUP2 ADD PUSH1 0x40 MSTORE DUP2 ADD SWAP1 PUSH3 0x37 SWAP2 SWAP1 PUSH3 0x59B JUMP JUMPDEST DUP4 PUSH1 0x0 DUP1 PUSH2 0x100 EXP DUP2 SLOAD DUP2 PUSH20 0xFFFFFFFFFFFFFFFFFFFFFFFFFFFFFFFFFFFFFFFF MUL NOT AND SWAP1 DUP4 PUSH20 0xFFFFFFFFFFFFFFFFFFFFFFFFFFFFFFFFFFFFFFFF AND MUL OR SWAP1 SSTORE POP DUP3 PUSH1 0x2 SWAP1 PUSH1 0x5 PUSH3 0x8A SWAP3 SWAP2 SWAP1 PUSH3 0x137 JUMP JUMPDEST POP PUSH1 0x0 JUMPDEST DUP3 MLOAD DUP2 LT ISZERO PUSH3 0x12C JUMPI DUP2 DUP2 DUP2 MLOAD DUP2 LT PUSH3 0xAE JUMPI PUSH3 0xAD PUSH3 0x64C JUMP JUMPDEST JUMPDEST PUSH1 0x20 MUL PUSH1 0x20 ADD ADD MLOAD PUSH1 0x1 PUSH1 0x0 DUP6 DUP5 DUP2 MLOAD DUP2 LT PUSH3 0xD0 JUMPI PUSH3 0xCF PUSH3 0x64C JUMP JUMPDEST JUMPDEST PUSH1 0x20 MUL PUSH1 0x20 ADD ADD MLOAD PUSH20 0xFFFFFFFFFFFFFFFFFFFFFFFFFFFFFFFFFFFFFFFF AND PUSH20 0xFFFFFFFFFFFFFFFFFFFFFFFFFFFFFFFFFFFFFFFF AND DUP2 MSTORE PUSH1 0x20 ADD SWAP1 DUP2 MSTORE PUSH1 0x20 ADD PUSH1 0x0 KECCAK256 DUP2 SWAP1 SSTORE POP DUP1 DUP1 PUSH3 0x123 SWAP1 PUSH3 0x6AA JUMP JUMPDEST SWAP2 POP POP PUSH3 0x8E JUMP JUMPDEST POP POP POP POP POP PUSH3 0x6F7 JUMP JUMPDEST DUP3 PUSH1 0x5 DUP2 ADD SWAP3 DUP3 ISZERO PUSH3 0x1A6 JUMPI SWAP2 PUSH1 0x20 MUL DUP3 ADD JUMPDEST DUP3 DUP2 GT ISZERO PUSH3 0x1A5 JUMPI DUP3 MLOAD DUP3 PUSH1 0x0 PUSH2 0x100 EXP DUP2 SLOAD DUP2 PUSH20 0xFFFFFFFFFFFFFFFFFFFFFFFFFFFFFFFFFFFFFFFF MUL NOT AND SWAP1 DUP4 PUSH20 0xFFFFFFFFFFFFFFFFFFFFFFFFFFFFFFFFFFFFFFFF AND MUL OR SWAP1 SSTORE POP SWAP2 PUSH1 0x20 ADD SWAP2 SWAP1 PUSH1 0x1 ADD SWAP1 PUSH3 0x14B JUMP JUMPDEST JUMPDEST POP SWAP1 POP PUSH3 0x1B5 SWAP2 SWAP1 PUSH3 0x1B9 JUMP JUMPDEST POP SWAP1 JUMP JUMPDEST JUMPDEST DUP1 DUP3 GT ISZERO PUSH3 0x1D4 JUMPI PUSH1 0x0 DUP2 PUSH1 0x0 SWAP1 SSTORE POP PUSH1 0x1 ADD PUSH3 0x1BA JUMP JUMPDEST POP SWAP1 JUMP JUMPDEST PUSH1 0x0 PUSH1 0x40 MLOAD SWAP1 POP SWAP1 JUMP JUMPDEST PUSH1 0x0 DUP1 REVERT JUMPDEST PUSH1 0x0 DUP1 REVERT JUMPDEST PUSH1 0x0 PUSH20 0xFFFFFFFFFFFFFFFFFFFFFFFFFFFFFFFFFFFFFFFF DUP3 AND SWAP1 POP SWAP2 SWAP1 POP JUMP JUMPDEST PUSH1 0x0 PUSH3 0x219 DUP3 PUSH3 0x1EC JUMP JUMPDEST SWAP1 POP SWAP2 SWAP1 POP JUMP JUMPDEST PUSH3 0x22B DUP2 PUSH3 0x20C JUMP JUMPDEST DUP2 EQ PUSH3 0x237 JUMPI PUSH1 0x0 DUP1 REVERT JUMPDEST POP JUMP JUMPDEST PUSH1 0x0 DUP2 MLOAD SWAP1 POP PUSH3 0x24B DUP2 PUSH3 0x220 JUMP JUMPDEST SWAP3 SWAP2 POP POP JUMP JUMPDEST PUSH1 0x0 DUP1 REVERT JUMPDEST PUSH1 0x0 PUSH1 0x1F NOT PUSH1 0x1F DUP4 ADD AND SWAP1 POP SWAP2 SWAP1 POP JUMP JUMPDEST PUSH32 0x4E487B7100000000000000000000000000000000000000000000000000000000 PUSH1 0x0 MSTORE PUSH1 0x41 PUSH1 0x4 MSTORE PUSH1 0x24 PUSH1 0x0 REVERT JUMPDEST PUSH3 0x2A1 DUP3 PUSH3 0x256 JUMP JUMPDEST DUP2 ADD DUP2 DUP2 LT PUSH8 0xFFFFFFFFFFFFFFFF DUP3 GT OR ISZERO PUSH3 0x2C3 JUMPI PUSH3 0x2C2 PUSH3 0x267 JUMP JUMPDEST JUMPDEST DUP1 PUSH1 0x40 MSTORE POP POP POP JUMP JUMPDEST PUSH1 0x0 PUSH3 0x2D8 PUSH3 0x1D8 JUMP JUMPDEST SWAP1 POP PUSH3 0x2E6 DUP3 DUP3 PUSH3 0x296 JUMP JUMPDEST SWAP2 SWAP1 POP JUMP JUMPDEST PUSH1 0x0 PUSH8 0xFFFFFFFFFFFFFFFF DUP3 GT ISZERO PUSH3 0x309 JUMPI PUSH3 0x308 PUSH3 0x267 JUMP JUMPDEST JUMPDEST PUSH1 0x20 DUP3 MUL SWAP1 POP SWAP2 SWAP1 POP JUMP JUMPDEST PUSH1 0x0 DUP1 REVERT JUMPDEST PUSH1 0x0 PUSH3 0x330 PUSH3 0x32A DUP5 PUSH3 0x2EB JUMP JUMPDEST PUSH3 0x2CC JUMP JUMPDEST SWAP1 POP DUP1 PUSH1 0x20 DUP5 MUL DUP4 ADD DUP6 DUP2 GT ISZERO PUSH3 0x34D JUMPI PUSH3 0x34C PUSH3 0x314 JUMP JUMPDEST JUMPDEST DUP4 JUMPDEST DUP2 DUP2 LT ISZERO PUSH3 0x37A JUMPI DUP1 PUSH3 0x365 DUP9 DUP3 PUSH3 0x23A JUMP JUMPDEST DUP5 MSTORE PUSH1 0x20 DUP5 ADD SWAP4 POP POP PUSH1 0x20 DUP2 ADD SWAP1 POP PUSH3 0x34F JUMP JUMPDEST POP POP POP SWAP4 SWAP3 POP POP POP JUMP JUMPDEST PUSH1 0x0 DUP3 PUSH1 0x1F DUP4 ADD SLT PUSH3 0x39C JUMPI PUSH3 0x39B PUSH3 0x251 JUMP JUMPDEST JUMPDEST PUSH1 0x5 PUSH3 0x3AB DUP5 DUP3 DUP6 PUSH3 0x319 JUMP JUMPDEST SWAP2 POP POP SWAP3 SWAP2 POP POP JUMP JUMPDEST PUSH1 0x0 PUSH8 0xFFFFFFFFFFFFFFFF DUP3 GT ISZERO PUSH3 0x3D2 JUMPI PUSH3 0x3D1 PUSH3 0x267 JUMP JUMPDEST JUMPDEST PUSH1 0x20 DUP3 MUL SWAP1 POP PUSH1 0x20 DUP2 ADD SWAP1 POP SWAP2 SWAP1 POP JUMP JUMPDEST PUSH1 0x0 PUSH3 0x3FA PUSH3 0x3F4 DUP5 PUSH3 0x3B4 JUMP JUMPDEST PUSH3 0x2CC JUMP JUMPDEST SWAP1 POP DUP1 DUP4 DUP3 MSTORE PUSH1 0x20 DUP3 ADD SWAP1 POP PUSH1 0x20 DUP5 MUL DUP4 ADD DUP6 DUP2 GT ISZERO PUSH3 0x420 JUMPI PUSH3 0x41F PUSH3 0x314 JUMP JUMPDEST JUMPDEST DUP4 JUMPDEST DUP2 DUP2 LT ISZERO PUSH3 0x44D JUMPI DUP1 PUSH3 0x438 DUP9 DUP3 PUSH3 0x23A JUMP JUMPDEST DUP5 MSTORE PUSH1 0x20 DUP5 ADD SWAP4 POP POP PUSH1 0x20 DUP2 ADD SWAP1 POP PUSH3 0x422 JUMP JUMPDEST POP POP POP SWAP4 SWAP3 POP POP POP JUMP JUMPDEST PUSH1 0x0 DUP3 PUSH1 0x1F DUP4 ADD SLT PUSH3 0x46F JUMPI PUSH3 0x46E PUSH3 0x251 JUMP JUMPDEST JUMPDEST DUP2 MLOAD PUSH3 0x481 DUP5 DUP3 PUSH1 0x20 DUP7 ADD PUSH3 0x3E3 JUMP JUMPDEST SWAP2 POP POP SWAP3 SWAP2 POP POP JUMP JUMPDEST PUSH1 0x0 PUSH8 0xFFFFFFFFFFFFFFFF DUP3 GT ISZERO PUSH3 0x4A8 JUMPI PUSH3 0x4A7 PUSH3 0x267 JUMP JUMPDEST JUMPDEST PUSH1 0x20 DUP3 MUL SWAP1 POP PUSH1 0x20 DUP2 ADD SWAP1 POP SWAP2 SWAP1 POP JUMP JUMPDEST PUSH1 0x0 DUP2 SWAP1 POP SWAP2 SWAP1 POP JUMP JUMPDEST PUSH3 0x4CE DUP2 PUSH3 0x4B9 JUMP JUMPDEST DUP2 EQ PUSH3 0x4DA JUMPI PUSH1 0x0 DUP1 REVERT JUMPDEST POP JUMP JUMPDEST PUSH1 0x0 DUP2 MLOAD SWAP1 POP PUSH3 0x4EE DUP2 PUSH3 0x4C3 JUMP JUMPDEST SWAP3 SWAP2 POP POP JUMP JUMPDEST PUSH1 0x0 PUSH3 0x50B PUSH3 0x505 DUP5 PUSH3 0x48A JUMP JUMPDEST PUSH3 0x2CC JUMP JUMPDEST SWAP1 POP DUP1 DUP4 DUP3 MSTORE PUSH1 0x20 DUP3 ADD SWAP1 POP PUSH1 0x20 DUP5 MUL DUP4 ADD DUP6 DUP2 GT ISZERO PUSH3 0x531 JUMPI PUSH3 0x530 PUSH3 0x314 JUMP JUMPDEST JUMPDEST DUP4 JUMPDEST DUP2 DUP2 LT ISZERO PUSH3 0x55E JUMPI DUP1 PUSH3 0x549 DUP9 DUP3 PUSH3 0x4DD JUMP JUMPDEST DUP5 MSTORE PUSH1 0x20 DUP5 ADD SWAP4 POP POP PUSH1 0x20 DUP2 ADD SWAP1 POP PUSH3 0x533 JUMP JUMPDEST POP POP POP SWAP4 SWAP3 POP POP POP JUMP JUMPDEST PUSH1 0x0 DUP3 PUSH1 0x1F DUP4 ADD SLT PUSH3 0x580 JUMPI PUSH3 0x57F PUSH3 0x251 JUMP JUMPDEST JUMPDEST DUP2 MLOAD PUSH3 0x592 DUP5 DUP3 PUSH1 0x20 DUP7 ADD PUSH3 0x4F4 JUMP JUMPDEST SWAP2 POP POP SWAP3 SWAP2 POP POP JUMP JUMPDEST PUSH1 0x0 DUP1 PUSH1 0x0 DUP1 PUSH2 0x100 DUP6 DUP8 SUB SLT ISZERO PUSH3 0x5B9 JUMPI PUSH3 0x5B8 PUSH3 0x1E2 JUMP JUMPDEST JUMPDEST PUSH1 0x0 PUSH3 0x5C9 DUP8 DUP3 DUP9 ADD PUSH3 0x23A JUMP JUMPDEST SWAP5 POP POP PUSH1 0x20 PUSH3 0x5DC DUP8 DUP3 DUP9 ADD PUSH3 0x384 JUMP JUMPDEST SWAP4 POP POP PUSH1 0xC0 DUP6 ADD MLOAD PUSH8 0xFFFFFFFFFFFFFFFF DUP2 GT ISZERO PUSH3 0x600 JUMPI PUSH3 0x5FF PUSH3 0x1E7 JUMP JUMPDEST JUMPDEST PUSH3 0x60E DUP8 DUP3 DUP9 ADD PUSH3 0x457 JUMP JUMPDEST SWAP3 POP POP PUSH1 0xE0 DUP6 ADD MLOAD PUSH8 0xFFFFFFFFFFFFFFFF DUP2 GT ISZERO PUSH3 0x632 JUMPI PUSH3 0x631 PUSH3 0x1E7 JUMP JUMPDEST JUMPDEST PUSH3 0x640 DUP8 DUP3 DUP9 ADD PUSH3 0x568 JUMP JUMPDEST SWAP2 POP POP SWAP3 SWAP6 SWAP2 SWAP5 POP SWAP3 POP JUMP JUMPDEST PUSH32 0x4E487B7100000000000000000000000000000000000000000000000000000000 PUSH1 0x0 MSTORE PUSH1 0x32 PUSH1 0x4 MSTORE PUSH1 0x24 PUSH1 0x0 REVERT JUMPDEST PUSH32 0x4E487B7100000000000000000000000000000000000000000000000000000000 PUSH1 0x0 MSTORE PUSH1 0x11 PUSH1 0x4 MSTORE PUSH1 0x24 PUSH1 0x0 REVERT JUMPDEST PUSH1 0x0 PUSH3 0x6B7 DUP3 PUSH3 0x4B9 JUMP JUMPDEST SWAP2 POP PUSH32 0xFFFFFFFFFFFFFFFFFFFFFFFFFFFFFFFFFFFFFFFFFFFFFFFFFFFFFFFFFFFFFFFF DUP3 SUB PUSH3 0x6EC JUMPI PUSH3 0x6EB PUSH3 0x67B JUMP JUMPDEST JUMPDEST PUSH1 0x1 DUP3 ADD SWAP1 POP SWAP2 SWAP1 POP JUMP JUMPDEST PUSH2 0x124A DUP1 PUSH3 0x707 PUSH1 0x0 CODECOPY PUSH1 0x0 RETURN INVALID PUSH1 0x80 PUSH1 0x40 MSTORE PUSH1 0x4 CALLDATASIZE LT PUSH2 0x86 JUMPI PUSH1 0x0 CALLDATALOAD PUSH1 0xE0 SHR DUP1 PUSH4 0x8DA5CB5B GT PUSH2 0x59 JUMPI DUP1 PUSH4 0x8DA5CB5B EQ PUSH2 0x145 JUMPI DUP1 PUSH4 0xAF7D6CA3 EQ PUSH2 0x170 JUMPI DUP1 PUSH4 0xC1400D3F EQ PUSH2 0x199 JUMPI DUP1 PUSH4 0xD0E30DB0 EQ PUSH2 0x1C2 JUMPI DUP1 PUSH4 0xF560C734 EQ PUSH2 0x1CC JUMPI PUSH2 0x86 JUMP JUMPDEST DUP1 PUSH4 0x2B603C71 EQ PUSH2 0x8B JUMPI DUP1 PUSH4 0x310EC4A7 EQ PUSH2 0xC8 JUMPI DUP1 PUSH4 0x6884D0A6 EQ PUSH2 0xF1 JUMPI DUP1 PUSH4 0x83B40CC9 EQ PUSH2 0x11C JUMPI JUMPDEST PUSH1 0x0 DUP1 REVERT JUMPDEST CALLVALUE DUP1 ISZERO PUSH2 0x97 JUMPI PUSH1 0x0 DUP1 REVERT JUMPDEST POP PUSH2 0xB2 PUSH1 0x4 DUP1 CALLDATASIZE SUB DUP2 ADD SWAP1 PUSH2 0xAD SWAP2 SWAP1 PUSH2 0xC15 JUMP JUMPDEST PUSH2 0x209 JUMP JUMPDEST PUSH1 0x40 MLOAD PUSH2 0xBF SWAP2 SWAP1 PUSH2 0xC5B JUMP JUMPDEST PUSH1 0x40 MLOAD DUP1 SWAP2 SUB SWAP1 RETURN JUMPDEST CALLVALUE DUP1 ISZERO PUSH2 0xD4 JUMPI PUSH1 0x0 DUP1 REVERT JUMPDEST POP PUSH2 0xEF PUSH1 0x4 DUP1 CALLDATASIZE SUB DUP2 ADD SWAP1 PUSH2 0xEA SWAP2 SWAP1 PUSH2 0xCA2 JUMP JUMPDEST PUSH2 0x221 JUMP JUMPDEST STOP JUMPDEST CALLVALUE DUP1 ISZERO PUSH2 0xFD JUMPI PUSH1 0x0 DUP1 REVERT JUMPDEST POP PUSH2 0x106 PUSH2 0x3C0 JUMP JUMPDEST PUSH1 0x40 MLOAD PUSH2 0x113 SWAP2 SWAP1 PUSH2 0xCFE JUMP JUMPDEST PUSH1 0x40 MLOAD DUP1 SWAP2 SUB SWAP1 RETURN JUMPDEST CALLVALUE DUP1 ISZERO PUSH2 0x128 JUMPI PUSH1 0x0 DUP1 REVERT JUMPDEST POP PUSH2 0x143 PUSH1 0x4 DUP1 CALLDATASIZE SUB DUP2 ADD SWAP1 PUSH2 0x13E SWAP2 SWAP1 PUSH2 0xD19 JUMP JUMPDEST PUSH2 0x3D3 JUMP JUMPDEST STOP JUMPDEST CALLVALUE DUP1 ISZERO PUSH2 0x151 JUMPI PUSH1 0x0 DUP1 REVERT JUMPDEST POP PUSH2 0x15A PUSH2 0x58B JUMP JUMPDEST PUSH1 0x40 MLOAD PUSH2 0x167 SWAP2 SWAP1 PUSH2 0xD68 JUMP JUMPDEST PUSH1 0x40 MLOAD DUP1 SWAP2 SUB SWAP1 RETURN JUMPDEST CALLVALUE DUP1 ISZERO PUSH2 0x17C JUMPI PUSH1 0x0 DUP1 REVERT JUMPDEST POP PUSH2 0x197 PUSH1 0x4 DUP1 CALLDATASIZE SUB DUP2 ADD SWAP1 PUSH2 0x192 SWAP2 SWAP1 PUSH2 0xDC1 JUMP JUMPDEST PUSH2 0x5AF JUMP JUMPDEST STOP JUMPDEST CALLVALUE DUP1 ISZERO PUSH2 0x1A5 JUMPI PUSH1 0x0 DUP1 REVERT JUMPDEST POP PUSH2 0x1C0 PUSH1 0x4 DUP1 CALLDATASIZE SUB DUP2 ADD SWAP1 PUSH2 0x1BB SWAP2 SWAP1 PUSH2 0xC15 JUMP JUMPDEST PUSH2 0x84D JUMP JUMPDEST STOP JUMPDEST PUSH2 0x1CA PUSH2 0xAA9 JUMP JUMPDEST STOP JUMPDEST CALLVALUE DUP1 ISZERO PUSH2 0x1D8 JUMPI PUSH1 0x0 DUP1 REVERT JUMPDEST POP PUSH2 0x1F3 PUSH1 0x4 DUP1 CALLDATASIZE SUB DUP2 ADD SWAP1 PUSH2 0x1EE SWAP2 SWAP1 PUSH2 0xE01 JUMP JUMPDEST PUSH2 0xAAB JUMP JUMPDEST PUSH1 0x40 MLOAD PUSH2 0x200 SWAP2 SWAP1 PUSH2 0xD68 JUMP JUMPDEST PUSH1 0x40 MLOAD DUP1 SWAP2 SUB SWAP1 RETURN JUMPDEST PUSH1 0x1 PUSH1 0x20 MSTORE DUP1 PUSH1 0x0 MSTORE PUSH1 0x40 PUSH1 0x0 KECCAK256 PUSH1 0x0 SWAP2 POP SWAP1 POP SLOAD DUP2 JUMP JUMPDEST PUSH1 0x0 DUP1 SLOAD SWAP1 PUSH2 0x100 EXP SWAP1 DIV PUSH20 0xFFFFFFFFFFFFFFFFFFFFFFFFFFFFFFFFFFFFFFFF AND PUSH20 0xFFFFFFFFFFFFFFFFFFFFFFFFFFFFFFFFFFFFFFFF AND CALLER PUSH20 0xFFFFFFFFFFFFFFFFFFFFFFFFFFFFFFFFFFFFFFFF AND EQ PUSH2 0x2AF JUMPI PUSH1 0x40 MLOAD PUSH32 0x8C379A000000000000000000000000000000000000000000000000000000000 DUP2 MSTORE PUSH1 0x4 ADD PUSH2 0x2A6 SWAP1 PUSH2 0xE8B JUMP JUMPDEST PUSH1 0x40 MLOAD DUP1 SWAP2 SUB SWAP1 REVERT JUMPDEST PUSH1 0x0 JUMPDEST PUSH1 0x5 DUP2 PUSH1 0xFF AND LT ISZERO PUSH2 0x377 JUMPI PUSH1 0x2 DUP2 PUSH1 0xFF AND PUSH1 0x5 DUP2 LT PUSH2 0x2D5 JUMPI PUSH2 0x2D4 PUSH2 0xEAB JUMP JUMPDEST JUMPDEST ADD PUSH1 0x0 SWAP1 SLOAD SWAP1 PUSH2 0x100 EXP SWAP1 DIV PUSH20 0xFFFFFFFFFFFFFFFFFFFFFFFFFFFFFFFFFFFFFFFF AND PUSH20 0xFFFFFFFFFFFFFFFFFFFFFFFFFFFFFFFFFFFFFFFF AND DUP4 PUSH20 0xFFFFFFFFFFFFFFFFFFFFFFFFFFFFFFFFFFFFFFFF AND SUB PUSH2 0x364 JUMPI PUSH1 0x40 MLOAD PUSH32 0x8C379A000000000000000000000000000000000000000000000000000000000 DUP2 MSTORE PUSH1 0x4 ADD PUSH2 0x35B SWAP1 PUSH2 0xF4C JUMP JUMPDEST PUSH1 0x40 MLOAD DUP1 SWAP2 SUB SWAP1 REVERT JUMPDEST DUP1 DUP1 PUSH2 0x36F SWAP1 PUSH2 0xF9B JUMP JUMPDEST SWAP2 POP POP PUSH2 0x2B2 JUMP JUMPDEST POP DUP1 PUSH1 0x1 PUSH1 0x0 DUP5 PUSH20 0xFFFFFFFFFFFFFFFFFFFFFFFFFFFFFFFFFFFFFFFF AND PUSH20 0xFFFFFFFFFFFFFFFFFFFFFFFFFFFFFFFFFFFFFFFF AND DUP2 MSTORE PUSH1 0x20 ADD SWAP1 DUP2 MSTORE PUSH1 0x20 ADD PUSH1 0x0 KECCAK256 DUP2 SWAP1 SSTORE POP POP POP JUMP JUMPDEST PUSH1 0x8 PUSH1 0x0 SWAP1 SLOAD SWAP1 PUSH2 0x100 EXP SWAP1 DIV PUSH1 0xFF AND DUP2 JUMP JUMPDEST PUSH1 0x0 DUP1 SLOAD SWAP1 PUSH2 0x100 EXP SWAP1 DIV PUSH20 0xFFFFFFFFFFFFFFFFFFFFFFFFFFFFFFFFFFFFFFFF AND PUSH20 0xFFFFFFFFFFFFFFFFFFFFFFFFFFFFFFFFFFFFFFFF AND CALLER PUSH20 0xFFFFFFFFFFFFFFFFFFFFFFFFFFFFFFFFFFFFFFFF AND EQ PUSH2 0x461 JUMPI PUSH1 0x40 MLOAD PUSH32 0x8C379A000000000000000000000000000000000000000000000000000000000 DUP2 MSTORE PUSH1 0x4 ADD PUSH2 0x458 SWAP1 PUSH2 0xE8B JUMP JUMPDEST PUSH1 0x40 MLOAD DUP1 SWAP2 SUB SWAP1 REVERT JUMPDEST PUSH1 0x0 JUMPDEST PUSH1 0x5 DUP2 PUSH1 0xFF AND LT ISZERO PUSH2 0x54B JUMPI DUP3 PUSH20 0xFFFFFFFFFFFFFFFFFFFFFFFFFFFFFFFFFFFFFFFF AND PUSH1 0x2 DUP3 PUSH1 0xFF AND PUSH1 0x5 DUP2 LT PUSH2 0x49E JUMPI PUSH2 0x49D PUSH2 0xEAB JUMP JUMPDEST JUMPDEST ADD PUSH1 0x0 SWAP1 SLOAD SWAP1 PUSH2 0x100 EXP SWAP1 DIV PUSH20 0xFFFFFFFFFFFFFFFFFFFFFFFFFFFFFFFFFFFFFFFF AND PUSH20 0xFFFFFFFFFFFFFFFFFFFFFFFFFFFFFFFFFFFFFFFF AND SUB PUSH2 0x538 JUMPI DUP2 PUSH1 0x2 DUP3 PUSH1 0xFF AND PUSH1 0x5 DUP2 LT PUSH2 0x4F3 JUMPI PUSH2 0x4F2 PUSH2 0xEAB JUMP JUMPDEST JUMPDEST ADD PUSH1 0x0 PUSH2 0x100 EXP DUP2 SLOAD DUP2 PUSH20 0xFFFFFFFFFFFFFFFFFFFFFFFFFFFFFFFFFFFFFFFF MUL NOT AND SWAP1 DUP4 PUSH20 0xFFFFFFFFFFFFFFFFFFFFFFFFFFFFFFFFFFFFFFFF AND MUL OR SWAP1 SSTORE POP POP PUSH2 0x587 JUMP JUMPDEST DUP1 DUP1 PUSH2 0x543 SWAP1 PUSH2 0xF9B JUMP JUMPDEST SWAP2 POP POP PUSH2 0x464 JUMP JUMPDEST POP PUSH1 0x40 MLOAD PUSH32 0x8C379A000000000000000000000000000000000000000000000000000000000 DUP2 MSTORE PUSH1 0x4 ADD PUSH2 0x57E SWAP1 PUSH2 0x1010 JUMP JUMPDEST PUSH1 0x40 MLOAD DUP1 SWAP2 SUB SWAP1 REVERT JUMPDEST POP POP JUMP JUMPDEST PUSH1 0x0 DUP1 SLOAD SWAP1 PUSH2 0x100 EXP SWAP1 DIV PUSH20 0xFFFFFFFFFFFFFFFFFFFFFFFFFFFFFFFFFFFFFFFF AND DUP2 JUMP JUMPDEST PUSH1 0x0 DUP1 SLOAD SWAP1 PUSH2 0x100 EXP SWAP1 DIV PUSH20 0xFFFFFFFFFFFFFFFFFFFFFFFFFFFFFFFFFFFFFFFF AND PUSH20 0xFFFFFFFFFFFFFFFFFFFFFFFFFFFFFFFFFFFFFFFF AND CALLER PUSH20 0xFFFFFFFFFFFFFFFFFFFFFFFFFFFFFFFFFFFFFFFF AND EQ PUSH2 0x63D JUMPI PUSH1 0x40 MLOAD PUSH32 0x8C379A000000000000000000000000000000000000000000000000000000000 DUP2 MSTORE PUSH1 0x4 ADD PUSH2 0x634 SWAP1 PUSH2 0xE8B JUMP JUMPDEST PUSH1 0x40 MLOAD DUP1 SWAP2 SUB SWAP1 REVERT JUMPDEST DUP1 SELFBALANCE LT ISZERO PUSH2 0x680 JUMPI PUSH1 0x40 MLOAD PUSH32 0x8C379A000000000000000000000000000000000000000000000000000000000 DUP2 MSTORE PUSH1 0x4 ADD PUSH2 0x677 SWAP1 PUSH2 0x107C JUMP JUMPDEST PUSH1 0x40 MLOAD DUP1 SWAP2 SUB SWAP1 REVERT JUMPDEST DUP1 PUSH1 0x1 PUSH1 0x0 DUP5 PUSH20 0xFFFFFFFFFFFFFFFFFFFFFFFFFFFFFFFFFFFFFFFF AND PUSH20 0xFFFFFFFFFFFFFFFFFFFFFFFFFFFFFFFFFFFFFFFF AND DUP2 MSTORE PUSH1 0x20 ADD SWAP1 DUP2 MSTORE PUSH1 0x20 ADD PUSH1 0x0 KECCAK256 SLOAD LT ISZERO DUP1 PUSH2 0x719 JUMPI POP PUSH1 0x0 DUP1 SLOAD SWAP1 PUSH2 0x100 EXP SWAP1 DIV PUSH20 0xFFFFFFFFFFFFFFFFFFFFFFFFFFFFFFFFFFFFFFFF AND PUSH20 0xFFFFFFFFFFFFFFFFFFFFFFFFFFFFFFFFFFFFFFFF AND DUP3 PUSH20 0xFFFFFFFFFFFFFFFFFFFFFFFFFFFFFFFFFFFFFFFF AND EQ JUMPDEST PUSH2 0x758 JUMPI PUSH1 0x40 MLOAD PUSH32 0x8C379A000000000000000000000000000000000000000000000000000000000 DUP2 MSTORE PUSH1 0x4 ADD PUSH2 0x74F SWAP1 PUSH2 0x10E8 JUMP JUMPDEST PUSH1 0x40 MLOAD DUP1 SWAP2 SUB SWAP1 REVERT JUMPDEST PUSH1 0x0 DUP1 SLOAD SWAP1 PUSH2 0x100 EXP SWAP1 DIV PUSH20 0xFFFFFFFFFFFFFFFFFFFFFFFFFFFFFFFFFFFFFFFF AND PUSH20 0xFFFFFFFFFFFFFFFFFFFFFFFFFFFFFFFFFFFFFFFF AND DUP3 PUSH20 0xFFFFFFFFFFFFFFFFFFFFFFFFFFFFFFFFFFFFFFFF AND EQ PUSH2 0x802 JUMPI DUP1 PUSH1 0x1 PUSH1 0x0 DUP5 PUSH20 0xFFFFFFFFFFFFFFFFFFFFFFFFFFFFFFFFFFFFFFFF AND PUSH20 0xFFFFFFFFFFFFFFFFFFFFFFFFFFFFFFFFFFFFFFFF AND DUP2 MSTORE PUSH1 0x20 ADD SWAP1 DUP2 MSTORE PUSH1 0x20 ADD PUSH1 0x0 KECCAK256 PUSH1 0x0 DUP3 DUP3 SLOAD PUSH2 0x7FA SWAP2 SWAP1 PUSH2 0x1108 JUMP JUMPDEST SWAP3 POP POP DUP2 SWAP1 SSTORE POP JUMPDEST DUP2 PUSH20 0xFFFFFFFFFFFFFFFFFFFFFFFFFFFFFFFFFFFFFFFF AND PUSH2 0x8FC DUP3 SWAP1 DUP2 ISZERO MUL SWAP1 PUSH1 0x40 MLOAD PUSH1 0x0 PUSH1 0x40 MLOAD DUP1 DUP4 SUB DUP2 DUP6 DUP9 DUP9 CALL SWAP4 POP POP POP POP ISZERO DUP1 ISZERO PUSH2 0x848 JUMPI RETURNDATASIZE PUSH1 0x0 DUP1 RETURNDATACOPY RETURNDATASIZE PUSH1 0x0 REVERT JUMPDEST POP POP POP JUMP JUMPDEST PUSH1 0x0 DUP1 JUMPDEST PUSH1 0x5 DUP2 PUSH1 0xFF AND LT ISZERO PUSH2 0x8E4 JUMPI CALLER PUSH20 0xFFFFFFFFFFFFFFFFFFFFFFFFFFFFFFFFFFFFFFFF AND PUSH1 0x2 DUP3 PUSH1 0xFF AND PUSH1 0x5 DUP2 LT PUSH2 0x88B JUMPI PUSH2 0x88A PUSH2 0xEAB JUMP JUMPDEST JUMPDEST ADD PUSH1 0x0 SWAP1 SLOAD SWAP1 PUSH2 0x100 EXP SWAP1 DIV PUSH20 0xFFFFFFFFFFFFFFFFFFFFFFFFFFFFFFFFFFFFFFFF AND PUSH20 0xFFFFFFFFFFFFFFFFFFFFFFFFFFFFFFFFFFFFFFFF AND SUB PUSH2 0x8D1 JUMPI PUSH1 0x1 SWAP2 POP PUSH2 0x8E4 JUMP JUMPDEST DUP1 DUP1 PUSH2 0x8DC SWAP1 PUSH2 0xF9B JUMP JUMPDEST SWAP2 POP POP PUSH2 0x851 JUMP JUMPDEST POP DUP1 PUSH2 0x925 JUMPI PUSH1 0x40 MLOAD PUSH32 0x8C379A000000000000000000000000000000000000000000000000000000000 DUP2 MSTORE PUSH1 0x4 ADD PUSH2 0x91C SWAP1 PUSH2 0x1188 JUMP JUMPDEST PUSH1 0x40 MLOAD DUP1 SWAP2 SUB SWAP1 REVERT JUMPDEST PUSH1 0x7 PUSH1 0x0 CALLER PUSH20 0xFFFFFFFFFFFFFFFFFFFFFFFFFFFFFFFFFFFFFFFF AND PUSH20 0xFFFFFFFFFFFFFFFFFFFFFFFFFFFFFFFFFFFFFFFF AND DUP2 MSTORE PUSH1 0x20 ADD SWAP1 DUP2 MSTORE PUSH1 0x20 ADD PUSH1 0x0 KECCAK256 PUSH1 0x0 SWAP1 SLOAD SWAP1 PUSH2 0x100 EXP SWAP1 DIV PUSH1 0xFF AND ISZERO PUSH2 0x9B2 JUMPI PUSH1 0x40 MLOAD PUSH32 0x8C379A000000000000000000000000000000000000000000000000000000000 DUP2 MSTORE PUSH1 0x4 ADD PUSH2 0x9A9 SWAP1 PUSH2 0x11F4 JUMP JUMPDEST PUSH1 0x40 MLOAD DUP1 SWAP2 SUB SWAP1 REVERT JUMPDEST PUSH1 0x1 PUSH1 0x7 PUSH1 0x0 CALLER PUSH20 0xFFFFFFFFFFFFFFFFFFFFFFFFFFFFFFFFFFFFFFFF AND PUSH20 0xFFFFFFFFFFFFFFFFFFFFFFFFFFFFFFFFFFFFFFFF AND DUP2 MSTORE PUSH1 0x20 ADD SWAP1 DUP2 MSTORE PUSH1 0x20 ADD PUSH1 0x0 KECCAK256 PUSH1 0x0 PUSH2 0x100 EXP DUP2 SLOAD DUP2 PUSH1 0xFF MUL NOT AND SWAP1 DUP4 ISZERO ISZERO MUL OR SWAP1 SSTORE POP PUSH1 0x8 PUSH1 0x0 DUP2 DUP2 SWAP1 SLOAD SWAP1 PUSH2 0x100 EXP SWAP1 DIV PUSH1 0xFF AND DUP1 SWAP3 SWAP2 SWAP1 PUSH2 0xA29 SWAP1 PUSH2 0xF9B JUMP JUMPDEST SWAP2 SWAP1 PUSH2 0x100 EXP DUP2 SLOAD DUP2 PUSH1 0xFF MUL NOT AND SWAP1 DUP4 PUSH1 0xFF AND MUL OR SWAP1 SSTORE POP POP PUSH1 0x3 PUSH1 0x8 PUSH1 0x0 SWAP1 SLOAD SWAP1 PUSH2 0x100 EXP SWAP1 DIV PUSH1 0xFF AND PUSH1 0xFF AND LT PUSH2 0xAA5 JUMPI DUP2 PUSH1 0x0 DUP1 PUSH2 0x100 EXP DUP2 SLOAD DUP2 PUSH20 0xFFFFFFFFFFFFFFFFFFFFFFFFFFFFFFFFFFFFFFFF MUL NOT AND SWAP1 DUP4 PUSH20 0xFFFFFFFFFFFFFFFFFFFFFFFFFFFFFFFFFFFFFFFF AND MUL OR SWAP1 SSTORE POP PUSH2 0xAA4 PUSH2 0xAE1 JUMP JUMPDEST JUMPDEST POP POP JUMP JUMPDEST JUMP JUMPDEST PUSH1 0x2 DUP2 PUSH1 0x5 DUP2 LT PUSH2 0xABB JUMPI PUSH1 0x0 DUP1 REVERT JUMPDEST ADD PUSH1 0x0 SWAP2 POP SLOAD SWAP1 PUSH2 0x100 EXP SWAP1 DIV PUSH20 0xFFFFFFFFFFFFFFFFFFFFFFFFFFFFFFFFFFFFFFFF AND DUP2 JUMP JUMPDEST PUSH1 0x0 JUMPDEST PUSH1 0x5 DUP2 PUSH1 0xFF AND LT ISZERO PUSH2 0xB93 JUMPI PUSH1 0x0 PUSH1 0x7 PUSH1 0x0 PUSH1 0x2 DUP5 PUSH1 0xFF AND PUSH1 0x5 DUP2 LT PUSH2 0xB0D JUMPI PUSH2 0xB0C PUSH2 0xEAB JUMP JUMPDEST JUMPDEST ADD PUSH1 0x0 SWAP1 SLOAD SWAP1 PUSH2 0x100 EXP SWAP1 DIV PUSH20 0xFFFFFFFFFFFFFFFFFFFFFFFFFFFFFFFFFFFFFFFF AND PUSH20 0xFFFFFFFFFFFFFFFFFFFFFFFFFFFFFFFFFFFFFFFF AND PUSH20 0xFFFFFFFFFFFFFFFFFFFFFFFFFFFFFFFFFFFFFFFF AND DUP2 MSTORE PUSH1 0x20 ADD SWAP1 DUP2 MSTORE PUSH1 0x20 ADD PUSH1 0x0 KECCAK256 PUSH1 0x0 PUSH2 0x100 EXP DUP2 SLOAD DUP2 PUSH1 0xFF MUL NOT AND SWAP1 DUP4 ISZERO ISZERO MUL OR SWAP1 SSTORE POP DUP1 DUP1 PUSH2 0xB8B SWAP1 PUSH2 0xF9B JUMP JUMPDEST SWAP2 POP POP PUSH2 0xAE4 JUMP JUMPDEST POP PUSH1 0x0 PUSH1 0x8 PUSH1 0x0 PUSH2 0x100 EXP DUP2 SLOAD DUP2 PUSH1 0xFF MUL NOT AND SWAP1 DUP4 PUSH1 0xFF AND MUL OR SWAP1 SSTORE POP JUMP JUMPDEST PUSH1 0x0 DUP1 REVERT JUMPDEST PUSH1 0x0 PUSH20 0xFFFFFFFFFFFFFFFFFFFFFFFFFFFFFFFFFFFFFFFF DUP3 AND SWAP1 POP SWAP2 SWAP1 POP JUMP JUMPDEST PUSH1 0x0 PUSH2 0xBE2 DUP3 PUSH2 0xBB7 JUMP JUMPDEST SWAP1 POP SWAP2 SWAP1 POP JUMP JUMPDEST PUSH2 0xBF2 DUP2 PUSH2 0xBD7 JUMP JUMPDEST DUP2 EQ PUSH2 0xBFD JUMPI PUSH1 0x0 DUP1 REVERT JUMPDEST POP JUMP JUMPDEST PUSH1 0x0 DUP2 CALLDATALOAD SWAP1 POP PUSH2 0xC0F DUP2 PUSH2 0xBE9 JUMP JUMPDEST SWAP3 SWAP2 POP POP JUMP JUMPDEST PUSH1 0x0 PUSH1 0x20 DUP3 DUP5 SUB SLT ISZERO PUSH2 0xC2B JUMPI PUSH2 0xC2A PUSH2 0xBB2 JUMP JUMPDEST JUMPDEST PUSH1 0x0 PUSH2 0xC39 DUP5 DUP3 DUP6 ADD PUSH2 0xC00 JUMP JUMPDEST SWAP2 POP POP SWAP3 SWAP2 POP POP JUMP JUMPDEST PUSH1 0x0 DUP2 SWAP1 POP SWAP2 SWAP1 POP JUMP JUMPDEST PUSH2 0xC55 DUP2 PUSH2 0xC42 JUMP JUMPDEST DUP3 MSTORE POP POP JUMP JUMPDEST PUSH1 0x0 PUSH1 0x20 DUP3 ADD SWAP1 POP PUSH2 0xC70 PUSH1 0x0 DUP4 ADD DUP5 PUSH2 0xC4C JUMP JUMPDEST SWAP3 SWAP2 POP POP JUMP JUMPDEST PUSH2 0xC7F DUP2 PUSH2 0xC42 JUMP JUMPDEST DUP2 EQ PUSH2 0xC8A JUMPI PUSH1 0x0 DUP1 REVERT JUMPDEST POP JUMP JUMPDEST PUSH1 0x0 DUP2 CALLDATALOAD SWAP1 POP PUSH2 0xC9C DUP2 PUSH2 0xC76 JUMP JUMPDEST SWAP3 SWAP2 POP POP JUMP JUMPDEST PUSH1 0x0 DUP1 PUSH1 0x40 DUP4 DUP6 SUB SLT ISZERO PUSH2 0xCB9 JUMPI PUSH2 0xCB8 PUSH2 0xBB2 JUMP JUMPDEST JUMPDEST PUSH1 0x0 PUSH2 0xCC7 DUP6 DUP3 DUP7 ADD PUSH2 0xC00 JUMP JUMPDEST SWAP3 POP POP PUSH1 0x20 PUSH2 0xCD8 DUP6 DUP3 DUP7 ADD PUSH2 0xC8D JUMP JUMPDEST SWAP2 POP POP SWAP3 POP SWAP3 SWAP1 POP JUMP JUMPDEST PUSH1 0x0 PUSH1 0xFF DUP3 AND SWAP1 POP SWAP2 SWAP1 POP JUMP JUMPDEST PUSH2 0xCF8 DUP2 PUSH2 0xCE2 JUMP JUMPDEST DUP3 MSTORE POP POP JUMP JUMPDEST PUSH1 0x0 PUSH1 0x20 DUP3 ADD SWAP1 POP PUSH2 0xD13 PUSH1 0x0 DUP4 ADD DUP5 PUSH2 0xCEF JUMP JUMPDEST SWAP3 SWAP2 POP POP JUMP JUMPDEST PUSH1 0x0 DUP1 PUSH1 0x40 DUP4 DUP6 SUB SLT ISZERO PUSH2 0xD30 JUMPI PUSH2 0xD2F PUSH2 0xBB2 JUMP JUMPDEST JUMPDEST PUSH1 0x0 PUSH2 0xD3E DUP6 DUP3 DUP7 ADD PUSH2 0xC00 JUMP JUMPDEST SWAP3 POP POP PUSH1 0x20 PUSH2 0xD4F DUP6 DUP3 DUP7 ADD PUSH2 0xC00 JUMP JUMPDEST SWAP2 POP POP SWAP3 POP SWAP3 SWAP1 POP JUMP JUMPDEST PUSH2 0xD62 DUP2 PUSH2 0xBD7 JUMP JUMPDEST DUP3 MSTORE POP POP JUMP JUMPDEST PUSH1 0x0 PUSH1 0x20 DUP3 ADD SWAP1 POP PUSH2 0xD7D PUSH1 0x0 DUP4 ADD DUP5 PUSH2 0xD59 JUMP JUMPDEST SWAP3 SWAP2 POP POP JUMP JUMPDEST PUSH1 0x0 PUSH2 0xD8E DUP3 PUSH2 0xBB7 JUMP JUMPDEST SWAP1 POP SWAP2 SWAP1 POP JUMP JUMPDEST PUSH2 0xD9E DUP2 PUSH2 0xD83 JUMP JUMPDEST DUP2 EQ PUSH2 0xDA9 JUMPI PUSH1 0x0 DUP1 REVERT JUMPDEST POP JUMP JUMPDEST PUSH1 0x0 DUP2 CALLDATALOAD SWAP1 POP PUSH2 0xDBB DUP2 PUSH2 0xD95 JUMP JUMPDEST SWAP3 SWAP2 POP POP JUMP JUMPDEST PUSH1 0x0 DUP1 PUSH1 0x40 DUP4 DUP6 SUB SLT ISZERO PUSH2 0xDD8 JUMPI PUSH2 0xDD7 PUSH2 0xBB2 JUMP JUMPDEST JUMPDEST PUSH1 0x0 PUSH2 0xDE6 DUP6 DUP3 DUP7 ADD PUSH2 0xDAC JUMP JUMPDEST SWAP3 POP POP PUSH1 0x20 PUSH2 0xDF7 DUP6 DUP3 DUP7 ADD PUSH2 0xC8D JUMP JUMPDEST SWAP2 POP POP SWAP3 POP SWAP3 SWAP1 POP JUMP JUMPDEST PUSH1 0x0 PUSH1 0x20 DUP3 DUP5 SUB SLT ISZERO PUSH2 0xE17 JUMPI PUSH2 0xE16 PUSH2 0xBB2 JUMP JUMPDEST JUMPDEST PUSH1 0x0 PUSH2 0xE25 DUP5 DUP3 DUP6 ADD PUSH2 0xC8D JUMP JUMPDEST SWAP2 POP POP SWAP3 SWAP2 POP POP JUMP JUMPDEST PUSH1 0x0 DUP3 DUP3 MSTORE PUSH1 0x20 DUP3 ADD SWAP1 POP SWAP3 SWAP2 POP POP JUMP JUMPDEST PUSH32 0x4F6E6C79206F776E65722063616E2063616C6C20746869732E00000000000000 PUSH1 0x0 DUP3 ADD MSTORE POP JUMP JUMPDEST PUSH1 0x0 PUSH2 0xE75 PUSH1 0x19 DUP4 PUSH2 0xE2E JUMP JUMPDEST SWAP2 POP PUSH2 0xE80 DUP3 PUSH2 0xE3F JUMP JUMPDEST PUSH1 0x20 DUP3 ADD SWAP1 POP SWAP2 SWAP1 POP JUMP JUMPDEST PUSH1 0x0 PUSH1 0x20 DUP3 ADD SWAP1 POP DUP2 DUP2 SUB PUSH1 0x0 DUP4 ADD MSTORE PUSH2 0xEA4 DUP2 PUSH2 0xE68 JUMP JUMPDEST SWAP1 POP SWAP2 SWAP1 POP JUMP JUMPDEST PUSH32 0x4E487B7100000000000000000000000000000000000000000000000000000000 PUSH1 0x0 MSTORE PUSH1 0x32 PUSH1 0x4 MSTORE PUSH1 0x24 PUSH1 0x0 REVERT JUMPDEST PUSH32 0x477561726469616E2063616E6E6F74207265636569766520616C6C6F77616E63 PUSH1 0x0 DUP3 ADD MSTORE PUSH32 0x6500000000000000000000000000000000000000000000000000000000000000 PUSH1 0x20 DUP3 ADD MSTORE POP JUMP JUMPDEST PUSH1 0x0 PUSH2 0xF36 PUSH1 0x21 DUP4 PUSH2 0xE2E JUMP JUMPDEST SWAP2 POP PUSH2 0xF41 DUP3 PUSH2 0xEDA JUMP JUMPDEST PUSH1 0x40 DUP3 ADD SWAP1 POP SWAP2 SWAP1 POP JUMP JUMPDEST PUSH1 0x0 PUSH1 0x20 DUP3 ADD SWAP1 POP DUP2 DUP2 SUB PUSH1 0x0 DUP4 ADD MSTORE PUSH2 0xF65 DUP2 PUSH2 0xF29 JUMP JUMPDEST SWAP1 POP SWAP2 SWAP1 POP JUMP JUMPDEST PUSH32 0x4E487B7100000000000000000000000000000000000000000000000000000000 PUSH1 0x0 MSTORE PUSH1 0x11 PUSH1 0x4 MSTORE PUSH1 0x24 PUSH1 0x0 REVERT JUMPDEST PUSH1 0x0 PUSH2 0xFA6 DUP3 PUSH2 0xCE2 JUMP JUMPDEST SWAP2 POP PUSH1 0xFF DUP3 SUB PUSH2 0xFB9 JUMPI PUSH2 0xFB8 PUSH2 0xF6C JUMP JUMPDEST JUMPDEST PUSH1 0x1 DUP3 ADD SWAP1 POP SWAP2 SWAP1 POP JUMP JUMPDEST PUSH32 0x477561726469616E206E6F7420666F756E640000000000000000000000000000 PUSH1 0x0 DUP3 ADD MSTORE POP JUMP JUMPDEST PUSH1 0x0 PUSH2 0xFFA PUSH1 0x12 DUP4 PUSH2 0xE2E JUMP JUMPDEST SWAP2 POP PUSH2 0x1005 DUP3 PUSH2 0xFC4 JUMP JUMPDEST PUSH1 0x20 DUP3 ADD SWAP1 POP SWAP2 SWAP1 POP JUMP JUMPDEST PUSH1 0x0 PUSH1 0x20 DUP3 ADD SWAP1 POP DUP2 DUP2 SUB PUSH1 0x0 DUP4 ADD MSTORE PUSH2 0x1029 DUP2 PUSH2 0xFED JUMP JUMPDEST SWAP1 POP SWAP2 SWAP1 POP JUMP JUMPDEST PUSH32 0x496E73756666696369656E742066756E64730000000000000000000000000000 PUSH1 0x0 DUP3 ADD MSTORE POP JUMP JUMPDEST PUSH1 0x0 PUSH2 0x1066 PUSH1 0x12 DUP4 PUSH2 0xE2E JUMP JUMPDEST SWAP2 POP PUSH2 0x1071 DUP3 PUSH2 0x1030 JUMP JUMPDEST PUSH1 0x20 DUP3 ADD SWAP1 POP SWAP2 SWAP1 POP JUMP JUMPDEST PUSH1 0x0 PUSH1 0x20 DUP3 ADD SWAP1 POP DUP2 DUP2 SUB PUSH1 0x0 DUP4 ADD MSTORE PUSH2 0x1095 DUP2 PUSH2 0x1059 JUMP JUMPDEST SWAP1 POP SWAP2 SWAP1 POP JUMP JUMPDEST PUSH32 0x416D6F756E74206578636565647320616C6C6F77616E63650000000000000000 PUSH1 0x0 DUP3 ADD MSTORE POP JUMP JUMPDEST PUSH1 0x0 PUSH2 0x10D2 PUSH1 0x18 DUP4 PUSH2 0xE2E JUMP JUMPDEST SWAP2 POP PUSH2 0x10DD DUP3 PUSH2 0x109C JUMP JUMPDEST PUSH1 0x20 DUP3 ADD SWAP1 POP SWAP2 SWAP1 POP JUMP JUMPDEST PUSH1 0x0 PUSH1 0x20 DUP3 ADD SWAP1 POP DUP2 DUP2 SUB PUSH1 0x0 DUP4 ADD MSTORE PUSH2 0x1101 DUP2 PUSH2 0x10C5 JUMP JUMPDEST SWAP1 POP SWAP2 SWAP1 POP JUMP JUMPDEST PUSH1 0x0 PUSH2 0x1113 DUP3 PUSH2 0xC42 JUMP JUMPDEST SWAP2 POP PUSH2 0x111E DUP4 PUSH2 0xC42 JUMP JUMPDEST SWAP3 POP DUP3 DUP3 SUB SWAP1 POP DUP2 DUP2 GT ISZERO PUSH2 0x1136 JUMPI PUSH2 0x1135 PUSH2 0xF6C JUMP JUMPDEST JUMPDEST SWAP3 SWAP2 POP POP JUMP JUMPDEST PUSH32 0x4F6E6C7920677561726469616E732063616E20617070726F7665000000000000 PUSH1 0x0 DUP3 ADD MSTORE POP JUMP JUMPDEST PUSH1 0x0 PUSH2 0x1172 PUSH1 0x1A DUP4 PUSH2 0xE2E JUMP JUMPDEST SWAP2 POP PUSH2 0x117D DUP3 PUSH2 0x113C JUMP JUMPDEST PUSH1 0x20 DUP3 ADD SWAP1 POP SWAP2 SWAP1 POP JUMP JUMPDEST PUSH1 0x0 PUSH1 0x20 DUP3 ADD SWAP1 POP DUP2 DUP2 SUB PUSH1 0x0 DUP4 ADD MSTORE PUSH2 0x11A1 DUP2 PUSH2 0x1165 JUMP JUMPDEST SWAP1 POP SWAP2 SWAP1 POP JUMP JUMPDEST PUSH32 0x477561726469616E2068617320616C726561647920617070726F766564000000 PUSH1 0x0 DUP3 ADD MSTORE POP JUMP JUMPDEST PUSH1 0x0 PUSH2 0x11DE PUSH1 0x1D DUP4 PUSH2 0xE2E JUMP JUMPDEST SWAP2 POP PUSH2 0x11E9 DUP3 PUSH2 0x11A8 JUMP JUMPDEST PUSH1 0x20 DUP3 ADD SWAP1 POP SWAP2 SWAP1 POP JUMP JUMPDEST PUSH1 0x0 PUSH1 0x20 DUP3 ADD SWAP1 POP DUP2 DUP2 SUB PUSH1 0x0 DUP4 ADD MSTORE PUSH2 0x120D DUP2 PUSH2 0x11D1 JUMP JUMPDEST SWAP1 POP SWAP2 SWAP1 POP JUMP INVALID LOG2 PUSH5 0x6970667358 0x22 SLT KECCAK256 0xBD 0xFC PUSH15 0x46FDC1324EF26F0CD103F16F0FF76C SWAP1 PUSH10 0x9066E81E18C761E52750 0xDE 0x5E PUSH5 0x736F6C6343 STOP ADDMOD SLT STOP CALLER "
				},
				"gasEstimates": {
					"creation": {
						"codeDepositCost": "936400",
						"executionCost": "infinite",
						"totalCost": "infinite"
					},
					"external": {
						"allowances(address)": "2815",
						"approvalCount()": "2516",
						"changeGuardian(address,address)": "infinite",
						"deposit()": "186",
						"guardianApproveNewOwner(address)": "infinite",
						"guardians(uint256)": "2893",
						"owner()": "2511",
						"setAllowance(address,uint256)": "infinite",
						"spend(address,uint256)": "infinite"
					},
					"internal": {
						"_resetGuardianApprovals()": "infinite"
					}
				},
				"methodIdentifiers": {
					"allowances(address)": "2b603c71",
					"approvalCount()": "6884d0a6",
					"changeGuardian(address,address)": "83b40cc9",
					"deposit()": "d0e30db0",
					"guardianApproveNewOwner(address)": "c1400d3f",
					"guardians(uint256)": "f560c734",
					"owner()": "8da5cb5b",
					"setAllowance(address,uint256)": "310ec4a7",
					"spend(address,uint256)": "af7d6ca3"
				}
			},
			"storageLayout": {
				"storage": [
					{
						"astId": 3,
						"contract": "krisha7MyWallet.sol:MyWallet",
						"label": "owner",
						"offset": 0,
						"slot": "0",
						"type": "t_address"
					},
					{
						"astId": 7,
						"contract": "krisha7MyWallet.sol:MyWallet",
						"label": "allowances",
						"offset": 0,
						"slot": "1",
						"type": "t_mapping(t_address,t_uint256)"
					},
					{
						"astId": 11,
						"contract": "krisha7MyWallet.sol:MyWallet",
						"label": "guardians",
						"offset": 0,
						"slot": "2",
						"type": "t_array(t_address)5_storage"
					},
					{
						"astId": 15,
						"contract": "krisha7MyWallet.sol:MyWallet",
						"label": "guardianApprovals",
						"offset": 0,
						"slot": "7",
						"type": "t_mapping(t_address,t_bool)"
					},
					{
						"astId": 17,
						"contract": "krisha7MyWallet.sol:MyWallet",
						"label": "approvalCount",
						"offset": 0,
						"slot": "8",
						"type": "t_uint8"
					}
				],
				"types": {
					"t_address": {
						"encoding": "inplace",
						"label": "address",
						"numberOfBytes": "20"
					},
					"t_array(t_address)5_storage": {
						"base": "t_address",
						"encoding": "inplace",
						"label": "address[5]",
						"numberOfBytes": "160"
					},
					"t_bool": {
						"encoding": "inplace",
						"label": "bool",
						"numberOfBytes": "1"
					},
					"t_mapping(t_address,t_bool)": {
						"encoding": "mapping",
						"key": "t_address",
						"label": "mapping(address => bool)",
						"numberOfBytes": "32",
						"value": "t_bool"
					},
					"t_mapping(t_address,t_uint256)": {
						"encoding": "mapping",
						"key": "t_address",
						"label": "mapping(address => uint256)",
						"numberOfBytes": "32",
						"value": "t_uint256"
					},
					"t_uint256": {
						"encoding": "inplace",
						"label": "uint256",
						"numberOfBytes": "32"
					},
					"t_uint8": {
						"encoding": "inplace",
						"label": "uint8",
						"numberOfBytes": "1"
					}
				}
			},
			"userdoc": {
				"kind": "user",
				"methods": {},
				"version": 1
			}
		}
	}
}