{
	"krisha7TokenSale.sol": {
		"TokenSale": {
			"abi": [
				{
					"inputs": [
						{
							"internalType": "address",
							"name": "_tokenAddress",
							"type": "address"
						},
						{
							"internalType": "uint256",
							"name": "_price",
							"type": "uint256"
						}
					],
					"stateMutability": "nonpayable",
					"type": "constructor"
				},
				{
					"inputs": [],
					"name": "owner",
					"outputs": [
						{
							"internalType": "address",
							"name": "",
							"type": "address"
						}
					],
					"stateMutability": "view",
					"type": "function"
				},
				{
					"inputs": [],
					"name": "price",
					"outputs": [
						{
							"internalType": "uint256",
							"name": "",
							"type": "uint256"
						}
					],
					"stateMutability": "view",
					"type": "function"
				},
				{
					"inputs": [],
					"name": "purchase",
					"outputs": [],
					"stateMutability": "payable",
					"type": "function"
				},
				{
					"inputs": [
						{
							"internalType": "uint256",
							"name": "_newPrice",
							"type": "uint256"
						}
					],
					"name": "setPrice",
					"outputs": [],
					"stateMutability": "nonpayable",
					"type": "function"
				},
				{
					"inputs": [],
					"name": "token",
					"outputs": [
						{
							"internalType": "contract ERC20",
							"name": "",
							"type": "address"
						}
					],
					"stateMutability": "view",
					"type": "function"
				},
				{
					"inputs": [],
					"name": "withdrawFunds",
					"outputs": [],
					"stateMutability": "nonpayable",
					"type": "function"
				}
			],
			"devdoc": {
				"kind": "dev",
				"methods": {},
				"version": 1
			},
			"evm": {
				"assembly": "    /* \"krisha7TokenSale.sol\":163:1416  contract TokenSale {... */\n  mstore(0x40, 0x80)\n    /* \"krisha7TokenSale.sol\":423:733  constructor(address _tokenAddress, uint256 _price) {... */\n  callvalue\n  dup1\n  iszero\n  tag_1\n  jumpi\n  0x00\n  dup1\n  revert\ntag_1:\n  pop\n  mload(0x40)\n  sub(codesize, bytecodeSize)\n  dup1\n  bytecodeSize\n  dup4\n  codecopy\n  dup2\n  dup2\n  add\n  0x40\n  mstore\n  dup2\n  add\n  swap1\n  tag_2\n  swap2\n  swap1\n  tag_3\n  jump\t// in\ntag_2:\n    /* \"krisha7TokenSale.sol\":518:519  0 */\n  0x00\n    /* \"krisha7TokenSale.sol\":493:520  _tokenAddress != address(0) */\n  0xffffffffffffffffffffffffffffffffffffffff\n  and\n    /* \"krisha7TokenSale.sol\":493:506  _tokenAddress */\n  dup3\n    /* \"krisha7TokenSale.sol\":493:520  _tokenAddress != address(0) */\n  0xffffffffffffffffffffffffffffffffffffffff\n  and\n  sub\n    /* \"krisha7TokenSale.sol\":485:562  require(_tokenAddress != address(0), \"Token address cannot be zero address.\") */\n  tag_6\n  jumpi\n  mload(0x40)\n  0x08c379a000000000000000000000000000000000000000000000000000000000\n  dup2\n  mstore\n  0x04\n  add\n  tag_7\n  swap1\n  tag_8\n  jump\t// in\ntag_7:\n  mload(0x40)\n  dup1\n  swap2\n  sub\n  swap1\n  revert\ntag_6:\n    /* \"krisha7TokenSale.sol\":590:591  0 */\n  0x00\n    /* \"krisha7TokenSale.sol\":581:587  _price */\n  dup2\n    /* \"krisha7TokenSale.sol\":581:591  _price > 0 */\n  gt\n    /* \"krisha7TokenSale.sol\":573:630  require(_price > 0, \"Price should be greater than zero.\") */\n  tag_9\n  jumpi\n  mload(0x40)\n  0x08c379a000000000000000000000000000000000000000000000000000000000\n  dup2\n  mstore\n  0x04\n  add\n  tag_10\n  swap1\n  tag_11\n  jump\t// in\ntag_10:\n  mload(0x40)\n  dup1\n  swap2\n  sub\n  swap1\n  revert\ntag_9:\n    /* \"krisha7TokenSale.sol\":657:670  _tokenAddress */\n  dup2\n    /* \"krisha7TokenSale.sol\":643:648  token */\n  0x00\n  dup1\n    /* \"krisha7TokenSale.sol\":643:671  token = ERC20(_tokenAddress) */\n  0x0100\n  exp\n  dup2\n  sload\n  dup2\n  0xffffffffffffffffffffffffffffffffffffffff\n  mul\n  not\n  and\n  swap1\n  dup4\n  0xffffffffffffffffffffffffffffffffffffffff\n  and\n  mul\n  or\n  swap1\n  sstore\n  pop\n    /* \"krisha7TokenSale.sol\":690:700  msg.sender */\n  caller\n    /* \"krisha7TokenSale.sol\":682:687  owner */\n  0x01\n  0x00\n    /* \"krisha7TokenSale.sol\":682:700  owner = msg.sender */\n  0x0100\n  exp\n  dup2\n  sload\n  dup2\n  0xffffffffffffffffffffffffffffffffffffffff\n  mul\n  not\n  and\n  swap1\n  dup4\n  0xffffffffffffffffffffffffffffffffffffffff\n  and\n  mul\n  or\n  swap1\n  sstore\n  pop\n    /* \"krisha7TokenSale.sol\":719:725  _price */\n  dup1\n    /* \"krisha7TokenSale.sol\":711:716  price */\n  0x02\n    /* \"krisha7TokenSale.sol\":711:725  price = _price */\n  dup2\n  swap1\n  sstore\n  pop\n    /* \"krisha7TokenSale.sol\":423:733  constructor(address _tokenAddress, uint256 _price) {... */\n  pop\n  pop\n    /* \"krisha7TokenSale.sol\":163:1416  contract TokenSale {... */\n  jump(tag_12)\n    /* \"#utility.yul\":88:205   */\ntag_14:\n    /* \"#utility.yul\":197:198   */\n  0x00\n    /* \"#utility.yul\":194:195   */\n  dup1\n    /* \"#utility.yul\":187:199   */\n  revert\n    /* \"#utility.yul\":334:460   */\ntag_16:\n    /* \"#utility.yul\":371:378   */\n  0x00\n    /* \"#utility.yul\":411:453   */\n  0xffffffffffffffffffffffffffffffffffffffff\n    /* \"#utility.yul\":404:409   */\n  dup3\n    /* \"#utility.yul\":400:454   */\n  and\n    /* \"#utility.yul\":389:454   */\n  swap1\n  pop\n    /* \"#utility.yul\":334:460   */\n  swap2\n  swap1\n  pop\n  jump\t// out\n    /* \"#utility.yul\":466:562   */\ntag_17:\n    /* \"#utility.yul\":503:510   */\n  0x00\n    /* \"#utility.yul\":532:556   */\n  tag_34\n    /* \"#utility.yul\":550:555   */\n  dup3\n    /* \"#utility.yul\":532:556   */\n  tag_16\n  jump\t// in\ntag_34:\n    /* \"#utility.yul\":521:556   */\n  swap1\n  pop\n    /* \"#utility.yul\":466:562   */\n  swap2\n  swap1\n  pop\n  jump\t// out\n    /* \"#utility.yul\":568:690   */\ntag_18:\n    /* \"#utility.yul\":641:665   */\n  tag_36\n    /* \"#utility.yul\":659:664   */\n  dup2\n    /* \"#utility.yul\":641:665   */\n  tag_17\n  jump\t// in\ntag_36:\n    /* \"#utility.yul\":634:639   */\n  dup2\n    /* \"#utility.yul\":631:666   */\n  eq\n    /* \"#utility.yul\":621:684   */\n  tag_37\n  jumpi\n    /* \"#utility.yul\":680:681   */\n  0x00\n    /* \"#utility.yul\":677:678   */\n  dup1\n    /* \"#utility.yul\":670:682   */\n  revert\n    /* \"#utility.yul\":621:684   */\ntag_37:\n    /* \"#utility.yul\":568:690   */\n  pop\n  jump\t// out\n    /* \"#utility.yul\":696:839   */\ntag_19:\n    /* \"#utility.yul\":753:758   */\n  0x00\n    /* \"#utility.yul\":784:790   */\n  dup2\n    /* \"#utility.yul\":778:791   */\n  mload\n    /* \"#utility.yul\":769:791   */\n  swap1\n  pop\n    /* \"#utility.yul\":800:833   */\n  tag_39\n    /* \"#utility.yul\":827:832   */\n  dup2\n    /* \"#utility.yul\":800:833   */\n  tag_18\n  jump\t// in\ntag_39:\n    /* \"#utility.yul\":696:839   */\n  swap3\n  swap2\n  pop\n  pop\n  jump\t// out\n    /* \"#utility.yul\":845:922   */\ntag_20:\n    /* \"#utility.yul\":882:889   */\n  0x00\n    /* \"#utility.yul\":911:916   */\n  dup2\n    /* \"#utility.yul\":900:916   */\n  swap1\n  pop\n    /* \"#utility.yul\":845:922   */\n  swap2\n  swap1\n  pop\n  jump\t// out\n    /* \"#utility.yul\":928:1050   */\ntag_21:\n    /* \"#utility.yul\":1001:1025   */\n  tag_42\n    /* \"#utility.yul\":1019:1024   */\n  dup2\n    /* \"#utility.yul\":1001:1025   */\n  tag_20\n  jump\t// in\ntag_42:\n    /* \"#utility.yul\":994:999   */\n  dup2\n    /* \"#utility.yul\":991:1026   */\n  eq\n    /* \"#utility.yul\":981:1044   */\n  tag_43\n  jumpi\n    /* \"#utility.yul\":1040:1041   */\n  0x00\n    /* \"#utility.yul\":1037:1038   */\n  dup1\n    /* \"#utility.yul\":1030:1042   */\n  revert\n    /* \"#utility.yul\":981:1044   */\ntag_43:\n    /* \"#utility.yul\":928:1050   */\n  pop\n  jump\t// out\n    /* \"#utility.yul\":1056:1199   */\ntag_22:\n    /* \"#utility.yul\":1113:1118   */\n  0x00\n    /* \"#utility.yul\":1144:1150   */\n  dup2\n    /* \"#utility.yul\":1138:1151   */\n  mload\n    /* \"#utility.yul\":1129:1151   */\n  swap1\n  pop\n    /* \"#utility.yul\":1160:1193   */\n  tag_45\n    /* \"#utility.yul\":1187:1192   */\n  dup2\n    /* \"#utility.yul\":1160:1193   */\n  tag_21\n  jump\t// in\ntag_45:\n    /* \"#utility.yul\":1056:1199   */\n  swap3\n  swap2\n  pop\n  pop\n  jump\t// out\n    /* \"#utility.yul\":1205:1712   */\ntag_3:\n    /* \"#utility.yul\":1284:1290   */\n  0x00\n    /* \"#utility.yul\":1292:1298   */\n  dup1\n    /* \"#utility.yul\":1341:1343   */\n  0x40\n    /* \"#utility.yul\":1329:1338   */\n  dup4\n    /* \"#utility.yul\":1320:1327   */\n  dup6\n    /* \"#utility.yul\":1316:1339   */\n  sub\n    /* \"#utility.yul\":1312:1344   */\n  slt\n    /* \"#utility.yul\":1309:1428   */\n  iszero\n  tag_47\n  jumpi\n    /* \"#utility.yul\":1347:1426   */\n  tag_48\n  tag_14\n  jump\t// in\ntag_48:\n    /* \"#utility.yul\":1309:1428   */\ntag_47:\n    /* \"#utility.yul\":1467:1468   */\n  0x00\n    /* \"#utility.yul\":1492:1556   */\n  tag_49\n    /* \"#utility.yul\":1548:1555   */\n  dup6\n    /* \"#utility.yul\":1539:1545   */\n  dup3\n    /* \"#utility.yul\":1528:1537   */\n  dup7\n    /* \"#utility.yul\":1524:1546   */\n  add\n    /* \"#utility.yul\":1492:1556   */\n  tag_19\n  jump\t// in\ntag_49:\n    /* \"#utility.yul\":1482:1556   */\n  swap3\n  pop\n    /* \"#utility.yul\":1438:1566   */\n  pop\n    /* \"#utility.yul\":1605:1607   */\n  0x20\n    /* \"#utility.yul\":1631:1695   */\n  tag_50\n    /* \"#utility.yul\":1687:1694   */\n  dup6\n    /* \"#utility.yul\":1678:1684   */\n  dup3\n    /* \"#utility.yul\":1667:1676   */\n  dup7\n    /* \"#utility.yul\":1663:1685   */\n  add\n    /* \"#utility.yul\":1631:1695   */\n  tag_22\n  jump\t// in\ntag_50:\n    /* \"#utility.yul\":1621:1695   */\n  swap2\n  pop\n    /* \"#utility.yul\":1576:1705   */\n  pop\n    /* \"#utility.yul\":1205:1712   */\n  swap3\n  pop\n  swap3\n  swap1\n  pop\n  jump\t// out\n    /* \"#utility.yul\":1718:1887   */\ntag_23:\n    /* \"#utility.yul\":1802:1813   */\n  0x00\n    /* \"#utility.yul\":1836:1842   */\n  dup3\n    /* \"#utility.yul\":1831:1834   */\n  dup3\n    /* \"#utility.yul\":1824:1843   */\n  mstore\n    /* \"#utility.yul\":1876:1880   */\n  0x20\n    /* \"#utility.yul\":1871:1874   */\n  dup3\n    /* \"#utility.yul\":1867:1881   */\n  add\n    /* \"#utility.yul\":1852:1881   */\n  swap1\n  pop\n    /* \"#utility.yul\":1718:1887   */\n  swap3\n  swap2\n  pop\n  pop\n  jump\t// out\n    /* \"#utility.yul\":1893:2117   */\ntag_24:\n    /* \"#utility.yul\":2033:2067   */\n  0x546f6b656e20616464726573732063616e6e6f74206265207a65726f20616464\n    /* \"#utility.yul\":2029:2030   */\n  0x00\n    /* \"#utility.yul\":2021:2027   */\n  dup3\n    /* \"#utility.yul\":2017:2031   */\n  add\n    /* \"#utility.yul\":2010:2068   */\n  mstore\n    /* \"#utility.yul\":2102:2109   */\n  0x726573732e000000000000000000000000000000000000000000000000000000\n    /* \"#utility.yul\":2097:2099   */\n  0x20\n    /* \"#utility.yul\":2089:2095   */\n  dup3\n    /* \"#utility.yul\":2085:2100   */\n  add\n    /* \"#utility.yul\":2078:2110   */\n  mstore\n    /* \"#utility.yul\":1893:2117   */\n  pop\n  jump\t// out\n    /* \"#utility.yul\":2123:2489   */\ntag_25:\n    /* \"#utility.yul\":2265:2268   */\n  0x00\n    /* \"#utility.yul\":2286:2353   */\n  tag_54\n    /* \"#utility.yul\":2350:2352   */\n  0x25\n    /* \"#utility.yul\":2345:2348   */\n  dup4\n    /* \"#utility.yul\":2286:2353   */\n  tag_23\n  jump\t// in\ntag_54:\n    /* \"#utility.yul\":2279:2353   */\n  swap2\n  pop\n    /* \"#utility.yul\":2362:2455   */\n  tag_55\n    /* \"#utility.yul\":2451:2454   */\n  dup3\n    /* \"#utility.yul\":2362:2455   */\n  tag_24\n  jump\t// in\ntag_55:\n    /* \"#utility.yul\":2480:2482   */\n  0x40\n    /* \"#utility.yul\":2475:2478   */\n  dup3\n    /* \"#utility.yul\":2471:2483   */\n  add\n    /* \"#utility.yul\":2464:2483   */\n  swap1\n  pop\n    /* \"#utility.yul\":2123:2489   */\n  swap2\n  swap1\n  pop\n  jump\t// out\n    /* \"#utility.yul\":2495:2914   */\ntag_8:\n    /* \"#utility.yul\":2661:2665   */\n  0x00\n    /* \"#utility.yul\":2699:2701   */\n  0x20\n    /* \"#utility.yul\":2688:2697   */\n  dup3\n    /* \"#utility.yul\":2684:2702   */\n  add\n    /* \"#utility.yul\":2676:2702   */\n  swap1\n  pop\n    /* \"#utility.yul\":2748:2757   */\n  dup2\n    /* \"#utility.yul\":2742:2746   */\n  dup2\n    /* \"#utility.yul\":2738:2758   */\n  sub\n    /* \"#utility.yul\":2734:2735   */\n  0x00\n    /* \"#utility.yul\":2723:2732   */\n  dup4\n    /* \"#utility.yul\":2719:2736   */\n  add\n    /* \"#utility.yul\":2712:2759   */\n  mstore\n    /* \"#utility.yul\":2776:2907   */\n  tag_57\n    /* \"#utility.yul\":2902:2906   */\n  dup2\n    /* \"#utility.yul\":2776:2907   */\n  tag_25\n  jump\t// in\ntag_57:\n    /* \"#utility.yul\":2768:2907   */\n  swap1\n  pop\n    /* \"#utility.yul\":2495:2914   */\n  swap2\n  swap1\n  pop\n  jump\t// out\n    /* \"#utility.yul\":2920:3141   */\ntag_26:\n    /* \"#utility.yul\":3060:3094   */\n  0x50726963652073686f756c642062652067726561746572207468616e207a6572\n    /* \"#utility.yul\":3056:3057   */\n  0x00\n    /* \"#utility.yul\":3048:3054   */\n  dup3\n    /* \"#utility.yul\":3044:3058   */\n  add\n    /* \"#utility.yul\":3037:3095   */\n  mstore\n    /* \"#utility.yul\":3129:3133   */\n  0x6f2e000000000000000000000000000000000000000000000000000000000000\n    /* \"#utility.yul\":3124:3126   */\n  0x20\n    /* \"#utility.yul\":3116:3122   */\n  dup3\n    /* \"#utility.yul\":3112:3127   */\n  add\n    /* \"#utility.yul\":3105:3134   */\n  mstore\n    /* \"#utility.yul\":2920:3141   */\n  pop\n  jump\t// out\n    /* \"#utility.yul\":3147:3513   */\ntag_27:\n    /* \"#utility.yul\":3289:3292   */\n  0x00\n    /* \"#utility.yul\":3310:3377   */\n  tag_60\n    /* \"#utility.yul\":3374:3376   */\n  0x22\n    /* \"#utility.yul\":3369:3372   */\n  dup4\n    /* \"#utility.yul\":3310:3377   */\n  tag_23\n  jump\t// in\ntag_60:\n    /* \"#utility.yul\":3303:3377   */\n  swap2\n  pop\n    /* \"#utility.yul\":3386:3479   */\n  tag_61\n    /* \"#utility.yul\":3475:3478   */\n  dup3\n    /* \"#utility.yul\":3386:3479   */\n  tag_26\n  jump\t// in\ntag_61:\n    /* \"#utility.yul\":3504:3506   */\n  0x40\n    /* \"#utility.yul\":3499:3502   */\n  dup3\n    /* \"#utility.yul\":3495:3507   */\n  add\n    /* \"#utility.yul\":3488:3507   */\n  swap1\n  pop\n    /* \"#utility.yul\":3147:3513   */\n  swap2\n  swap1\n  pop\n  jump\t// out\n    /* \"#utility.yul\":3519:3938   */\ntag_11:\n    /* \"#utility.yul\":3685:3689   */\n  0x00\n    /* \"#utility.yul\":3723:3725   */\n  0x20\n    /* \"#utility.yul\":3712:3721   */\n  dup3\n    /* \"#utility.yul\":3708:3726   */\n  add\n    /* \"#utility.yul\":3700:3726   */\n  swap1\n  pop\n    /* \"#utility.yul\":3772:3781   */\n  dup2\n    /* \"#utility.yul\":3766:3770   */\n  dup2\n    /* \"#utility.yul\":3762:3782   */\n  sub\n    /* \"#utility.yul\":3758:3759   */\n  0x00\n    /* \"#utility.yul\":3747:3756   */\n  dup4\n    /* \"#utility.yul\":3743:3760   */\n  add\n    /* \"#utility.yul\":3736:3783   */\n  mstore\n    /* \"#utility.yul\":3800:3931   */\n  tag_63\n    /* \"#utility.yul\":3926:3930   */\n  dup2\n    /* \"#utility.yul\":3800:3931   */\n  tag_27\n  jump\t// in\ntag_63:\n    /* \"#utility.yul\":3792:3931   */\n  swap1\n  pop\n    /* \"#utility.yul\":3519:3938   */\n  swap2\n  swap1\n  pop\n  jump\t// out\n    /* \"krisha7TokenSale.sol\":163:1416  contract TokenSale {... */\ntag_12:\n  dataSize(sub_0)\n  dup1\n  dataOffset(sub_0)\n  0x00\n  codecopy\n  0x00\n  return\nstop\n\nsub_0: assembly {\n        /* \"krisha7TokenSale.sol\":163:1416  contract TokenSale {... */\n      mstore(0x40, 0x80)\n      jumpi(tag_1, lt(calldatasize, 0x04))\n      shr(0xe0, calldataload(0x00))\n      dup1\n      0x24600fc3\n      eq\n      tag_2\n      jumpi\n      dup1\n      0x64edfbf0\n      eq\n      tag_3\n      jumpi\n      dup1\n      0x8da5cb5b\n      eq\n      tag_4\n      jumpi\n      dup1\n      0x91b7f5ed\n      eq\n      tag_5\n      jumpi\n      dup1\n      0xa035b1fe\n      eq\n      tag_6\n      jumpi\n      dup1\n      0xfc0c546a\n      eq\n      tag_7\n      jumpi\n    tag_1:\n      0x00\n      dup1\n      revert\n        /* \"krisha7TokenSale.sol\":1304:1413  function withdrawFunds() external onlyOwner {... */\n    tag_2:\n      callvalue\n      dup1\n      iszero\n      tag_8\n      jumpi\n      0x00\n      dup1\n      revert\n    tag_8:\n      pop\n      tag_9\n      tag_10\n      jump\t// in\n    tag_9:\n      stop\n        /* \"krisha7TokenSale.sol\":741:1125  function purchase() external payable {... */\n    tag_3:\n      tag_11\n      tag_12\n      jump\t// in\n    tag_11:\n      stop\n        /* \"krisha7TokenSale.sol\":214:234  address public owner */\n    tag_4:\n      callvalue\n      dup1\n      iszero\n      tag_13\n      jumpi\n      0x00\n      dup1\n      revert\n    tag_13:\n      pop\n      tag_14\n      tag_15\n      jump\t// in\n    tag_14:\n      mload(0x40)\n      tag_16\n      swap2\n      swap1\n      tag_17\n      jump\t// in\n    tag_16:\n      mload(0x40)\n      dup1\n      swap2\n      sub\n      swap1\n      return\n        /* \"krisha7TokenSale.sol\":1133:1296  function setPrice(uint256 _newPrice) external onlyOwner {... */\n    tag_5:\n      callvalue\n      dup1\n      iszero\n      tag_18\n      jumpi\n      0x00\n      dup1\n      revert\n    tag_18:\n      pop\n      tag_19\n      0x04\n      dup1\n      calldatasize\n      sub\n      dup2\n      add\n      swap1\n      tag_20\n      swap2\n      swap1\n      tag_21\n      jump\t// in\n    tag_20:\n      tag_22\n      jump\t// in\n    tag_19:\n      stop\n        /* \"krisha7TokenSale.sol\":241:261  uint256 public price */\n    tag_6:\n      callvalue\n      dup1\n      iszero\n      tag_23\n      jumpi\n      0x00\n      dup1\n      revert\n    tag_23:\n      pop\n      tag_24\n      tag_25\n      jump\t// in\n    tag_24:\n      mload(0x40)\n      tag_26\n      swap2\n      swap1\n      tag_27\n      jump\t// in\n    tag_26:\n      mload(0x40)\n      dup1\n      swap2\n      sub\n      swap1\n      return\n        /* \"krisha7TokenSale.sol\":189:207  ERC20 public token */\n    tag_7:\n      callvalue\n      dup1\n      iszero\n      tag_28\n      jumpi\n      0x00\n      dup1\n      revert\n    tag_28:\n      pop\n      tag_29\n      tag_30\n      jump\t// in\n    tag_29:\n      mload(0x40)\n      tag_31\n      swap2\n      swap1\n      tag_32\n      jump\t// in\n    tag_31:\n      mload(0x40)\n      dup1\n      swap2\n      sub\n      swap1\n      return\n        /* \"krisha7TokenSale.sol\":1304:1413  function withdrawFunds() external onlyOwner {... */\n    tag_10:\n        /* \"krisha7TokenSale.sol\":353:358  owner */\n      0x01\n      0x00\n      swap1\n      sload\n      swap1\n      0x0100\n      exp\n      swap1\n      div\n      0xffffffffffffffffffffffffffffffffffffffff\n      and\n        /* \"krisha7TokenSale.sol\":339:358  msg.sender == owner */\n      0xffffffffffffffffffffffffffffffffffffffff\n      and\n        /* \"krisha7TokenSale.sol\":339:349  msg.sender */\n      caller\n        /* \"krisha7TokenSale.sol\":339:358  msg.sender == owner */\n      0xffffffffffffffffffffffffffffffffffffffff\n      and\n      eq\n        /* \"krisha7TokenSale.sol\":331:395  require(msg.sender == owner, \"Only the owner can execute this.\") */\n      tag_34\n      jumpi\n      mload(0x40)\n      0x08c379a000000000000000000000000000000000000000000000000000000000\n      dup2\n      mstore\n      0x04\n      add\n      tag_35\n      swap1\n      tag_36\n      jump\t// in\n    tag_35:\n      mload(0x40)\n      dup1\n      swap2\n      sub\n      swap1\n      revert\n    tag_34:\n        /* \"krisha7TokenSale.sol\":1367:1372  owner */\n      0x01\n      0x00\n      swap1\n      sload\n      swap1\n      0x0100\n      exp\n      swap1\n      div\n      0xffffffffffffffffffffffffffffffffffffffff\n      and\n        /* \"krisha7TokenSale.sol\":1359:1382  payable(owner).transfer */\n      0xffffffffffffffffffffffffffffffffffffffff\n      and\n        /* \"krisha7TokenSale.sol\":1359:1405  payable(owner).transfer(address(this).balance) */\n      0x08fc\n        /* \"krisha7TokenSale.sol\":1383:1404  address(this).balance */\n      selfbalance\n        /* \"krisha7TokenSale.sol\":1359:1405  payable(owner).transfer(address(this).balance) */\n      swap1\n      dup2\n      iszero\n      mul\n      swap1\n      mload(0x40)\n      0x00\n      mload(0x40)\n      dup1\n      dup4\n      sub\n      dup2\n      dup6\n      dup9\n      dup9\n      call\n      swap4\n      pop\n      pop\n      pop\n      pop\n      iszero\n      dup1\n      iszero\n      tag_39\n      jumpi\n      returndatasize\n      0x00\n      dup1\n      returndatacopy\n      revert(0x00, returndatasize)\n    tag_39:\n      pop\n        /* \"krisha7TokenSale.sol\":1304:1413  function withdrawFunds() external onlyOwner {... */\n      jump\t// out\n        /* \"krisha7TokenSale.sol\":741:1125  function purchase() external payable {... */\n    tag_12:\n        /* \"krisha7TokenSale.sol\":789:813  uint256 amountToPurchase */\n      0x00\n        /* \"krisha7TokenSale.sol\":828:833  price */\n      sload(0x02)\n        /* \"krisha7TokenSale.sol\":816:825  msg.value */\n      callvalue\n        /* \"krisha7TokenSale.sol\":816:833  msg.value / price */\n      tag_41\n      swap2\n      swap1\n      tag_42\n      jump\t// in\n    tag_41:\n        /* \"krisha7TokenSale.sol\":789:833  uint256 amountToPurchase = msg.value / price */\n      swap1\n      pop\n        /* \"krisha7TokenSale.sol\":871:872  0 */\n      0x00\n        /* \"krisha7TokenSale.sol\":852:868  amountToPurchase */\n      dup2\n        /* \"krisha7TokenSale.sol\":852:872  amountToPurchase > 0 */\n      gt\n        /* \"krisha7TokenSale.sol\":844:901  require(amountToPurchase > 0, \"Insufficient ether sent.\") */\n      tag_43\n      jumpi\n      mload(0x40)\n      0x08c379a000000000000000000000000000000000000000000000000000000000\n      dup2\n      mstore\n      0x04\n      add\n      tag_44\n      swap1\n      tag_45\n      jump\t// in\n    tag_44:\n      mload(0x40)\n      dup1\n      swap2\n      sub\n      swap1\n      revert\n    tag_43:\n        /* \"krisha7TokenSale.sol\":954:970  amountToPurchase */\n      dup1\n        /* \"krisha7TokenSale.sol\":920:925  token */\n      0x00\n      dup1\n      sload\n      swap1\n      0x0100\n      exp\n      swap1\n      div\n      0xffffffffffffffffffffffffffffffffffffffff\n      and\n        /* \"krisha7TokenSale.sol\":920:935  token.balanceOf */\n      0xffffffffffffffffffffffffffffffffffffffff\n      and\n      0x70a08231\n        /* \"krisha7TokenSale.sol\":944:948  this */\n      address\n        /* \"krisha7TokenSale.sol\":920:950  token.balanceOf(address(this)) */\n      mload(0x40)\n      dup3\n      0xffffffff\n      and\n      0xe0\n      shl\n      dup2\n      mstore\n      0x04\n      add\n      tag_46\n      swap2\n      swap1\n      tag_17\n      jump\t// in\n    tag_46:\n      0x20\n      mload(0x40)\n      dup1\n      dup4\n      sub\n      dup2\n      dup7\n      gas\n      staticcall\n      iszero\n      dup1\n      iszero\n      tag_48\n      jumpi\n      returndatasize\n      0x00\n      dup1\n      returndatacopy\n      revert(0x00, returndatasize)\n    tag_48:\n      pop\n      pop\n      pop\n      pop\n      mload(0x40)\n      returndatasize\n      not(0x1f)\n      0x1f\n      dup3\n      add\n      and\n      dup3\n      add\n      dup1\n      0x40\n      mstore\n      pop\n      dup2\n      add\n      swap1\n      tag_49\n      swap2\n      swap1\n      tag_50\n      jump\t// in\n    tag_49:\n        /* \"krisha7TokenSale.sol\":920:970  token.balanceOf(address(this)) >= amountToPurchase */\n      lt\n      iszero\n        /* \"krisha7TokenSale.sol\":912:1014  require(token.balanceOf(address(this)) >= amountToPurchase, \"Insufficient tokens available for sale.\") */\n      tag_51\n      jumpi\n      mload(0x40)\n      0x08c379a000000000000000000000000000000000000000000000000000000000\n      dup2\n      mstore\n      0x04\n      add\n      tag_52\n      swap1\n      tag_53\n      jump\t// in\n    tag_52:\n      mload(0x40)\n      dup1\n      swap2\n      sub\n      swap1\n      revert\n    tag_51:\n        /* \"krisha7TokenSale.sol\":1073:1078  token */\n      0x00\n      dup1\n      sload\n      swap1\n      0x0100\n      exp\n      swap1\n      div\n      0xffffffffffffffffffffffffffffffffffffffff\n      and\n        /* \"krisha7TokenSale.sol\":1073:1087  token.transfer */\n      0xffffffffffffffffffffffffffffffffffffffff\n      and\n      0xa9059cbb\n        /* \"krisha7TokenSale.sol\":1088:1098  msg.sender */\n      caller\n        /* \"krisha7TokenSale.sol\":1100:1116  amountToPurchase */\n      dup4\n        /* \"krisha7TokenSale.sol\":1073:1117  token.transfer(msg.sender, amountToPurchase) */\n      mload(0x40)\n      dup4\n      0xffffffff\n      and\n      0xe0\n      shl\n      dup2\n      mstore\n      0x04\n      add\n      tag_54\n      swap3\n      swap2\n      swap1\n      tag_55\n      jump\t// in\n    tag_54:\n      0x20\n      mload(0x40)\n      dup1\n      dup4\n      sub\n      dup2\n      0x00\n      dup8\n      gas\n      call\n      iszero\n      dup1\n      iszero\n      tag_57\n      jumpi\n      returndatasize\n      0x00\n      dup1\n      returndatacopy\n      revert(0x00, returndatasize)\n    tag_57:\n      pop\n      pop\n      pop\n      pop\n      mload(0x40)\n      returndatasize\n      not(0x1f)\n      0x1f\n      dup3\n      add\n      and\n      dup3\n      add\n      dup1\n      0x40\n      mstore\n      pop\n      dup2\n      add\n      swap1\n      tag_58\n      swap2\n      swap1\n      tag_59\n      jump\t// in\n    tag_58:\n      pop\n        /* \"krisha7TokenSale.sol\":778:1125  {... */\n      pop\n        /* \"krisha7TokenSale.sol\":741:1125  function purchase() external payable {... */\n      jump\t// out\n        /* \"krisha7TokenSale.sol\":214:234  address public owner */\n    tag_15:\n      0x01\n      0x00\n      swap1\n      sload\n      swap1\n      0x0100\n      exp\n      swap1\n      div\n      0xffffffffffffffffffffffffffffffffffffffff\n      and\n      dup2\n      jump\t// out\n        /* \"krisha7TokenSale.sol\":1133:1296  function setPrice(uint256 _newPrice) external onlyOwner {... */\n    tag_22:\n        /* \"krisha7TokenSale.sol\":353:358  owner */\n      0x01\n      0x00\n      swap1\n      sload\n      swap1\n      0x0100\n      exp\n      swap1\n      div\n      0xffffffffffffffffffffffffffffffffffffffff\n      and\n        /* \"krisha7TokenSale.sol\":339:358  msg.sender == owner */\n      0xffffffffffffffffffffffffffffffffffffffff\n      and\n        /* \"krisha7TokenSale.sol\":339:349  msg.sender */\n      caller\n        /* \"krisha7TokenSale.sol\":339:358  msg.sender == owner */\n      0xffffffffffffffffffffffffffffffffffffffff\n      and\n      eq\n        /* \"krisha7TokenSale.sol\":331:395  require(msg.sender == owner, \"Only the owner can execute this.\") */\n      tag_61\n      jumpi\n      mload(0x40)\n      0x08c379a000000000000000000000000000000000000000000000000000000000\n      dup2\n      mstore\n      0x04\n      add\n      tag_62\n      swap1\n      tag_36\n      jump\t// in\n    tag_62:\n      mload(0x40)\n      dup1\n      swap2\n      sub\n      swap1\n      revert\n    tag_61:\n        /* \"krisha7TokenSale.sol\":1220:1221  0 */\n      0x00\n        /* \"krisha7TokenSale.sol\":1208:1217  _newPrice */\n      dup2\n        /* \"krisha7TokenSale.sol\":1208:1221  _newPrice > 0 */\n      gt\n        /* \"krisha7TokenSale.sol\":1200:1260  require(_newPrice > 0, \"Price should be greater than zero.\") */\n      tag_64\n      jumpi\n      mload(0x40)\n      0x08c379a000000000000000000000000000000000000000000000000000000000\n      dup2\n      mstore\n      0x04\n      add\n      tag_65\n      swap1\n      tag_66\n      jump\t// in\n    tag_65:\n      mload(0x40)\n      dup1\n      swap2\n      sub\n      swap1\n      revert\n    tag_64:\n        /* \"krisha7TokenSale.sol\":1279:1288  _newPrice */\n      dup1\n        /* \"krisha7TokenSale.sol\":1271:1276  price */\n      0x02\n        /* \"krisha7TokenSale.sol\":1271:1288  price = _newPrice */\n      dup2\n      swap1\n      sstore\n      pop\n        /* \"krisha7TokenSale.sol\":1133:1296  function setPrice(uint256 _newPrice) external onlyOwner {... */\n      pop\n      jump\t// out\n        /* \"krisha7TokenSale.sol\":241:261  uint256 public price */\n    tag_25:\n      sload(0x02)\n      dup2\n      jump\t// out\n        /* \"krisha7TokenSale.sol\":189:207  ERC20 public token */\n    tag_30:\n      0x00\n      dup1\n      sload\n      swap1\n      0x0100\n      exp\n      swap1\n      div\n      0xffffffffffffffffffffffffffffffffffffffff\n      and\n      dup2\n      jump\t// out\n        /* \"#utility.yul\":7:133   */\n    tag_67:\n        /* \"#utility.yul\":44:51   */\n      0x00\n        /* \"#utility.yul\":84:126   */\n      0xffffffffffffffffffffffffffffffffffffffff\n        /* \"#utility.yul\":77:82   */\n      dup3\n        /* \"#utility.yul\":73:127   */\n      and\n        /* \"#utility.yul\":62:127   */\n      swap1\n      pop\n        /* \"#utility.yul\":7:133   */\n      swap2\n      swap1\n      pop\n      jump\t// out\n        /* \"#utility.yul\":139:235   */\n    tag_68:\n        /* \"#utility.yul\":176:183   */\n      0x00\n        /* \"#utility.yul\":205:229   */\n      tag_100\n        /* \"#utility.yul\":223:228   */\n      dup3\n        /* \"#utility.yul\":205:229   */\n      tag_67\n      jump\t// in\n    tag_100:\n        /* \"#utility.yul\":194:229   */\n      swap1\n      pop\n        /* \"#utility.yul\":139:235   */\n      swap2\n      swap1\n      pop\n      jump\t// out\n        /* \"#utility.yul\":241:359   */\n    tag_69:\n        /* \"#utility.yul\":328:352   */\n      tag_102\n        /* \"#utility.yul\":346:351   */\n      dup2\n        /* \"#utility.yul\":328:352   */\n      tag_68\n      jump\t// in\n    tag_102:\n        /* \"#utility.yul\":323:326   */\n      dup3\n        /* \"#utility.yul\":316:353   */\n      mstore\n        /* \"#utility.yul\":241:359   */\n      pop\n      pop\n      jump\t// out\n        /* \"#utility.yul\":365:587   */\n    tag_17:\n        /* \"#utility.yul\":458:462   */\n      0x00\n        /* \"#utility.yul\":496:498   */\n      0x20\n        /* \"#utility.yul\":485:494   */\n      dup3\n        /* \"#utility.yul\":481:499   */\n      add\n        /* \"#utility.yul\":473:499   */\n      swap1\n      pop\n        /* \"#utility.yul\":509:580   */\n      tag_104\n        /* \"#utility.yul\":577:578   */\n      0x00\n        /* \"#utility.yul\":566:575   */\n      dup4\n        /* \"#utility.yul\":562:579   */\n      add\n        /* \"#utility.yul\":553:559   */\n      dup5\n        /* \"#utility.yul\":509:580   */\n      tag_69\n      jump\t// in\n    tag_104:\n        /* \"#utility.yul\":365:587   */\n      swap3\n      swap2\n      pop\n      pop\n      jump\t// out\n        /* \"#utility.yul\":674:791   */\n    tag_71:\n        /* \"#utility.yul\":783:784   */\n      0x00\n        /* \"#utility.yul\":780:781   */\n      dup1\n        /* \"#utility.yul\":773:785   */\n      revert\n        /* \"#utility.yul\":920:997   */\n    tag_73:\n        /* \"#utility.yul\":957:964   */\n      0x00\n        /* \"#utility.yul\":986:991   */\n      dup2\n        /* \"#utility.yul\":975:991   */\n      swap1\n      pop\n        /* \"#utility.yul\":920:997   */\n      swap2\n      swap1\n      pop\n      jump\t// out\n        /* \"#utility.yul\":1003:1125   */\n    tag_74:\n        /* \"#utility.yul\":1076:1100   */\n      tag_110\n        /* \"#utility.yul\":1094:1099   */\n      dup2\n        /* \"#utility.yul\":1076:1100   */\n      tag_73\n      jump\t// in\n    tag_110:\n        /* \"#utility.yul\":1069:1074   */\n      dup2\n        /* \"#utility.yul\":1066:1101   */\n      eq\n        /* \"#utility.yul\":1056:1119   */\n      tag_111\n      jumpi\n        /* \"#utility.yul\":1115:1116   */\n      0x00\n        /* \"#utility.yul\":1112:1113   */\n      dup1\n        /* \"#utility.yul\":1105:1117   */\n      revert\n        /* \"#utility.yul\":1056:1119   */\n    tag_111:\n        /* \"#utility.yul\":1003:1125   */\n      pop\n      jump\t// out\n        /* \"#utility.yul\":1131:1270   */\n    tag_75:\n        /* \"#utility.yul\":1177:1182   */\n      0x00\n        /* \"#utility.yul\":1215:1221   */\n      dup2\n        /* \"#utility.yul\":1202:1222   */\n      calldataload\n        /* \"#utility.yul\":1193:1222   */\n      swap1\n      pop\n        /* \"#utility.yul\":1231:1264   */\n      tag_113\n        /* \"#utility.yul\":1258:1263   */\n      dup2\n        /* \"#utility.yul\":1231:1264   */\n      tag_74\n      jump\t// in\n    tag_113:\n        /* \"#utility.yul\":1131:1270   */\n      swap3\n      swap2\n      pop\n      pop\n      jump\t// out\n        /* \"#utility.yul\":1276:1605   */\n    tag_21:\n        /* \"#utility.yul\":1335:1341   */\n      0x00\n        /* \"#utility.yul\":1384:1386   */\n      0x20\n        /* \"#utility.yul\":1372:1381   */\n      dup3\n        /* \"#utility.yul\":1363:1370   */\n      dup5\n        /* \"#utility.yul\":1359:1382   */\n      sub\n        /* \"#utility.yul\":1355:1387   */\n      slt\n        /* \"#utility.yul\":1352:1471   */\n      iszero\n      tag_115\n      jumpi\n        /* \"#utility.yul\":1390:1469   */\n      tag_116\n      tag_71\n      jump\t// in\n    tag_116:\n        /* \"#utility.yul\":1352:1471   */\n    tag_115:\n        /* \"#utility.yul\":1510:1511   */\n      0x00\n        /* \"#utility.yul\":1535:1588   */\n      tag_117\n        /* \"#utility.yul\":1580:1587   */\n      dup5\n        /* \"#utility.yul\":1571:1577   */\n      dup3\n        /* \"#utility.yul\":1560:1569   */\n      dup6\n        /* \"#utility.yul\":1556:1578   */\n      add\n        /* \"#utility.yul\":1535:1588   */\n      tag_75\n      jump\t// in\n    tag_117:\n        /* \"#utility.yul\":1525:1588   */\n      swap2\n      pop\n        /* \"#utility.yul\":1481:1598   */\n      pop\n        /* \"#utility.yul\":1276:1605   */\n      swap3\n      swap2\n      pop\n      pop\n      jump\t// out\n        /* \"#utility.yul\":1611:1729   */\n    tag_76:\n        /* \"#utility.yul\":1698:1722   */\n      tag_119\n        /* \"#utility.yul\":1716:1721   */\n      dup2\n        /* \"#utility.yul\":1698:1722   */\n      tag_73\n      jump\t// in\n    tag_119:\n        /* \"#utility.yul\":1693:1696   */\n      dup3\n        /* \"#utility.yul\":1686:1723   */\n      mstore\n        /* \"#utility.yul\":1611:1729   */\n      pop\n      pop\n      jump\t// out\n        /* \"#utility.yul\":1735:1957   */\n    tag_27:\n        /* \"#utility.yul\":1828:1832   */\n      0x00\n        /* \"#utility.yul\":1866:1868   */\n      0x20\n        /* \"#utility.yul\":1855:1864   */\n      dup3\n        /* \"#utility.yul\":1851:1869   */\n      add\n        /* \"#utility.yul\":1843:1869   */\n      swap1\n      pop\n        /* \"#utility.yul\":1879:1950   */\n      tag_121\n        /* \"#utility.yul\":1947:1948   */\n      0x00\n        /* \"#utility.yul\":1936:1945   */\n      dup4\n        /* \"#utility.yul\":1932:1949   */\n      add\n        /* \"#utility.yul\":1923:1929   */\n      dup5\n        /* \"#utility.yul\":1879:1950   */\n      tag_76\n      jump\t// in\n    tag_121:\n        /* \"#utility.yul\":1735:1957   */\n      swap3\n      swap2\n      pop\n      pop\n      jump\t// out\n        /* \"#utility.yul\":1963:2023   */\n    tag_77:\n        /* \"#utility.yul\":1991:1994   */\n      0x00\n        /* \"#utility.yul\":2012:2017   */\n      dup2\n        /* \"#utility.yul\":2005:2017   */\n      swap1\n      pop\n        /* \"#utility.yul\":1963:2023   */\n      swap2\n      swap1\n      pop\n      jump\t// out\n        /* \"#utility.yul\":2029:2171   */\n    tag_78:\n        /* \"#utility.yul\":2079:2088   */\n      0x00\n        /* \"#utility.yul\":2112:2165   */\n      tag_124\n        /* \"#utility.yul\":2130:2164   */\n      tag_125\n        /* \"#utility.yul\":2139:2163   */\n      tag_126\n        /* \"#utility.yul\":2157:2162   */\n      dup5\n        /* \"#utility.yul\":2139:2163   */\n      tag_67\n      jump\t// in\n    tag_126:\n        /* \"#utility.yul\":2130:2164   */\n      tag_77\n      jump\t// in\n    tag_125:\n        /* \"#utility.yul\":2112:2165   */\n      tag_67\n      jump\t// in\n    tag_124:\n        /* \"#utility.yul\":2099:2165   */\n      swap1\n      pop\n        /* \"#utility.yul\":2029:2171   */\n      swap2\n      swap1\n      pop\n      jump\t// out\n        /* \"#utility.yul\":2177:2303   */\n    tag_79:\n        /* \"#utility.yul\":2227:2236   */\n      0x00\n        /* \"#utility.yul\":2260:2297   */\n      tag_128\n        /* \"#utility.yul\":2291:2296   */\n      dup3\n        /* \"#utility.yul\":2260:2297   */\n      tag_78\n      jump\t// in\n    tag_128:\n        /* \"#utility.yul\":2247:2297   */\n      swap1\n      pop\n        /* \"#utility.yul\":2177:2303   */\n      swap2\n      swap1\n      pop\n      jump\t// out\n        /* \"#utility.yul\":2309:2448   */\n    tag_80:\n        /* \"#utility.yul\":2372:2381   */\n      0x00\n        /* \"#utility.yul\":2405:2442   */\n      tag_130\n        /* \"#utility.yul\":2436:2441   */\n      dup3\n        /* \"#utility.yul\":2405:2442   */\n      tag_79\n      jump\t// in\n    tag_130:\n        /* \"#utility.yul\":2392:2442   */\n      swap1\n      pop\n        /* \"#utility.yul\":2309:2448   */\n      swap2\n      swap1\n      pop\n      jump\t// out\n        /* \"#utility.yul\":2454:2611   */\n    tag_81:\n        /* \"#utility.yul\":2554:2604   */\n      tag_132\n        /* \"#utility.yul\":2598:2603   */\n      dup2\n        /* \"#utility.yul\":2554:2604   */\n      tag_80\n      jump\t// in\n    tag_132:\n        /* \"#utility.yul\":2549:2552   */\n      dup3\n        /* \"#utility.yul\":2542:2605   */\n      mstore\n        /* \"#utility.yul\":2454:2611   */\n      pop\n      pop\n      jump\t// out\n        /* \"#utility.yul\":2617:2865   */\n    tag_32:\n        /* \"#utility.yul\":2723:2727   */\n      0x00\n        /* \"#utility.yul\":2761:2763   */\n      0x20\n        /* \"#utility.yul\":2750:2759   */\n      dup3\n        /* \"#utility.yul\":2746:2764   */\n      add\n        /* \"#utility.yul\":2738:2764   */\n      swap1\n      pop\n        /* \"#utility.yul\":2774:2858   */\n      tag_134\n        /* \"#utility.yul\":2855:2856   */\n      0x00\n        /* \"#utility.yul\":2844:2853   */\n      dup4\n        /* \"#utility.yul\":2840:2857   */\n      add\n        /* \"#utility.yul\":2831:2837   */\n      dup5\n        /* \"#utility.yul\":2774:2858   */\n      tag_81\n      jump\t// in\n    tag_134:\n        /* \"#utility.yul\":2617:2865   */\n      swap3\n      swap2\n      pop\n      pop\n      jump\t// out\n        /* \"#utility.yul\":2871:3040   */\n    tag_82:\n        /* \"#utility.yul\":2955:2966   */\n      0x00\n        /* \"#utility.yul\":2989:2995   */\n      dup3\n        /* \"#utility.yul\":2984:2987   */\n      dup3\n        /* \"#utility.yul\":2977:2996   */\n      mstore\n        /* \"#utility.yul\":3029:3033   */\n      0x20\n        /* \"#utility.yul\":3024:3027   */\n      dup3\n        /* \"#utility.yul\":3020:3034   */\n      add\n        /* \"#utility.yul\":3005:3034   */\n      swap1\n      pop\n        /* \"#utility.yul\":2871:3040   */\n      swap3\n      swap2\n      pop\n      pop\n      jump\t// out\n        /* \"#utility.yul\":3046:3228   */\n    tag_83:\n        /* \"#utility.yul\":3186:3220   */\n      0x4f6e6c7920746865206f776e65722063616e206578656375746520746869732e\n        /* \"#utility.yul\":3182:3183   */\n      0x00\n        /* \"#utility.yul\":3174:3180   */\n      dup3\n        /* \"#utility.yul\":3170:3184   */\n      add\n        /* \"#utility.yul\":3163:3221   */\n      mstore\n        /* \"#utility.yul\":3046:3228   */\n      pop\n      jump\t// out\n        /* \"#utility.yul\":3234:3600   */\n    tag_84:\n        /* \"#utility.yul\":3376:3379   */\n      0x00\n        /* \"#utility.yul\":3397:3464   */\n      tag_138\n        /* \"#utility.yul\":3461:3463   */\n      0x20\n        /* \"#utility.yul\":3456:3459   */\n      dup4\n        /* \"#utility.yul\":3397:3464   */\n      tag_82\n      jump\t// in\n    tag_138:\n        /* \"#utility.yul\":3390:3464   */\n      swap2\n      pop\n        /* \"#utility.yul\":3473:3566   */\n      tag_139\n        /* \"#utility.yul\":3562:3565   */\n      dup3\n        /* \"#utility.yul\":3473:3566   */\n      tag_83\n      jump\t// in\n    tag_139:\n        /* \"#utility.yul\":3591:3593   */\n      0x20\n        /* \"#utility.yul\":3586:3589   */\n      dup3\n        /* \"#utility.yul\":3582:3594   */\n      add\n        /* \"#utility.yul\":3575:3594   */\n      swap1\n      pop\n        /* \"#utility.yul\":3234:3600   */\n      swap2\n      swap1\n      pop\n      jump\t// out\n        /* \"#utility.yul\":3606:4025   */\n    tag_36:\n        /* \"#utility.yul\":3772:3776   */\n      0x00\n        /* \"#utility.yul\":3810:3812   */\n      0x20\n        /* \"#utility.yul\":3799:3808   */\n      dup3\n        /* \"#utility.yul\":3795:3813   */\n      add\n        /* \"#utility.yul\":3787:3813   */\n      swap1\n      pop\n        /* \"#utility.yul\":3859:3868   */\n      dup2\n        /* \"#utility.yul\":3853:3857   */\n      dup2\n        /* \"#utility.yul\":3849:3869   */\n      sub\n        /* \"#utility.yul\":3845:3846   */\n      0x00\n        /* \"#utility.yul\":3834:3843   */\n      dup4\n        /* \"#utility.yul\":3830:3847   */\n      add\n        /* \"#utility.yul\":3823:3870   */\n      mstore\n        /* \"#utility.yul\":3887:4018   */\n      tag_141\n        /* \"#utility.yul\":4013:4017   */\n      dup2\n        /* \"#utility.yul\":3887:4018   */\n      tag_84\n      jump\t// in\n    tag_141:\n        /* \"#utility.yul\":3879:4018   */\n      swap1\n      pop\n        /* \"#utility.yul\":3606:4025   */\n      swap2\n      swap1\n      pop\n      jump\t// out\n        /* \"#utility.yul\":4031:4211   */\n    tag_85:\n        /* \"#utility.yul\":4079:4156   */\n      0x4e487b7100000000000000000000000000000000000000000000000000000000\n        /* \"#utility.yul\":4076:4077   */\n      0x00\n        /* \"#utility.yul\":4069:4157   */\n      mstore\n        /* \"#utility.yul\":4176:4180   */\n      0x12\n        /* \"#utility.yul\":4173:4174   */\n      0x04\n        /* \"#utility.yul\":4166:4181   */\n      mstore\n        /* \"#utility.yul\":4200:4204   */\n      0x24\n        /* \"#utility.yul\":4197:4198   */\n      0x00\n        /* \"#utility.yul\":4190:4205   */\n      revert\n        /* \"#utility.yul\":4403:4588   */\n    tag_42:\n        /* \"#utility.yul\":4443:4444   */\n      0x00\n        /* \"#utility.yul\":4460:4480   */\n      tag_145\n        /* \"#utility.yul\":4478:4479   */\n      dup3\n        /* \"#utility.yul\":4460:4480   */\n      tag_73\n      jump\t// in\n    tag_145:\n        /* \"#utility.yul\":4455:4480   */\n      swap2\n      pop\n        /* \"#utility.yul\":4494:4514   */\n      tag_146\n        /* \"#utility.yul\":4512:4513   */\n      dup4\n        /* \"#utility.yul\":4494:4514   */\n      tag_73\n      jump\t// in\n    tag_146:\n        /* \"#utility.yul\":4489:4514   */\n      swap3\n      pop\n        /* \"#utility.yul\":4533:4534   */\n      dup3\n        /* \"#utility.yul\":4523:4558   */\n      tag_147\n      jumpi\n        /* \"#utility.yul\":4538:4556   */\n      tag_148\n      tag_85\n      jump\t// in\n    tag_148:\n        /* \"#utility.yul\":4523:4558   */\n    tag_147:\n        /* \"#utility.yul\":4580:4581   */\n      dup3\n        /* \"#utility.yul\":4577:4578   */\n      dup3\n        /* \"#utility.yul\":4573:4582   */\n      div\n        /* \"#utility.yul\":4568:4582   */\n      swap1\n      pop\n        /* \"#utility.yul\":4403:4588   */\n      swap3\n      swap2\n      pop\n      pop\n      jump\t// out\n        /* \"#utility.yul\":4594:4768   */\n    tag_87:\n        /* \"#utility.yul\":4734:4760   */\n      0x496e73756666696369656e742065746865722073656e742e0000000000000000\n        /* \"#utility.yul\":4730:4731   */\n      0x00\n        /* \"#utility.yul\":4722:4728   */\n      dup3\n        /* \"#utility.yul\":4718:4732   */\n      add\n        /* \"#utility.yul\":4711:4761   */\n      mstore\n        /* \"#utility.yul\":4594:4768   */\n      pop\n      jump\t// out\n        /* \"#utility.yul\":4774:5140   */\n    tag_88:\n        /* \"#utility.yul\":4916:4919   */\n      0x00\n        /* \"#utility.yul\":4937:5004   */\n      tag_151\n        /* \"#utility.yul\":5001:5003   */\n      0x18\n        /* \"#utility.yul\":4996:4999   */\n      dup4\n        /* \"#utility.yul\":4937:5004   */\n      tag_82\n      jump\t// in\n    tag_151:\n        /* \"#utility.yul\":4930:5004   */\n      swap2\n      pop\n        /* \"#utility.yul\":5013:5106   */\n      tag_152\n        /* \"#utility.yul\":5102:5105   */\n      dup3\n        /* \"#utility.yul\":5013:5106   */\n      tag_87\n      jump\t// in\n    tag_152:\n        /* \"#utility.yul\":5131:5133   */\n      0x20\n        /* \"#utility.yul\":5126:5129   */\n      dup3\n        /* \"#utility.yul\":5122:5134   */\n      add\n        /* \"#utility.yul\":5115:5134   */\n      swap1\n      pop\n        /* \"#utility.yul\":4774:5140   */\n      swap2\n      swap1\n      pop\n      jump\t// out\n        /* \"#utility.yul\":5146:5565   */\n    tag_45:\n        /* \"#utility.yul\":5312:5316   */\n      0x00\n        /* \"#utility.yul\":5350:5352   */\n      0x20\n        /* \"#utility.yul\":5339:5348   */\n      dup3\n        /* \"#utility.yul\":5335:5353   */\n      add\n        /* \"#utility.yul\":5327:5353   */\n      swap1\n      pop\n        /* \"#utility.yul\":5399:5408   */\n      dup2\n        /* \"#utility.yul\":5393:5397   */\n      dup2\n        /* \"#utility.yul\":5389:5409   */\n      sub\n        /* \"#utility.yul\":5385:5386   */\n      0x00\n        /* \"#utility.yul\":5374:5383   */\n      dup4\n        /* \"#utility.yul\":5370:5387   */\n      add\n        /* \"#utility.yul\":5363:5410   */\n      mstore\n        /* \"#utility.yul\":5427:5558   */\n      tag_154\n        /* \"#utility.yul\":5553:5557   */\n      dup2\n        /* \"#utility.yul\":5427:5558   */\n      tag_88\n      jump\t// in\n    tag_154:\n        /* \"#utility.yul\":5419:5558   */\n      swap1\n      pop\n        /* \"#utility.yul\":5146:5565   */\n      swap2\n      swap1\n      pop\n      jump\t// out\n        /* \"#utility.yul\":5571:5714   */\n    tag_89:\n        /* \"#utility.yul\":5628:5633   */\n      0x00\n        /* \"#utility.yul\":5659:5665   */\n      dup2\n        /* \"#utility.yul\":5653:5666   */\n      mload\n        /* \"#utility.yul\":5644:5666   */\n      swap1\n      pop\n        /* \"#utility.yul\":5675:5708   */\n      tag_156\n        /* \"#utility.yul\":5702:5707   */\n      dup2\n        /* \"#utility.yul\":5675:5708   */\n      tag_74\n      jump\t// in\n    tag_156:\n        /* \"#utility.yul\":5571:5714   */\n      swap3\n      swap2\n      pop\n      pop\n      jump\t// out\n        /* \"#utility.yul\":5720:6071   */\n    tag_50:\n        /* \"#utility.yul\":5790:5796   */\n      0x00\n        /* \"#utility.yul\":5839:5841   */\n      0x20\n        /* \"#utility.yul\":5827:5836   */\n      dup3\n        /* \"#utility.yul\":5818:5825   */\n      dup5\n        /* \"#utility.yul\":5814:5837   */\n      sub\n        /* \"#utility.yul\":5810:5842   */\n      slt\n        /* \"#utility.yul\":5807:5926   */\n      iszero\n      tag_158\n      jumpi\n        /* \"#utility.yul\":5845:5924   */\n      tag_159\n      tag_71\n      jump\t// in\n    tag_159:\n        /* \"#utility.yul\":5807:5926   */\n    tag_158:\n        /* \"#utility.yul\":5965:5966   */\n      0x00\n        /* \"#utility.yul\":5990:6054   */\n      tag_160\n        /* \"#utility.yul\":6046:6053   */\n      dup5\n        /* \"#utility.yul\":6037:6043   */\n      dup3\n        /* \"#utility.yul\":6026:6035   */\n      dup6\n        /* \"#utility.yul\":6022:6044   */\n      add\n        /* \"#utility.yul\":5990:6054   */\n      tag_89\n      jump\t// in\n    tag_160:\n        /* \"#utility.yul\":5980:6054   */\n      swap2\n      pop\n        /* \"#utility.yul\":5936:6064   */\n      pop\n        /* \"#utility.yul\":5720:6071   */\n      swap3\n      swap2\n      pop\n      pop\n      jump\t// out\n        /* \"#utility.yul\":6077:6303   */\n    tag_90:\n        /* \"#utility.yul\":6217:6251   */\n      0x496e73756666696369656e7420746f6b656e7320617661696c61626c6520666f\n        /* \"#utility.yul\":6213:6214   */\n      0x00\n        /* \"#utility.yul\":6205:6211   */\n      dup3\n        /* \"#utility.yul\":6201:6215   */\n      add\n        /* \"#utility.yul\":6194:6252   */\n      mstore\n        /* \"#utility.yul\":6286:6295   */\n      0x722073616c652e00000000000000000000000000000000000000000000000000\n        /* \"#utility.yul\":6281:6283   */\n      0x20\n        /* \"#utility.yul\":6273:6279   */\n      dup3\n        /* \"#utility.yul\":6269:6284   */\n      add\n        /* \"#utility.yul\":6262:6296   */\n      mstore\n        /* \"#utility.yul\":6077:6303   */\n      pop\n      jump\t// out\n        /* \"#utility.yul\":6309:6675   */\n    tag_91:\n        /* \"#utility.yul\":6451:6454   */\n      0x00\n        /* \"#utility.yul\":6472:6539   */\n      tag_163\n        /* \"#utility.yul\":6536:6538   */\n      0x27\n        /* \"#utility.yul\":6531:6534   */\n      dup4\n        /* \"#utility.yul\":6472:6539   */\n      tag_82\n      jump\t// in\n    tag_163:\n        /* \"#utility.yul\":6465:6539   */\n      swap2\n      pop\n        /* \"#utility.yul\":6548:6641   */\n      tag_164\n        /* \"#utility.yul\":6637:6640   */\n      dup3\n        /* \"#utility.yul\":6548:6641   */\n      tag_90\n      jump\t// in\n    tag_164:\n        /* \"#utility.yul\":6666:6668   */\n      0x40\n        /* \"#utility.yul\":6661:6664   */\n      dup3\n        /* \"#utility.yul\":6657:6669   */\n      add\n        /* \"#utility.yul\":6650:6669   */\n      swap1\n      pop\n        /* \"#utility.yul\":6309:6675   */\n      swap2\n      swap1\n      pop\n      jump\t// out\n        /* \"#utility.yul\":6681:7100   */\n    tag_53:\n        /* \"#utility.yul\":6847:6851   */\n      0x00\n        /* \"#utility.yul\":6885:6887   */\n      0x20\n        /* \"#utility.yul\":6874:6883   */\n      dup3\n        /* \"#utility.yul\":6870:6888   */\n      add\n        /* \"#utility.yul\":6862:6888   */\n      swap1\n      pop\n        /* \"#utility.yul\":6934:6943   */\n      dup2\n        /* \"#utility.yul\":6928:6932   */\n      dup2\n        /* \"#utility.yul\":6924:6944   */\n      sub\n        /* \"#utility.yul\":6920:6921   */\n      0x00\n        /* \"#utility.yul\":6909:6918   */\n      dup4\n        /* \"#utility.yul\":6905:6922   */\n      add\n        /* \"#utility.yul\":6898:6945   */\n      mstore\n        /* \"#utility.yul\":6962:7093   */\n      tag_166\n        /* \"#utility.yul\":7088:7092   */\n      dup2\n        /* \"#utility.yul\":6962:7093   */\n      tag_91\n      jump\t// in\n    tag_166:\n        /* \"#utility.yul\":6954:7093   */\n      swap1\n      pop\n        /* \"#utility.yul\":6681:7100   */\n      swap2\n      swap1\n      pop\n      jump\t// out\n        /* \"#utility.yul\":7106:7438   */\n    tag_55:\n        /* \"#utility.yul\":7227:7231   */\n      0x00\n        /* \"#utility.yul\":7265:7267   */\n      0x40\n        /* \"#utility.yul\":7254:7263   */\n      dup3\n        /* \"#utility.yul\":7250:7268   */\n      add\n        /* \"#utility.yul\":7242:7268   */\n      swap1\n      pop\n        /* \"#utility.yul\":7278:7349   */\n      tag_168\n        /* \"#utility.yul\":7346:7347   */\n      0x00\n        /* \"#utility.yul\":7335:7344   */\n      dup4\n        /* \"#utility.yul\":7331:7348   */\n      add\n        /* \"#utility.yul\":7322:7328   */\n      dup6\n        /* \"#utility.yul\":7278:7349   */\n      tag_69\n      jump\t// in\n    tag_168:\n        /* \"#utility.yul\":7359:7431   */\n      tag_169\n        /* \"#utility.yul\":7427:7429   */\n      0x20\n        /* \"#utility.yul\":7416:7425   */\n      dup4\n        /* \"#utility.yul\":7412:7430   */\n      add\n        /* \"#utility.yul\":7403:7409   */\n      dup5\n        /* \"#utility.yul\":7359:7431   */\n      tag_76\n      jump\t// in\n    tag_169:\n        /* \"#utility.yul\":7106:7438   */\n      swap4\n      swap3\n      pop\n      pop\n      pop\n      jump\t// out\n        /* \"#utility.yul\":7444:7534   */\n    tag_92:\n        /* \"#utility.yul\":7478:7485   */\n      0x00\n        /* \"#utility.yul\":7521:7526   */\n      dup2\n        /* \"#utility.yul\":7514:7527   */\n      iszero\n        /* \"#utility.yul\":7507:7528   */\n      iszero\n        /* \"#utility.yul\":7496:7528   */\n      swap1\n      pop\n        /* \"#utility.yul\":7444:7534   */\n      swap2\n      swap1\n      pop\n      jump\t// out\n        /* \"#utility.yul\":7540:7656   */\n    tag_93:\n        /* \"#utility.yul\":7610:7631   */\n      tag_172\n        /* \"#utility.yul\":7625:7630   */\n      dup2\n        /* \"#utility.yul\":7610:7631   */\n      tag_92\n      jump\t// in\n    tag_172:\n        /* \"#utility.yul\":7603:7608   */\n      dup2\n        /* \"#utility.yul\":7600:7632   */\n      eq\n        /* \"#utility.yul\":7590:7650   */\n      tag_173\n      jumpi\n        /* \"#utility.yul\":7646:7647   */\n      0x00\n        /* \"#utility.yul\":7643:7644   */\n      dup1\n        /* \"#utility.yul\":7636:7648   */\n      revert\n        /* \"#utility.yul\":7590:7650   */\n    tag_173:\n        /* \"#utility.yul\":7540:7656   */\n      pop\n      jump\t// out\n        /* \"#utility.yul\":7662:7799   */\n    tag_94:\n        /* \"#utility.yul\":7716:7721   */\n      0x00\n        /* \"#utility.yul\":7747:7753   */\n      dup2\n        /* \"#utility.yul\":7741:7754   */\n      mload\n        /* \"#utility.yul\":7732:7754   */\n      swap1\n      pop\n        /* \"#utility.yul\":7763:7793   */\n      tag_175\n        /* \"#utility.yul\":7787:7792   */\n      dup2\n        /* \"#utility.yul\":7763:7793   */\n      tag_93\n      jump\t// in\n    tag_175:\n        /* \"#utility.yul\":7662:7799   */\n      swap3\n      swap2\n      pop\n      pop\n      jump\t// out\n        /* \"#utility.yul\":7805:8150   */\n    tag_59:\n        /* \"#utility.yul\":7872:7878   */\n      0x00\n        /* \"#utility.yul\":7921:7923   */\n      0x20\n        /* \"#utility.yul\":7909:7918   */\n      dup3\n        /* \"#utility.yul\":7900:7907   */\n      dup5\n        /* \"#utility.yul\":7896:7919   */\n      sub\n        /* \"#utility.yul\":7892:7924   */\n      slt\n        /* \"#utility.yul\":7889:8008   */\n      iszero\n      tag_177\n      jumpi\n        /* \"#utility.yul\":7927:8006   */\n      tag_178\n      tag_71\n      jump\t// in\n    tag_178:\n        /* \"#utility.yul\":7889:8008   */\n    tag_177:\n        /* \"#utility.yul\":8047:8048   */\n      0x00\n        /* \"#utility.yul\":8072:8133   */\n      tag_179\n        /* \"#utility.yul\":8125:8132   */\n      dup5\n        /* \"#utility.yul\":8116:8122   */\n      dup3\n        /* \"#utility.yul\":8105:8114   */\n      dup6\n        /* \"#utility.yul\":8101:8123   */\n      add\n        /* \"#utility.yul\":8072:8133   */\n      tag_94\n      jump\t// in\n    tag_179:\n        /* \"#utility.yul\":8062:8133   */\n      swap2\n      pop\n        /* \"#utility.yul\":8018:8143   */\n      pop\n        /* \"#utility.yul\":7805:8150   */\n      swap3\n      swap2\n      pop\n      pop\n      jump\t// out\n        /* \"#utility.yul\":8156:8377   */\n    tag_95:\n        /* \"#utility.yul\":8296:8330   */\n      0x50726963652073686f756c642062652067726561746572207468616e207a6572\n        /* \"#utility.yul\":8292:8293   */\n      0x00\n        /* \"#utility.yul\":8284:8290   */\n      dup3\n        /* \"#utility.yul\":8280:8294   */\n      add\n        /* \"#utility.yul\":8273:8331   */\n      mstore\n        /* \"#utility.yul\":8365:8369   */\n      0x6f2e000000000000000000000000000000000000000000000000000000000000\n        /* \"#utility.yul\":8360:8362   */\n      0x20\n        /* \"#utility.yul\":8352:8358   */\n      dup3\n        /* \"#utility.yul\":8348:8363   */\n      add\n        /* \"#utility.yul\":8341:8370   */\n      mstore\n        /* \"#utility.yul\":8156:8377   */\n      pop\n      jump\t// out\n        /* \"#utility.yul\":8383:8749   */\n    tag_96:\n        /* \"#utility.yul\":8525:8528   */\n      0x00\n        /* \"#utility.yul\":8546:8613   */\n      tag_182\n        /* \"#utility.yul\":8610:8612   */\n      0x22\n        /* \"#utility.yul\":8605:8608   */\n      dup4\n        /* \"#utility.yul\":8546:8613   */\n      tag_82\n      jump\t// in\n    tag_182:\n        /* \"#utility.yul\":8539:8613   */\n      swap2\n      pop\n        /* \"#utility.yul\":8622:8715   */\n      tag_183\n        /* \"#utility.yul\":8711:8714   */\n      dup3\n        /* \"#utility.yul\":8622:8715   */\n      tag_95\n      jump\t// in\n    tag_183:\n        /* \"#utility.yul\":8740:8742   */\n      0x40\n        /* \"#utility.yul\":8735:8738   */\n      dup3\n        /* \"#utility.yul\":8731:8743   */\n      add\n        /* \"#utility.yul\":8724:8743   */\n      swap1\n      pop\n        /* \"#utility.yul\":8383:8749   */\n      swap2\n      swap1\n      pop\n      jump\t// out\n        /* \"#utility.yul\":8755:9174   */\n    tag_66:\n        /* \"#utility.yul\":8921:8925   */\n      0x00\n        /* \"#utility.yul\":8959:8961   */\n      0x20\n        /* \"#utility.yul\":8948:8957   */\n      dup3\n        /* \"#utility.yul\":8944:8962   */\n      add\n        /* \"#utility.yul\":8936:8962   */\n      swap1\n      pop\n        /* \"#utility.yul\":9008:9017   */\n      dup2\n        /* \"#utility.yul\":9002:9006   */\n      dup2\n        /* \"#utility.yul\":8998:9018   */\n      sub\n        /* \"#utility.yul\":8994:8995   */\n      0x00\n        /* \"#utility.yul\":8983:8992   */\n      dup4\n        /* \"#utility.yul\":8979:8996   */\n      add\n        /* \"#utility.yul\":8972:9019   */\n      mstore\n        /* \"#utility.yul\":9036:9167   */\n      tag_185\n        /* \"#utility.yul\":9162:9166   */\n      dup2\n        /* \"#utility.yul\":9036:9167   */\n      tag_96\n      jump\t// in\n    tag_185:\n        /* \"#utility.yul\":9028:9167   */\n      swap1\n      pop\n        /* \"#utility.yul\":8755:9174   */\n      swap2\n      swap1\n      pop\n      jump\t// out\n\n    auxdata: 0xa26469706673582212207067c9ad1fe6df71463a4cc5bb8656220966d655af6bdf85057ab244c502e09564736f6c63430008120033\n}\n",
				"bytecode": {
					"linkReferences": {},
					"object": "60806040523480156200001157600080fd5b5060405162000db738038062000db7833981810160405281019062000037919062000224565b600073ffffffffffffffffffffffffffffffffffffffff168273ffffffffffffffffffffffffffffffffffffffff1603620000a9576040517f08c379a0000000000000000000000000000000000000000000000000000000008152600401620000a090620002f2565b60405180910390fd5b60008111620000ef576040517f08c379a0000000000000000000000000000000000000000000000000000000008152600401620000e6906200038a565b60405180910390fd5b816000806101000a81548173ffffffffffffffffffffffffffffffffffffffff021916908373ffffffffffffffffffffffffffffffffffffffff16021790555033600160006101000a81548173ffffffffffffffffffffffffffffffffffffffff021916908373ffffffffffffffffffffffffffffffffffffffff160217905550806002819055505050620003ac565b600080fd5b600073ffffffffffffffffffffffffffffffffffffffff82169050919050565b6000620001b18262000184565b9050919050565b620001c381620001a4565b8114620001cf57600080fd5b50565b600081519050620001e381620001b8565b92915050565b6000819050919050565b620001fe81620001e9565b81146200020a57600080fd5b50565b6000815190506200021e81620001f3565b92915050565b600080604083850312156200023e576200023d6200017f565b5b60006200024e85828601620001d2565b925050602062000261858286016200020d565b9150509250929050565b600082825260208201905092915050565b7f546f6b656e20616464726573732063616e6e6f74206265207a65726f2061646460008201527f726573732e000000000000000000000000000000000000000000000000000000602082015250565b6000620002da6025836200026b565b9150620002e7826200027c565b604082019050919050565b600060208201905081810360008301526200030d81620002cb565b9050919050565b7f50726963652073686f756c642062652067726561746572207468616e207a657260008201527f6f2e000000000000000000000000000000000000000000000000000000000000602082015250565b6000620003726022836200026b565b91506200037f8262000314565b604082019050919050565b60006020820190508181036000830152620003a58162000363565b9050919050565b6109fb80620003bc6000396000f3fe6080604052600436106100555760003560e01c806324600fc31461005a57806364edfbf0146100715780638da5cb5b1461007b57806391b7f5ed146100a6578063a035b1fe146100cf578063fc0c546a146100fa575b600080fd5b34801561006657600080fd5b5061006f610125565b005b610079610220565b005b34801561008757600080fd5b506100906103f3565b60405161009d9190610561565b60405180910390f35b3480156100b257600080fd5b506100cd60048036038101906100c891906105b7565b610419565b005b3480156100db57600080fd5b506100e46104f6565b6040516100f191906105f3565b60405180910390f35b34801561010657600080fd5b5061010f6104fc565b60405161011c919061066d565b60405180910390f35b600160009054906101000a900473ffffffffffffffffffffffffffffffffffffffff1673ffffffffffffffffffffffffffffffffffffffff163373ffffffffffffffffffffffffffffffffffffffff16146101b5576040517f08c379a00000000000000000000000000000000000000000000000000000000081526004016101ac906106e5565b60405180910390fd5b600160009054906101000a900473ffffffffffffffffffffffffffffffffffffffff1673ffffffffffffffffffffffffffffffffffffffff166108fc479081150290604051600060405180830381858888f1935050505015801561021d573d6000803e3d6000fd5b50565b6000600254346102309190610734565b905060008111610275576040517f08c379a000000000000000000000000000000000000000000000000000000000815260040161026c906107b1565b60405180910390fd5b8060008054906101000a900473ffffffffffffffffffffffffffffffffffffffff1673ffffffffffffffffffffffffffffffffffffffff166370a08231306040518263ffffffff1660e01b81526004016102cf9190610561565b602060405180830381865afa1580156102ec573d6000803e3d6000fd5b505050506040513d601f19601f8201168201806040525081019061031091906107e6565b1015610351576040517f08c379a000000000000000000000000000000000000000000000000000000000815260040161034890610885565b60405180910390fd5b60008054906101000a900473ffffffffffffffffffffffffffffffffffffffff1673ffffffffffffffffffffffffffffffffffffffff1663a9059cbb33836040518363ffffffff1660e01b81526004016103ac9291906108a5565b6020604051808303816000875af11580156103cb573d6000803e3d6000fd5b505050506040513d601f19601f820116820180604052508101906103ef9190610906565b5050565b600160009054906101000a900473ffffffffffffffffffffffffffffffffffffffff1681565b600160009054906101000a900473ffffffffffffffffffffffffffffffffffffffff1673ffffffffffffffffffffffffffffffffffffffff163373ffffffffffffffffffffffffffffffffffffffff16146104a9576040517f08c379a00000000000000000000000000000000000000000000000000000000081526004016104a0906106e5565b60405180910390fd5b600081116104ec576040517f08c379a00000000000000000000000000000000000000000000000000000000081526004016104e3906109a5565b60405180910390fd5b8060028190555050565b60025481565b60008054906101000a900473ffffffffffffffffffffffffffffffffffffffff1681565b600073ffffffffffffffffffffffffffffffffffffffff82169050919050565b600061054b82610520565b9050919050565b61055b81610540565b82525050565b60006020820190506105766000830184610552565b92915050565b600080fd5b6000819050919050565b61059481610581565b811461059f57600080fd5b50565b6000813590506105b18161058b565b92915050565b6000602082840312156105cd576105cc61057c565b5b60006105db848285016105a2565b91505092915050565b6105ed81610581565b82525050565b600060208201905061060860008301846105e4565b92915050565b6000819050919050565b600061063361062e61062984610520565b61060e565b610520565b9050919050565b600061064582610618565b9050919050565b60006106578261063a565b9050919050565b6106678161064c565b82525050565b6000602082019050610682600083018461065e565b92915050565b600082825260208201905092915050565b7f4f6e6c7920746865206f776e65722063616e206578656375746520746869732e600082015250565b60006106cf602083610688565b91506106da82610699565b602082019050919050565b600060208201905081810360008301526106fe816106c2565b9050919050565b7f4e487b7100000000000000000000000000000000000000000000000000000000600052601260045260246000fd5b600061073f82610581565b915061074a83610581565b92508261075a57610759610705565b5b828204905092915050565b7f496e73756666696369656e742065746865722073656e742e0000000000000000600082015250565b600061079b601883610688565b91506107a682610765565b602082019050919050565b600060208201905081810360008301526107ca8161078e565b9050919050565b6000815190506107e08161058b565b92915050565b6000602082840312156107fc576107fb61057c565b5b600061080a848285016107d1565b91505092915050565b7f496e73756666696369656e7420746f6b656e7320617661696c61626c6520666f60008201527f722073616c652e00000000000000000000000000000000000000000000000000602082015250565b600061086f602783610688565b915061087a82610813565b604082019050919050565b6000602082019050818103600083015261089e81610862565b9050919050565b60006040820190506108ba6000830185610552565b6108c760208301846105e4565b9392505050565b60008115159050919050565b6108e3816108ce565b81146108ee57600080fd5b50565b600081519050610900816108da565b92915050565b60006020828403121561091c5761091b61057c565b5b600061092a848285016108f1565b91505092915050565b7f50726963652073686f756c642062652067726561746572207468616e207a657260008201527f6f2e000000000000000000000000000000000000000000000000000000000000602082015250565b600061098f602283610688565b915061099a82610933565b604082019050919050565b600060208201905081810360008301526109be81610982565b905091905056fea26469706673582212207067c9ad1fe6df71463a4cc5bb8656220966d655af6bdf85057ab244c502e09564736f6c63430008120033",
					"opcodes": "PUSH1 0x80 PUSH1 0x40 MSTORE CALLVALUE DUP1 ISZERO PUSH3 0x11 JUMPI PUSH1 0x0 DUP1 REVERT JUMPDEST POP PUSH1 0x40 MLOAD PUSH3 0xDB7 CODESIZE SUB DUP1 PUSH3 0xDB7 DUP4 CODECOPY DUP2 DUP2 ADD PUSH1 0x40 MSTORE DUP2 ADD SWAP1 PUSH3 0x37 SWAP2 SWAP1 PUSH3 0x224 JUMP JUMPDEST PUSH1 0x0 PUSH20 0xFFFFFFFFFFFFFFFFFFFFFFFFFFFFFFFFFFFFFFFF AND DUP3 PUSH20 0xFFFFFFFFFFFFFFFFFFFFFFFFFFFFFFFFFFFFFFFF AND SUB PUSH3 0xA9 JUMPI PUSH1 0x40 MLOAD PUSH32 0x8C379A000000000000000000000000000000000000000000000000000000000 DUP2 MSTORE PUSH1 0x4 ADD PUSH3 0xA0 SWAP1 PUSH3 0x2F2 JUMP JUMPDEST PUSH1 0x40 MLOAD DUP1 SWAP2 SUB SWAP1 REVERT JUMPDEST PUSH1 0x0 DUP2 GT PUSH3 0xEF JUMPI PUSH1 0x40 MLOAD PUSH32 0x8C379A000000000000000000000000000000000000000000000000000000000 DUP2 MSTORE PUSH1 0x4 ADD PUSH3 0xE6 SWAP1 PUSH3 0x38A JUMP JUMPDEST PUSH1 0x40 MLOAD DUP1 SWAP2 SUB SWAP1 REVERT JUMPDEST DUP2 PUSH1 0x0 DUP1 PUSH2 0x100 EXP DUP2 SLOAD DUP2 PUSH20 0xFFFFFFFFFFFFFFFFFFFFFFFFFFFFFFFFFFFFFFFF MUL NOT AND SWAP1 DUP4 PUSH20 0xFFFFFFFFFFFFFFFFFFFFFFFFFFFFFFFFFFFFFFFF AND MUL OR SWAP1 SSTORE POP CALLER PUSH1 0x1 PUSH1 0x0 PUSH2 0x100 EXP DUP2 SLOAD DUP2 PUSH20 0xFFFFFFFFFFFFFFFFFFFFFFFFFFFFFFFFFFFFFFFF MUL NOT AND SWAP1 DUP4 PUSH20 0xFFFFFFFFFFFFFFFFFFFFFFFFFFFFFFFFFFFFFFFF AND MUL OR SWAP1 SSTORE POP DUP1 PUSH1 0x2 DUP2 SWAP1 SSTORE POP POP POP PUSH3 0x3AC JUMP JUMPDEST PUSH1 0x0 DUP1 REVERT JUMPDEST PUSH1 0x0 PUSH20 0xFFFFFFFFFFFFFFFFFFFFFFFFFFFFFFFFFFFFFFFF DUP3 AND SWAP1 POP SWAP2 SWAP1 POP JUMP JUMPDEST PUSH1 0x0 PUSH3 0x1B1 DUP3 PUSH3 0x184 JUMP JUMPDEST SWAP1 POP SWAP2 SWAP1 POP JUMP JUMPDEST PUSH3 0x1C3 DUP2 PUSH3 0x1A4 JUMP JUMPDEST DUP2 EQ PUSH3 0x1CF JUMPI PUSH1 0x0 DUP1 REVERT JUMPDEST POP JUMP JUMPDEST PUSH1 0x0 DUP2 MLOAD SWAP1 POP PUSH3 0x1E3 DUP2 PUSH3 0x1B8 JUMP JUMPDEST SWAP3 SWAP2 POP POP JUMP JUMPDEST PUSH1 0x0 DUP2 SWAP1 POP SWAP2 SWAP1 POP JUMP JUMPDEST PUSH3 0x1FE DUP2 PUSH3 0x1E9 JUMP JUMPDEST DUP2 EQ PUSH3 0x20A JUMPI PUSH1 0x0 DUP1 REVERT JUMPDEST POP JUMP JUMPDEST PUSH1 0x0 DUP2 MLOAD SWAP1 POP PUSH3 0x21E DUP2 PUSH3 0x1F3 JUMP JUMPDEST SWAP3 SWAP2 POP POP JUMP JUMPDEST PUSH1 0x0 DUP1 PUSH1 0x40 DUP4 DUP6 SUB SLT ISZERO PUSH3 0x23E JUMPI PUSH3 0x23D PUSH3 0x17F JUMP JUMPDEST JUMPDEST PUSH1 0x0 PUSH3 0x24E DUP6 DUP3 DUP7 ADD PUSH3 0x1D2 JUMP JUMPDEST SWAP3 POP POP PUSH1 0x20 PUSH3 0x261 DUP6 DUP3 DUP7 ADD PUSH3 0x20D JUMP JUMPDEST SWAP2 POP POP SWAP3 POP SWAP3 SWAP1 POP JUMP JUMPDEST PUSH1 0x0 DUP3 DUP3 MSTORE PUSH1 0x20 DUP3 ADD SWAP1 POP SWAP3 SWAP2 POP POP JUMP JUMPDEST PUSH32 0x546F6B656E20616464726573732063616E6E6F74206265207A65726F20616464 PUSH1 0x0 DUP3 ADD MSTORE PUSH32 0x726573732E000000000000000000000000000000000000000000000000000000 PUSH1 0x20 DUP3 ADD MSTORE POP JUMP JUMPDEST PUSH1 0x0 PUSH3 0x2DA PUSH1 0x25 DUP4 PUSH3 0x26B JUMP JUMPDEST SWAP2 POP PUSH3 0x2E7 DUP3 PUSH3 0x27C JUMP JUMPDEST PUSH1 0x40 DUP3 ADD SWAP1 POP SWAP2 SWAP1 POP JUMP JUMPDEST PUSH1 0x0 PUSH1 0x20 DUP3 ADD SWAP1 POP DUP2 DUP2 SUB PUSH1 0x0 DUP4 ADD MSTORE PUSH3 0x30D DUP2 PUSH3 0x2CB JUMP JUMPDEST SWAP1 POP SWAP2 SWAP1 POP JUMP JUMPDEST PUSH32 0x50726963652073686F756C642062652067726561746572207468616E207A6572 PUSH1 0x0 DUP3 ADD MSTORE PUSH32 0x6F2E000000000000000000000000000000000000000000000000000000000000 PUSH1 0x20 DUP3 ADD MSTORE POP JUMP JUMPDEST PUSH1 0x0 PUSH3 0x372 PUSH1 0x22 DUP4 PUSH3 0x26B JUMP JUMPDEST SWAP2 POP PUSH3 0x37F DUP3 PUSH3 0x314 JUMP JUMPDEST PUSH1 0x40 DUP3 ADD SWAP1 POP SWAP2 SWAP1 POP JUMP JUMPDEST PUSH1 0x0 PUSH1 0x20 DUP3 ADD SWAP1 POP DUP2 DUP2 SUB PUSH1 0x0 DUP4 ADD MSTORE PUSH3 0x3A5 DUP2 PUSH3 0x363 JUMP JUMPDEST SWAP1 POP SWAP2 SWAP1 POP JUMP JUMPDEST PUSH2 0x9FB DUP1 PUSH3 0x3BC PUSH1 0x0 CODECOPY PUSH1 0x0 RETURN INVALID PUSH1 0x80 PUSH1 0x40 MSTORE PUSH1 0x4 CALLDATASIZE LT PUSH2 0x55 JUMPI PUSH1 0x0 CALLDATALOAD PUSH1 0xE0 SHR DUP1 PUSH4 0x24600FC3 EQ PUSH2 0x5A JUMPI DUP1 PUSH4 0x64EDFBF0 EQ PUSH2 0x71 JUMPI DUP1 PUSH4 0x8DA5CB5B EQ PUSH2 0x7B JUMPI DUP1 PUSH4 0x91B7F5ED EQ PUSH2 0xA6 JUMPI DUP1 PUSH4 0xA035B1FE EQ PUSH2 0xCF JUMPI DUP1 PUSH4 0xFC0C546A EQ PUSH2 0xFA JUMPI JUMPDEST PUSH1 0x0 DUP1 REVERT JUMPDEST CALLVALUE DUP1 ISZERO PUSH2 0x66 JUMPI PUSH1 0x0 DUP1 REVERT JUMPDEST POP PUSH2 0x6F PUSH2 0x125 JUMP JUMPDEST STOP JUMPDEST PUSH2 0x79 PUSH2 0x220 JUMP JUMPDEST STOP JUMPDEST CALLVALUE DUP1 ISZERO PUSH2 0x87 JUMPI PUSH1 0x0 DUP1 REVERT JUMPDEST POP PUSH2 0x90 PUSH2 0x3F3 JUMP JUMPDEST PUSH1 0x40 MLOAD PUSH2 0x9D SWAP2 SWAP1 PUSH2 0x561 JUMP JUMPDEST PUSH1 0x40 MLOAD DUP1 SWAP2 SUB SWAP1 RETURN JUMPDEST CALLVALUE DUP1 ISZERO PUSH2 0xB2 JUMPI PUSH1 0x0 DUP1 REVERT JUMPDEST POP PUSH2 0xCD PUSH1 0x4 DUP1 CALLDATASIZE SUB DUP2 ADD SWAP1 PUSH2 0xC8 SWAP2 SWAP1 PUSH2 0x5B7 JUMP JUMPDEST PUSH2 0x419 JUMP JUMPDEST STOP JUMPDEST CALLVALUE DUP1 ISZERO PUSH2 0xDB JUMPI PUSH1 0x0 DUP1 REVERT JUMPDEST POP PUSH2 0xE4 PUSH2 0x4F6 JUMP JUMPDEST PUSH1 0x40 MLOAD PUSH2 0xF1 SWAP2 SWAP1 PUSH2 0x5F3 JUMP JUMPDEST PUSH1 0x40 MLOAD DUP1 SWAP2 SUB SWAP1 RETURN JUMPDEST CALLVALUE DUP1 ISZERO PUSH2 0x106 JUMPI PUSH1 0x0 DUP1 REVERT JUMPDEST POP PUSH2 0x10F PUSH2 0x4FC JUMP JUMPDEST PUSH1 0x40 MLOAD PUSH2 0x11C SWAP2 SWAP1 PUSH2 0x66D JUMP JUMPDEST PUSH1 0x40 MLOAD DUP1 SWAP2 SUB SWAP1 RETURN JUMPDEST PUSH1 0x1 PUSH1 0x0 SWAP1 SLOAD SWAP1 PUSH2 0x100 EXP SWAP1 DIV PUSH20 0xFFFFFFFFFFFFFFFFFFFFFFFFFFFFFFFFFFFFFFFF AND PUSH20 0xFFFFFFFFFFFFFFFFFFFFFFFFFFFFFFFFFFFFFFFF AND CALLER PUSH20 0xFFFFFFFFFFFFFFFFFFFFFFFFFFFFFFFFFFFFFFFF AND EQ PUSH2 0x1B5 JUMPI PUSH1 0x40 MLOAD PUSH32 0x8C379A000000000000000000000000000000000000000000000000000000000 DUP2 MSTORE PUSH1 0x4 ADD PUSH2 0x1AC SWAP1 PUSH2 0x6E5 JUMP JUMPDEST PUSH1 0x40 MLOAD DUP1 SWAP2 SUB SWAP1 REVERT JUMPDEST PUSH1 0x1 PUSH1 0x0 SWAP1 SLOAD SWAP1 PUSH2 0x100 EXP SWAP1 DIV PUSH20 0xFFFFFFFFFFFFFFFFFFFFFFFFFFFFFFFFFFFFFFFF AND PUSH20 0xFFFFFFFFFFFFFFFFFFFFFFFFFFFFFFFFFFFFFFFF AND PUSH2 0x8FC SELFBALANCE SWAP1 DUP2 ISZERO MUL SWAP1 PUSH1 0x40 MLOAD PUSH1 0x0 PUSH1 0x40 MLOAD DUP1 DUP4 SUB DUP2 DUP6 DUP9 DUP9 CALL SWAP4 POP POP POP POP ISZERO DUP1 ISZERO PUSH2 0x21D JUMPI RETURNDATASIZE PUSH1 0x0 DUP1 RETURNDATACOPY RETURNDATASIZE PUSH1 0x0 REVERT JUMPDEST POP JUMP JUMPDEST PUSH1 0x0 PUSH1 0x2 SLOAD CALLVALUE PUSH2 0x230 SWAP2 SWAP1 PUSH2 0x734 JUMP JUMPDEST SWAP1 POP PUSH1 0x0 DUP2 GT PUSH2 0x275 JUMPI PUSH1 0x40 MLOAD PUSH32 0x8C379A000000000000000000000000000000000000000000000000000000000 DUP2 MSTORE PUSH1 0x4 ADD PUSH2 0x26C SWAP1 PUSH2 0x7B1 JUMP JUMPDEST PUSH1 0x40 MLOAD DUP1 SWAP2 SUB SWAP1 REVERT JUMPDEST DUP1 PUSH1 0x0 DUP1 SLOAD SWAP1 PUSH2 0x100 EXP SWAP1 DIV PUSH20 0xFFFFFFFFFFFFFFFFFFFFFFFFFFFFFFFFFFFFFFFF AND PUSH20 0xFFFFFFFFFFFFFFFFFFFFFFFFFFFFFFFFFFFFFFFF AND PUSH4 0x70A08231 ADDRESS PUSH1 0x40 MLOAD DUP3 PUSH4 0xFFFFFFFF AND PUSH1 0xE0 SHL DUP2 MSTORE PUSH1 0x4 ADD PUSH2 0x2CF SWAP2 SWAP1 PUSH2 0x561 JUMP JUMPDEST PUSH1 0x20 PUSH1 0x40 MLOAD DUP1 DUP4 SUB DUP2 DUP7 GAS STATICCALL ISZERO DUP1 ISZERO PUSH2 0x2EC JUMPI RETURNDATASIZE PUSH1 0x0 DUP1 RETURNDATACOPY RETURNDATASIZE PUSH1 0x0 REVERT JUMPDEST POP POP POP POP PUSH1 0x40 MLOAD RETURNDATASIZE PUSH1 0x1F NOT PUSH1 0x1F DUP3 ADD AND DUP3 ADD DUP1 PUSH1 0x40 MSTORE POP DUP2 ADD SWAP1 PUSH2 0x310 SWAP2 SWAP1 PUSH2 0x7E6 JUMP JUMPDEST LT ISZERO PUSH2 0x351 JUMPI PUSH1 0x40 MLOAD PUSH32 0x8C379A000000000000000000000000000000000000000000000000000000000 DUP2 MSTORE PUSH1 0x4 ADD PUSH2 0x348 SWAP1 PUSH2 0x885 JUMP JUMPDEST PUSH1 0x40 MLOAD DUP1 SWAP2 SUB SWAP1 REVERT JUMPDEST PUSH1 0x0 DUP1 SLOAD SWAP1 PUSH2 0x100 EXP SWAP1 DIV PUSH20 0xFFFFFFFFFFFFFFFFFFFFFFFFFFFFFFFFFFFFFFFF AND PUSH20 0xFFFFFFFFFFFFFFFFFFFFFFFFFFFFFFFFFFFFFFFF AND PUSH4 0xA9059CBB CALLER DUP4 PUSH1 0x40 MLOAD DUP4 PUSH4 0xFFFFFFFF AND PUSH1 0xE0 SHL DUP2 MSTORE PUSH1 0x4 ADD PUSH2 0x3AC SWAP3 SWAP2 SWAP1 PUSH2 0x8A5 JUMP JUMPDEST PUSH1 0x20 PUSH1 0x40 MLOAD DUP1 DUP4 SUB DUP2 PUSH1 0x0 DUP8 GAS CALL ISZERO DUP1 ISZERO PUSH2 0x3CB JUMPI RETURNDATASIZE PUSH1 0x0 DUP1 RETURNDATACOPY RETURNDATASIZE PUSH1 0x0 REVERT JUMPDEST POP POP POP POP PUSH1 0x40 MLOAD RETURNDATASIZE PUSH1 0x1F NOT PUSH1 0x1F DUP3 ADD AND DUP3 ADD DUP1 PUSH1 0x40 MSTORE POP DUP2 ADD SWAP1 PUSH2 0x3EF SWAP2 SWAP1 PUSH2 0x906 JUMP JUMPDEST POP POP JUMP JUMPDEST PUSH1 0x1 PUSH1 0x0 SWAP1 SLOAD SWAP1 PUSH2 0x100 EXP SWAP1 DIV PUSH20 0xFFFFFFFFFFFFFFFFFFFFFFFFFFFFFFFFFFFFFFFF AND DUP2 JUMP JUMPDEST PUSH1 0x1 PUSH1 0x0 SWAP1 SLOAD SWAP1 PUSH2 0x100 EXP SWAP1 DIV PUSH20 0xFFFFFFFFFFFFFFFFFFFFFFFFFFFFFFFFFFFFFFFF AND PUSH20 0xFFFFFFFFFFFFFFFFFFFFFFFFFFFFFFFFFFFFFFFF AND CALLER PUSH20 0xFFFFFFFFFFFFFFFFFFFFFFFFFFFFFFFFFFFFFFFF AND EQ PUSH2 0x4A9 JUMPI PUSH1 0x40 MLOAD PUSH32 0x8C379A000000000000000000000000000000000000000000000000000000000 DUP2 MSTORE PUSH1 0x4 ADD PUSH2 0x4A0 SWAP1 PUSH2 0x6E5 JUMP JUMPDEST PUSH1 0x40 MLOAD DUP1 SWAP2 SUB SWAP1 REVERT JUMPDEST PUSH1 0x0 DUP2 GT PUSH2 0x4EC JUMPI PUSH1 0x40 MLOAD PUSH32 0x8C379A000000000000000000000000000000000000000000000000000000000 DUP2 MSTORE PUSH1 0x4 ADD PUSH2 0x4E3 SWAP1 PUSH2 0x9A5 JUMP JUMPDEST PUSH1 0x40 MLOAD DUP1 SWAP2 SUB SWAP1 REVERT JUMPDEST DUP1 PUSH1 0x2 DUP2 SWAP1 SSTORE POP POP JUMP JUMPDEST PUSH1 0x2 SLOAD DUP2 JUMP JUMPDEST PUSH1 0x0 DUP1 SLOAD SWAP1 PUSH2 0x100 EXP SWAP1 DIV PUSH20 0xFFFFFFFFFFFFFFFFFFFFFFFFFFFFFFFFFFFFFFFF AND DUP2 JUMP JUMPDEST PUSH1 0x0 PUSH20 0xFFFFFFFFFFFFFFFFFFFFFFFFFFFFFFFFFFFFFFFF DUP3 AND SWAP1 POP SWAP2 SWAP1 POP JUMP JUMPDEST PUSH1 0x0 PUSH2 0x54B DUP3 PUSH2 0x520 JUMP JUMPDEST SWAP1 POP SWAP2 SWAP1 POP JUMP JUMPDEST PUSH2 0x55B DUP2 PUSH2 0x540 JUMP JUMPDEST DUP3 MSTORE POP POP JUMP JUMPDEST PUSH1 0x0 PUSH1 0x20 DUP3 ADD SWAP1 POP PUSH2 0x576 PUSH1 0x0 DUP4 ADD DUP5 PUSH2 0x552 JUMP JUMPDEST SWAP3 SWAP2 POP POP JUMP JUMPDEST PUSH1 0x0 DUP1 REVERT JUMPDEST PUSH1 0x0 DUP2 SWAP1 POP SWAP2 SWAP1 POP JUMP JUMPDEST PUSH2 0x594 DUP2 PUSH2 0x581 JUMP JUMPDEST DUP2 EQ PUSH2 0x59F JUMPI PUSH1 0x0 DUP1 REVERT JUMPDEST POP JUMP JUMPDEST PUSH1 0x0 DUP2 CALLDATALOAD SWAP1 POP PUSH2 0x5B1 DUP2 PUSH2 0x58B JUMP JUMPDEST SWAP3 SWAP2 POP POP JUMP JUMPDEST PUSH1 0x0 PUSH1 0x20 DUP3 DUP5 SUB SLT ISZERO PUSH2 0x5CD JUMPI PUSH2 0x5CC PUSH2 0x57C JUMP JUMPDEST JUMPDEST PUSH1 0x0 PUSH2 0x5DB DUP5 DUP3 DUP6 ADD PUSH2 0x5A2 JUMP JUMPDEST SWAP2 POP POP SWAP3 SWAP2 POP POP JUMP JUMPDEST PUSH2 0x5ED DUP2 PUSH2 0x581 JUMP JUMPDEST DUP3 MSTORE POP POP JUMP JUMPDEST PUSH1 0x0 PUSH1 0x20 DUP3 ADD SWAP1 POP PUSH2 0x608 PUSH1 0x0 DUP4 ADD DUP5 PUSH2 0x5E4 JUMP JUMPDEST SWAP3 SWAP2 POP POP JUMP JUMPDEST PUSH1 0x0 DUP2 SWAP1 POP SWAP2 SWAP1 POP JUMP JUMPDEST PUSH1 0x0 PUSH2 0x633 PUSH2 0x62E PUSH2 0x629 DUP5 PUSH2 0x520 JUMP JUMPDEST PUSH2 0x60E JUMP JUMPDEST PUSH2 0x520 JUMP JUMPDEST SWAP1 POP SWAP2 SWAP1 POP JUMP JUMPDEST PUSH1 0x0 PUSH2 0x645 DUP3 PUSH2 0x618 JUMP JUMPDEST SWAP1 POP SWAP2 SWAP1 POP JUMP JUMPDEST PUSH1 0x0 PUSH2 0x657 DUP3 PUSH2 0x63A JUMP JUMPDEST SWAP1 POP SWAP2 SWAP1 POP JUMP JUMPDEST PUSH2 0x667 DUP2 PUSH2 0x64C JUMP JUMPDEST DUP3 MSTORE POP POP JUMP JUMPDEST PUSH1 0x0 PUSH1 0x20 DUP3 ADD SWAP1 POP PUSH2 0x682 PUSH1 0x0 DUP4 ADD DUP5 PUSH2 0x65E JUMP JUMPDEST SWAP3 SWAP2 POP POP JUMP JUMPDEST PUSH1 0x0 DUP3 DUP3 MSTORE PUSH1 0x20 DUP3 ADD SWAP1 POP SWAP3 SWAP2 POP POP JUMP JUMPDEST PUSH32 0x4F6E6C7920746865206F776E65722063616E206578656375746520746869732E PUSH1 0x0 DUP3 ADD MSTORE POP JUMP JUMPDEST PUSH1 0x0 PUSH2 0x6CF PUSH1 0x20 DUP4 PUSH2 0x688 JUMP JUMPDEST SWAP2 POP PUSH2 0x6DA DUP3 PUSH2 0x699 JUMP JUMPDEST PUSH1 0x20 DUP3 ADD SWAP1 POP SWAP2 SWAP1 POP JUMP JUMPDEST PUSH1 0x0 PUSH1 0x20 DUP3 ADD SWAP1 POP DUP2 DUP2 SUB PUSH1 0x0 DUP4 ADD MSTORE PUSH2 0x6FE DUP2 PUSH2 0x6C2 JUMP JUMPDEST SWAP1 POP SWAP2 SWAP1 POP JUMP JUMPDEST PUSH32 0x4E487B7100000000000000000000000000000000000000000000000000000000 PUSH1 0x0 MSTORE PUSH1 0x12 PUSH1 0x4 MSTORE PUSH1 0x24 PUSH1 0x0 REVERT JUMPDEST PUSH1 0x0 PUSH2 0x73F DUP3 PUSH2 0x581 JUMP JUMPDEST SWAP2 POP PUSH2 0x74A DUP4 PUSH2 0x581 JUMP JUMPDEST SWAP3 POP DUP3 PUSH2 0x75A JUMPI PUSH2 0x759 PUSH2 0x705 JUMP JUMPDEST JUMPDEST DUP3 DUP3 DIV SWAP1 POP SWAP3 SWAP2 POP POP JUMP JUMPDEST PUSH32 0x496E73756666696369656E742065746865722073656E742E0000000000000000 PUSH1 0x0 DUP3 ADD MSTORE POP JUMP JUMPDEST PUSH1 0x0 PUSH2 0x79B PUSH1 0x18 DUP4 PUSH2 0x688 JUMP JUMPDEST SWAP2 POP PUSH2 0x7A6 DUP3 PUSH2 0x765 JUMP JUMPDEST PUSH1 0x20 DUP3 ADD SWAP1 POP SWAP2 SWAP1 POP JUMP JUMPDEST PUSH1 0x0 PUSH1 0x20 DUP3 ADD SWAP1 POP DUP2 DUP2 SUB PUSH1 0x0 DUP4 ADD MSTORE PUSH2 0x7CA DUP2 PUSH2 0x78E JUMP JUMPDEST SWAP1 POP SWAP2 SWAP1 POP JUMP JUMPDEST PUSH1 0x0 DUP2 MLOAD SWAP1 POP PUSH2 0x7E0 DUP2 PUSH2 0x58B JUMP JUMPDEST SWAP3 SWAP2 POP POP JUMP JUMPDEST PUSH1 0x0 PUSH1 0x20 DUP3 DUP5 SUB SLT ISZERO PUSH2 0x7FC JUMPI PUSH2 0x7FB PUSH2 0x57C JUMP JUMPDEST JUMPDEST PUSH1 0x0 PUSH2 0x80A DUP5 DUP3 DUP6 ADD PUSH2 0x7D1 JUMP JUMPDEST SWAP2 POP POP SWAP3 SWAP2 POP POP JUMP JUMPDEST PUSH32 0x496E73756666696369656E7420746F6B656E7320617661696C61626C6520666F PUSH1 0x0 DUP3 ADD MSTORE PUSH32 0x722073616C652E00000000000000000000000000000000000000000000000000 PUSH1 0x20 DUP3 ADD MSTORE POP JUMP JUMPDEST PUSH1 0x0 PUSH2 0x86F PUSH1 0x27 DUP4 PUSH2 0x688 JUMP JUMPDEST SWAP2 POP PUSH2 0x87A DUP3 PUSH2 0x813 JUMP JUMPDEST PUSH1 0x40 DUP3 ADD SWAP1 POP SWAP2 SWAP1 POP JUMP JUMPDEST PUSH1 0x0 PUSH1 0x20 DUP3 ADD SWAP1 POP DUP2 DUP2 SUB PUSH1 0x0 DUP4 ADD MSTORE PUSH2 0x89E DUP2 PUSH2 0x862 JUMP JUMPDEST SWAP1 POP SWAP2 SWAP1 POP JUMP JUMPDEST PUSH1 0x0 PUSH1 0x40 DUP3 ADD SWAP1 POP PUSH2 0x8BA PUSH1 0x0 DUP4 ADD DUP6 PUSH2 0x552 JUMP JUMPDEST PUSH2 0x8C7 PUSH1 0x20 DUP4 ADD DUP5 PUSH2 0x5E4 JUMP JUMPDEST SWAP4 SWAP3 POP POP POP JUMP JUMPDEST PUSH1 0x0 DUP2 ISZERO ISZERO SWAP1 POP SWAP2 SWAP1 POP JUMP JUMPDEST PUSH2 0x8E3 DUP2 PUSH2 0x8CE JUMP JUMPDEST DUP2 EQ PUSH2 0x8EE JUMPI PUSH1 0x0 DUP1 REVERT JUMPDEST POP JUMP JUMPDEST PUSH1 0x0 DUP2 MLOAD SWAP1 POP PUSH2 0x900 DUP2 PUSH2 0x8DA JUMP JUMPDEST SWAP3 SWAP2 POP POP JUMP JUMPDEST PUSH1 0x0 PUSH1 0x20 DUP3 DUP5 SUB SLT ISZERO PUSH2 0x91C JUMPI PUSH2 0x91B PUSH2 0x57C JUMP JUMPDEST JUMPDEST PUSH1 0x0 PUSH2 0x92A DUP5 DUP3 DUP6 ADD PUSH2 0x8F1 JUMP JUMPDEST SWAP2 POP POP SWAP3 SWAP2 POP POP JUMP JUMPDEST PUSH32 0x50726963652073686F756C642062652067726561746572207468616E207A6572 PUSH1 0x0 DUP3 ADD MSTORE PUSH32 0x6F2E000000000000000000000000000000000000000000000000000000000000 PUSH1 0x20 DUP3 ADD MSTORE POP JUMP JUMPDEST PUSH1 0x0 PUSH2 0x98F PUSH1 0x22 DUP4 PUSH2 0x688 JUMP JUMPDEST SWAP2 POP PUSH2 0x99A DUP3 PUSH2 0x933 JUMP JUMPDEST PUSH1 0x40 DUP3 ADD SWAP1 POP SWAP2 SWAP1 POP JUMP JUMPDEST PUSH1 0x0 PUSH1 0x20 DUP3 ADD SWAP1 POP DUP2 DUP2 SUB PUSH1 0x0 DUP4 ADD MSTORE PUSH2 0x9BE DUP2 PUSH2 0x982 JUMP JUMPDEST SWAP1 POP SWAP2 SWAP1 POP JUMP INVALID LOG2 PUSH5 0x6970667358 0x22 SLT KECCAK256 PUSH17 0x67C9AD1FE6DF71463A4CC5BB8656220966 0xD6 SSTORE 0xAF PUSH12 0xDF85057AB244C502E0956473 PUSH16 0x6C634300081200330000000000000000 "
				},
				"gasEstimates": {
					"creation": {
						"codeDepositCost": "511000",
						"executionCost": "infinite",
						"totalCost": "infinite"
					},
					"external": {
						"owner()": "2536",
						"price()": "2495",
						"purchase()": "infinite",
						"setPrice(uint256)": "24757",
						"token()": "infinite",
						"withdrawFunds()": "infinite"
					}
				},
				"methodIdentifiers": {
					"owner()": "8da5cb5b",
					"price()": "a035b1fe",
					"purchase()": "64edfbf0",
					"setPrice(uint256)": "91b7f5ed",
					"token()": "fc0c546a",
					"withdrawFunds()": "24600fc3"
				}
			},
			"storageLayout": {
				"storage": [
					{
						"astId": 717,
						"contract": "krisha7TokenSale.sol:TokenSale",
						"label": "token",
						"offset": 0,
						"slot": "0",
						"type": "t_contract(ERC20)586"
					},
					{
						"astId": 719,
						"contract": "krisha7TokenSale.sol:TokenSale",
						"label": "owner",
						"offset": 0,
						"slot": "1",
						"type": "t_address"
					},
					{
						"astId": 721,
						"contract": "krisha7TokenSale.sol:TokenSale",
						"label": "price",
						"offset": 0,
						"slot": "2",
						"type": "t_uint256"
					}
				],
				"types": {
					"t_address": {
						"encoding": "inplace",
						"label": "address",
						"numberOfBytes": "20"
					},
					"t_contract(ERC20)586": {
						"encoding": "inplace",
						"label": "contract ERC20",
						"numberOfBytes": "20"
					},
					"t_uint256": {
						"encoding": "inplace",
						"label": "uint256",
						"numberOfBytes": "32"
					}
				}
			},
			"userdoc": {
				"kind": "user",
				"methods": {},
				"version": 1
			}
		}
	}
}